{
	"TransferInBulk.sol": {
		"BulkTransfer": {
			"abi": [
				{
					"anonymous": false,
					"inputs": [
						{
							"indexed": true,
							"internalType": "address",
							"name": "previousOwner",
							"type": "address"
						},
						{
							"indexed": true,
							"internalType": "address",
							"name": "newOwner",
							"type": "address"
						}
					],
					"name": "OwnershipTransferred",
					"type": "event"
				},
				{
					"inputs": [],
					"name": "owner",
					"outputs": [
						{
							"internalType": "address",
							"name": "",
							"type": "address"
						}
					],
					"stateMutability": "view",
					"type": "function"
				},
				{
					"inputs": [],
					"name": "renounceOwnership",
					"outputs": [],
					"stateMutability": "nonpayable",
					"type": "function"
				},
				{
					"inputs": [],
					"name": "residueGas",
					"outputs": [
						{
							"internalType": "uint256",
							"name": "",
							"type": "uint256"
						}
					],
					"stateMutability": "view",
					"type": "function"
				},
				{
					"inputs": [
						{
							"internalType": "address payable[]",
							"name": "to",
							"type": "address[]"
						},
						{
							"internalType": "uint256",
							"name": "amount",
							"type": "uint256"
						}
					],
					"name": "transferEth",
					"outputs": [],
					"stateMutability": "payable",
					"type": "function"
				},
				{
					"inputs": [
						{
							"internalType": "address",
							"name": "newOwner",
							"type": "address"
						}
					],
					"name": "transferOwnership",
					"outputs": [],
					"stateMutability": "nonpayable",
					"type": "function"
				},
				{
					"inputs": [
						{
							"internalType": "address payable[]",
							"name": "to",
							"type": "address[]"
						},
						{
							"internalType": "uint256[]",
							"name": "amount",
							"type": "uint256[]"
						}
					],
					"name": "transferProEth",
					"outputs": [],
					"stateMutability": "payable",
					"type": "function"
				},
				{
					"inputs": [
						{
							"internalType": "address",
							"name": "_token",
							"type": "address"
						},
						{
							"internalType": "address[]",
							"name": "to",
							"type": "address[]"
						},
						{
							"internalType": "uint256[]",
							"name": "amount",
							"type": "uint256[]"
						}
					],
					"name": "transferProToken",
					"outputs": [],
					"stateMutability": "nonpayable",
					"type": "function"
				},
				{
					"inputs": [
						{
							"internalType": "address",
							"name": "_token",
							"type": "address"
						},
						{
							"internalType": "address[]",
							"name": "to",
							"type": "address[]"
						},
						{
							"internalType": "uint256",
							"name": "amount",
							"type": "uint256"
						}
					],
					"name": "transferToken",
					"outputs": [],
					"stateMutability": "nonpayable",
					"type": "function"
				},
				{
					"inputs": [
						{
							"internalType": "address",
							"name": "to",
							"type": "address"
						}
					],
					"name": "withdrawEth",
					"outputs": [],
					"stateMutability": "nonpayable",
					"type": "function"
				},
				{
					"inputs": [
						{
							"internalType": "address",
							"name": "token_address",
							"type": "address"
						},
						{
							"internalType": "address",
							"name": "to",
							"type": "address"
						}
					],
					"name": "withdrawToken",
					"outputs": [],
					"stateMutability": "nonpayable",
					"type": "function"
				}
			],
			"devdoc": {
				"kind": "dev",
				"methods": {},
				"version": 1
			},
			"evm": {
				"assembly": "    /* \"TransferInBulk.sol\":12484:14869  contract BulkTransfer is Ownable {... */\n  mstore(0x40, 0x80)\n  callvalue\n  dup1\n  iszero\n  tag_1\n  jumpi\n  0x00\n  dup1\n  revert\ntag_1:\n  pop\n    /* \"TransferInBulk.sol\":9128:9160  _transferOwnership(_msgSender()) */\n  tag_4\n    /* \"TransferInBulk.sol\":9147:9159  _msgSender() */\n  tag_5\n    /* \"TransferInBulk.sol\":9147:9157  _msgSender */\n  shl(0x20, tag_6)\n    /* \"TransferInBulk.sol\":9147:9159  _msgSender() */\n  0x20\n  shr\n  jump\t// in\ntag_5:\n    /* \"TransferInBulk.sol\":9128:9146  _transferOwnership */\n  shl(0x20, tag_7)\n    /* \"TransferInBulk.sol\":9128:9160  _transferOwnership(_msgSender()) */\n  0x20\n  shr\n  jump\t// in\ntag_4:\n    /* \"TransferInBulk.sol\":12484:14869  contract BulkTransfer is Ownable {... */\n  jump(tag_8)\n    /* \"TransferInBulk.sol\":8715:8811  function _msgSender() internal view virtual returns (address) {... */\ntag_6:\n    /* \"TransferInBulk.sol\":8768:8775  address */\n  0x00\n    /* \"TransferInBulk.sol\":8794:8804  msg.sender */\n  caller\n    /* \"TransferInBulk.sol\":8787:8804  return msg.sender */\n  swap1\n  pop\n    /* \"TransferInBulk.sol\":8715:8811  function _msgSender() internal view virtual returns (address) {... */\n  swap1\n  jump\t// out\n    /* \"TransferInBulk.sol\":9813:10000  function _transferOwnership(address newOwner) internal virtual {... */\ntag_7:\n    /* \"TransferInBulk.sol\":9886:9902  address oldOwner */\n  0x00\n    /* \"TransferInBulk.sol\":9905:9911  _owner */\n  dup1\n  0x00\n  swap1\n  sload\n  swap1\n  0x0100\n  exp\n  swap1\n  div\n  0xffffffffffffffffffffffffffffffffffffffff\n  and\n    /* \"TransferInBulk.sol\":9886:9911  address oldOwner = _owner */\n  swap1\n  pop\n    /* \"TransferInBulk.sol\":9930:9938  newOwner */\n  dup2\n    /* \"TransferInBulk.sol\":9921:9927  _owner */\n  0x00\n  dup1\n    /* \"TransferInBulk.sol\":9921:9938  _owner = newOwner */\n  0x0100\n  exp\n  dup2\n  sload\n  dup2\n  0xffffffffffffffffffffffffffffffffffffffff\n  mul\n  not\n  and\n  swap1\n  dup4\n  0xffffffffffffffffffffffffffffffffffffffff\n  and\n  mul\n  or\n  swap1\n  sstore\n  pop\n    /* \"TransferInBulk.sol\":9984:9992  newOwner */\n  dup2\n    /* \"TransferInBulk.sol\":9953:9993  OwnershipTransferred(oldOwner, newOwner) */\n  0xffffffffffffffffffffffffffffffffffffffff\n  and\n    /* \"TransferInBulk.sol\":9974:9982  oldOwner */\n  dup2\n    /* \"TransferInBulk.sol\":9953:9993  OwnershipTransferred(oldOwner, newOwner) */\n  0xffffffffffffffffffffffffffffffffffffffff\n  and\n  0x8be0079c531659141344cd1fd0a4f28419497f9722a3daafe3b4186f6b6457e0\n  mload(0x40)\n  mload(0x40)\n  dup1\n  swap2\n  sub\n  swap1\n  log3\n    /* \"TransferInBulk.sol\":9876:10000  {... */\n  pop\n    /* \"TransferInBulk.sol\":9813:10000  function _transferOwnership(address newOwner) internal virtual {... */\n  pop\n  jump\t// out\n    /* \"TransferInBulk.sol\":12484:14869  contract BulkTransfer is Ownable {... */\ntag_8:\n  dataSize(sub_0)\n  dup1\n  dataOffset(sub_0)\n  0x00\n  codecopy\n  0x00\n  return\nstop\n\nsub_0: assembly {\n        /* \"TransferInBulk.sol\":12484:14869  contract BulkTransfer is Ownable {... */\n      mstore(0x40, 0x80)\n      jumpi(tag_1, lt(calldatasize, 0x04))\n      shr(0xe0, calldataload(0x00))\n      dup1\n      0x715018a6\n      gt\n      tag_12\n      jumpi\n      dup1\n      0x715018a6\n      eq\n      tag_7\n      jumpi\n      dup1\n      0x7a728217\n      eq\n      tag_8\n      jumpi\n      dup1\n      0x8da5cb5b\n      eq\n      tag_9\n      jumpi\n      dup1\n      0xbd5f85d7\n      eq\n      tag_10\n      jumpi\n      dup1\n      0xf2fde38b\n      eq\n      tag_11\n      jumpi\n      jump(tag_1)\n    tag_12:\n      dup1\n      0x05244e3f\n      eq\n      tag_2\n      jumpi\n      dup1\n      0x23550289\n      eq\n      tag_3\n      jumpi\n      dup1\n      0x25e16063\n      eq\n      tag_4\n      jumpi\n      dup1\n      0x3aeac4e1\n      eq\n      tag_5\n      jumpi\n      dup1\n      0x507351e2\n      eq\n      tag_6\n      jumpi\n    tag_1:\n      0x00\n      dup1\n      revert\n        /* \"TransferInBulk.sol\":13984:14368  function transferProToken(... */\n    tag_2:\n      callvalue\n      dup1\n      iszero\n      tag_13\n      jumpi\n      0x00\n      dup1\n      revert\n    tag_13:\n      pop\n      tag_14\n      0x04\n      dup1\n      calldatasize\n      sub\n      dup2\n      add\n      swap1\n      tag_15\n      swap2\n      swap1\n      tag_16\n      jump\t// in\n    tag_15:\n      tag_17\n      jump\t// in\n    tag_14:\n      stop\n        /* \"TransferInBulk.sol\":13260:13584  function transferProEth(... */\n    tag_3:\n      tag_18\n      0x04\n      dup1\n      calldatasize\n      sub\n      dup2\n      add\n      swap1\n      tag_19\n      swap2\n      swap1\n      tag_20\n      jump\t// in\n    tag_19:\n      tag_21\n      jump\t// in\n    tag_18:\n      stop\n        /* \"TransferInBulk.sol\":14681:14867  function withdrawEth(address to) public onlyOwner {... */\n    tag_4:\n      callvalue\n      dup1\n      iszero\n      tag_22\n      jumpi\n      0x00\n      dup1\n      revert\n    tag_22:\n      pop\n      tag_23\n      0x04\n      dup1\n      calldatasize\n      sub\n      dup2\n      add\n      swap1\n      tag_24\n      swap2\n      swap1\n      tag_25\n      jump\t// in\n    tag_24:\n      tag_26\n      jump\t// in\n    tag_23:\n      stop\n        /* \"TransferInBulk.sol\":14394:14658  function withdrawToken(address token_address, address to) public onlyOwner {... */\n    tag_5:\n      callvalue\n      dup1\n      iszero\n      tag_27\n      jumpi\n      0x00\n      dup1\n      revert\n    tag_27:\n      pop\n      tag_28\n      0x04\n      dup1\n      calldatasize\n      sub\n      dup2\n      add\n      swap1\n      tag_29\n      swap2\n      swap1\n      tag_30\n      jump\t// in\n    tag_29:\n      tag_31\n      jump\t// in\n    tag_28:\n      stop\n        /* \"TransferInBulk.sol\":12635:12720  function residueGas() public view returns (uint256) {... */\n    tag_6:\n      callvalue\n      dup1\n      iszero\n      tag_32\n      jumpi\n      0x00\n      dup1\n      revert\n    tag_32:\n      pop\n      tag_33\n      tag_34\n      jump\t// in\n    tag_33:\n      mload(0x40)\n      tag_35\n      swap2\n      swap1\n      tag_36\n      jump\t// in\n    tag_35:\n      mload(0x40)\n      dup1\n      swap2\n      sub\n      swap1\n      return\n        /* \"TransferInBulk.sol\":9468:9569  function renounceOwnership() public virtual onlyOwner {... */\n    tag_7:\n      callvalue\n      dup1\n      iszero\n      tag_37\n      jumpi\n      0x00\n      dup1\n      revert\n    tag_37:\n      pop\n      tag_38\n      tag_39\n      jump\t// in\n    tag_38:\n      stop\n        /* \"TransferInBulk.sol\":13616:13915  function transferToken(... */\n    tag_8:\n      callvalue\n      dup1\n      iszero\n      tag_40\n      jumpi\n      0x00\n      dup1\n      revert\n    tag_40:\n      pop\n      tag_41\n      0x04\n      dup1\n      calldatasize\n      sub\n      dup2\n      add\n      swap1\n      tag_42\n      swap2\n      swap1\n      tag_43\n      jump\t// in\n    tag_42:\n      tag_44\n      jump\t// in\n    tag_41:\n      stop\n        /* \"TransferInBulk.sol\":9241:9326  function owner() public view virtual returns (address) {... */\n    tag_9:\n      callvalue\n      dup1\n      iszero\n      tag_45\n      jumpi\n      0x00\n      dup1\n      revert\n    tag_45:\n      pop\n      tag_46\n      tag_47\n      jump\t// in\n    tag_46:\n      mload(0x40)\n      tag_48\n      swap2\n      swap1\n      tag_49\n      jump\t// in\n    tag_48:\n      mload(0x40)\n      dup1\n      swap2\n      sub\n      swap1\n      return\n        /* \"TransferInBulk.sol\":12749:13194  function transferEth(address payable[] memory to, uint256 amount)... */\n    tag_10:\n      tag_50\n      0x04\n      dup1\n      calldatasize\n      sub\n      dup2\n      add\n      swap1\n      tag_51\n      swap2\n      swap1\n      tag_52\n      jump\t// in\n    tag_51:\n      tag_53\n      jump\t// in\n    tag_50:\n      stop\n        /* \"TransferInBulk.sol\":9575:9807  function transferOwnership(address newOwner) public virtual onlyOwner {... */\n    tag_11:\n      callvalue\n      dup1\n      iszero\n      tag_54\n      jumpi\n      0x00\n      dup1\n      revert\n    tag_54:\n      pop\n      tag_55\n      0x04\n      dup1\n      calldatasize\n      sub\n      dup2\n      add\n      swap1\n      tag_56\n      swap2\n      swap1\n      tag_25\n      jump\t// in\n    tag_56:\n      tag_57\n      jump\t// in\n    tag_55:\n      stop\n        /* \"TransferInBulk.sol\":13984:14368  function transferProToken(... */\n    tag_17:\n        /* \"TransferInBulk.sol\":14119:14131  IERC20 token */\n      0x00\n        /* \"TransferInBulk.sol\":14141:14147  _token */\n      dup4\n        /* \"TransferInBulk.sol\":14119:14148  IERC20 token = IERC20(_token) */\n      swap1\n      pop\n        /* \"TransferInBulk.sol\":14179:14185  amount */\n      dup2\n        /* \"TransferInBulk.sol\":14179:14192  amount.length */\n      mload\n        /* \"TransferInBulk.sol\":14166:14168  to */\n      dup4\n        /* \"TransferInBulk.sol\":14166:14175  to.length */\n      mload\n        /* \"TransferInBulk.sol\":14166:14192  to.length == amount.length */\n      eq\n        /* \"TransferInBulk.sol\":14158:14218  require(to.length == amount.length, \"Transfer length error\") */\n      tag_59\n      jumpi\n      mload(0x40)\n      0x08c379a000000000000000000000000000000000000000000000000000000000\n      dup2\n      mstore\n      0x04\n      add\n      tag_60\n      swap1\n      tag_61\n      jump\t// in\n    tag_60:\n      mload(0x40)\n      dup1\n      swap2\n      sub\n      swap1\n      revert\n    tag_59:\n        /* \"TransferInBulk.sol\":14228:14242  uint256 length */\n      0x00\n        /* \"TransferInBulk.sol\":14245:14247  to */\n      dup4\n        /* \"TransferInBulk.sol\":14245:14254  to.length */\n      mload\n        /* \"TransferInBulk.sol\":14228:14254  uint256 length = to.length */\n      swap1\n      pop\n        /* \"TransferInBulk.sol\":14269:14278  uint256 i */\n      0x00\n        /* \"TransferInBulk.sol\":14264:14362  for (uint256 i = 0; i < length; i++) {... */\n    tag_62:\n        /* \"TransferInBulk.sol\":14288:14294  length */\n      dup2\n        /* \"TransferInBulk.sol\":14284:14285  i */\n      dup2\n        /* \"TransferInBulk.sol\":14284:14294  i < length */\n      lt\n        /* \"TransferInBulk.sol\":14264:14362  for (uint256 i = 0; i < length; i++) {... */\n      iszero\n      tag_63\n      jumpi\n        /* \"TransferInBulk.sol\":14315:14351  token.safeTransfer(to[i], amount[i]) */\n      tag_65\n        /* \"TransferInBulk.sol\":14334:14336  to */\n      dup6\n        /* \"TransferInBulk.sol\":14337:14338  i */\n      dup3\n        /* \"TransferInBulk.sol\":14334:14339  to[i] */\n      dup2\n      mload\n      dup2\n      lt\n      tag_66\n      jumpi\n      tag_67\n      tag_68\n      jump\t// in\n    tag_67:\n    tag_66:\n      0x20\n      mul\n      0x20\n      add\n      add\n      mload\n        /* \"TransferInBulk.sol\":14341:14347  amount */\n      dup6\n        /* \"TransferInBulk.sol\":14348:14349  i */\n      dup4\n        /* \"TransferInBulk.sol\":14341:14350  amount[i] */\n      dup2\n      mload\n      dup2\n      lt\n      tag_69\n      jumpi\n      tag_70\n      tag_68\n      jump\t// in\n    tag_70:\n    tag_69:\n      0x20\n      mul\n      0x20\n      add\n      add\n      mload\n        /* \"TransferInBulk.sol\":14315:14320  token */\n      dup6\n        /* \"TransferInBulk.sol\":14315:14333  token.safeTransfer */\n      0xffffffffffffffffffffffffffffffffffffffff\n      and\n      tag_71\n      swap1\n        /* \"TransferInBulk.sol\":14315:14351  token.safeTransfer(to[i], amount[i]) */\n      swap3\n      swap2\n      swap1\n      0xffffffff\n      and\n      jump\t// in\n    tag_65:\n        /* \"TransferInBulk.sol\":14296:14299  i++ */\n      dup1\n      dup1\n      tag_72\n      swap1\n      tag_73\n      jump\t// in\n    tag_72:\n      swap2\n      pop\n      pop\n        /* \"TransferInBulk.sol\":14264:14362  for (uint256 i = 0; i < length; i++) {... */\n      jump(tag_62)\n    tag_63:\n      pop\n        /* \"TransferInBulk.sol\":14109:14368  {... */\n      pop\n      pop\n        /* \"TransferInBulk.sol\":13984:14368  function transferProToken(... */\n      pop\n      pop\n      pop\n      jump\t// out\n        /* \"TransferInBulk.sol\":13260:13584  function transferProEth(... */\n    tag_21:\n        /* \"TransferInBulk.sol\":13385:13399  uint256 length */\n      0x00\n        /* \"TransferInBulk.sol\":13402:13404  to */\n      dup3\n        /* \"TransferInBulk.sol\":13402:13411  to.length */\n      mload\n        /* \"TransferInBulk.sol\":13385:13411  uint256 length = to.length */\n      swap1\n      pop\n        /* \"TransferInBulk.sol\":13442:13448  amount */\n      dup2\n        /* \"TransferInBulk.sol\":13442:13455  amount.length */\n      mload\n        /* \"TransferInBulk.sol\":13429:13431  to */\n      dup4\n        /* \"TransferInBulk.sol\":13429:13438  to.length */\n      mload\n        /* \"TransferInBulk.sol\":13429:13455  to.length == amount.length */\n      eq\n        /* \"TransferInBulk.sol\":13421:13481  require(to.length == amount.length, \"Transfer length error\") */\n      tag_75\n      jumpi\n      mload(0x40)\n      0x08c379a000000000000000000000000000000000000000000000000000000000\n      dup2\n      mstore\n      0x04\n      add\n      tag_76\n      swap1\n      tag_61\n      jump\t// in\n    tag_76:\n      mload(0x40)\n      dup1\n      swap2\n      sub\n      swap1\n      revert\n    tag_75:\n        /* \"TransferInBulk.sol\":13496:13505  uint256 i */\n      0x00\n        /* \"TransferInBulk.sol\":13491:13578  for (uint256 i = 0; i < length; i++) {... */\n    tag_77:\n        /* \"TransferInBulk.sol\":13515:13521  length */\n      dup2\n        /* \"TransferInBulk.sol\":13511:13512  i */\n      dup2\n        /* \"TransferInBulk.sol\":13511:13521  i < length */\n      lt\n        /* \"TransferInBulk.sol\":13491:13578  for (uint256 i = 0; i < length; i++) {... */\n      iszero\n      tag_78\n      jumpi\n        /* \"TransferInBulk.sol\":13542:13544  to */\n      dup4\n        /* \"TransferInBulk.sol\":13545:13546  i */\n      dup2\n        /* \"TransferInBulk.sol\":13542:13547  to[i] */\n      dup2\n      mload\n      dup2\n      lt\n      tag_80\n      jumpi\n      tag_81\n      tag_68\n      jump\t// in\n    tag_81:\n    tag_80:\n      0x20\n      mul\n      0x20\n      add\n      add\n      mload\n        /* \"TransferInBulk.sol\":13542:13556  to[i].transfer */\n      0xffffffffffffffffffffffffffffffffffffffff\n      and\n        /* \"TransferInBulk.sol\":13542:13567  to[i].transfer(amount[i]) */\n      0x08fc\n        /* \"TransferInBulk.sol\":13557:13563  amount */\n      dup5\n        /* \"TransferInBulk.sol\":13564:13565  i */\n      dup4\n        /* \"TransferInBulk.sol\":13557:13566  amount[i] */\n      dup2\n      mload\n      dup2\n      lt\n      tag_82\n      jumpi\n      tag_83\n      tag_68\n      jump\t// in\n    tag_83:\n    tag_82:\n      0x20\n      mul\n      0x20\n      add\n      add\n      mload\n        /* \"TransferInBulk.sol\":13542:13567  to[i].transfer(amount[i]) */\n      swap1\n      dup2\n      iszero\n      mul\n      swap1\n      mload(0x40)\n      0x00\n      mload(0x40)\n      dup1\n      dup4\n      sub\n      dup2\n      dup6\n      dup9\n      dup9\n      call\n      swap4\n      pop\n      pop\n      pop\n      pop\n      iszero\n      dup1\n      iszero\n      tag_85\n      jumpi\n      returndatasize\n      0x00\n      dup1\n      returndatacopy\n      revert(0x00, returndatasize)\n    tag_85:\n      pop\n        /* \"TransferInBulk.sol\":13523:13526  i++ */\n      dup1\n      dup1\n      tag_86\n      swap1\n      tag_73\n      jump\t// in\n    tag_86:\n      swap2\n      pop\n      pop\n        /* \"TransferInBulk.sol\":13491:13578  for (uint256 i = 0; i < length; i++) {... */\n      jump(tag_77)\n    tag_78:\n      pop\n        /* \"TransferInBulk.sol\":13375:13584  {... */\n      pop\n        /* \"TransferInBulk.sol\":13260:13584  function transferProEth(... */\n      pop\n      pop\n      jump\t// out\n        /* \"TransferInBulk.sol\":14681:14867  function withdrawEth(address to) public onlyOwner {... */\n    tag_26:\n        /* \"TransferInBulk.sol\":9204:9217  _checkOwner() */\n      tag_88\n        /* \"TransferInBulk.sol\":9204:9215  _checkOwner */\n      tag_89\n        /* \"TransferInBulk.sol\":9204:9217  _checkOwner() */\n      jump\t// in\n    tag_88:\n        /* \"TransferInBulk.sol\":14741:14756  uint256 balance */\n      0x00\n        /* \"TransferInBulk.sol\":14759:14780  address(this).balance */\n      selfbalance\n        /* \"TransferInBulk.sol\":14741:14780  uint256 balance = address(this).balance */\n      swap1\n      pop\n        /* \"TransferInBulk.sol\":14804:14805  0 */\n      0x00\n        /* \"TransferInBulk.sol\":14794:14801  balance */\n      dup2\n        /* \"TransferInBulk.sol\":14794:14805  balance > 0 */\n      gt\n        /* \"TransferInBulk.sol\":14790:14861  if (balance > 0) {... */\n      iszero\n      tag_91\n      jumpi\n        /* \"TransferInBulk.sol\":14829:14831  to */\n      dup2\n        /* \"TransferInBulk.sol\":14821:14841  payable(to).transfer */\n      0xffffffffffffffffffffffffffffffffffffffff\n      and\n        /* \"TransferInBulk.sol\":14821:14850  payable(to).transfer(balance) */\n      0x08fc\n        /* \"TransferInBulk.sol\":14842:14849  balance */\n      dup3\n        /* \"TransferInBulk.sol\":14821:14850  payable(to).transfer(balance) */\n      swap1\n      dup2\n      iszero\n      mul\n      swap1\n      mload(0x40)\n      0x00\n      mload(0x40)\n      dup1\n      dup4\n      sub\n      dup2\n      dup6\n      dup9\n      dup9\n      call\n      swap4\n      pop\n      pop\n      pop\n      pop\n      iszero\n      dup1\n      iszero\n      tag_93\n      jumpi\n      returndatasize\n      0x00\n      dup1\n      returndatacopy\n      revert(0x00, returndatasize)\n    tag_93:\n      pop\n        /* \"TransferInBulk.sol\":14790:14861  if (balance > 0) {... */\n    tag_91:\n        /* \"TransferInBulk.sol\":14731:14867  {... */\n      pop\n        /* \"TransferInBulk.sol\":14681:14867  function withdrawEth(address to) public onlyOwner {... */\n      pop\n      jump\t// out\n        /* \"TransferInBulk.sol\":14394:14658  function withdrawToken(address token_address, address to) public onlyOwner {... */\n    tag_31:\n        /* \"TransferInBulk.sol\":9204:9217  _checkOwner() */\n      tag_95\n        /* \"TransferInBulk.sol\":9204:9215  _checkOwner */\n      tag_89\n        /* \"TransferInBulk.sol\":9204:9217  _checkOwner() */\n      jump\t// in\n    tag_95:\n        /* \"TransferInBulk.sol\":14479:14491  IERC20 token */\n      0x00\n        /* \"TransferInBulk.sol\":14501:14514  token_address */\n      dup3\n        /* \"TransferInBulk.sol\":14479:14515  IERC20 token = IERC20(token_address) */\n      swap1\n      pop\n        /* \"TransferInBulk.sol\":14525:14540  uint256 balance */\n      0x00\n        /* \"TransferInBulk.sol\":14543:14548  token */\n      dup2\n        /* \"TransferInBulk.sol\":14543:14558  token.balanceOf */\n      0xffffffffffffffffffffffffffffffffffffffff\n      and\n      0x70a08231\n        /* \"TransferInBulk.sol\":14567:14571  this */\n      address\n        /* \"TransferInBulk.sol\":14543:14573  token.balanceOf(address(this)) */\n      mload(0x40)\n      dup3\n      0xffffffff\n      and\n      0xe0\n      shl\n      dup2\n      mstore\n      0x04\n      add\n      tag_97\n      swap2\n      swap1\n      tag_49\n      jump\t// in\n    tag_97:\n      0x20\n      mload(0x40)\n      dup1\n      dup4\n      sub\n      dup2\n      dup7\n      gas\n      staticcall\n      iszero\n      dup1\n      iszero\n      tag_99\n      jumpi\n      returndatasize\n      0x00\n      dup1\n      returndatacopy\n      revert(0x00, returndatasize)\n    tag_99:\n      pop\n      pop\n      pop\n      pop\n      mload(0x40)\n      returndatasize\n      not(0x1f)\n      0x1f\n      dup3\n      add\n      and\n      dup3\n      add\n      dup1\n      0x40\n      mstore\n      pop\n      dup2\n      add\n      swap1\n      tag_100\n      swap2\n      swap1\n      tag_101\n      jump\t// in\n    tag_100:\n        /* \"TransferInBulk.sol\":14525:14573  uint256 balance = token.balanceOf(address(this)) */\n      swap1\n      pop\n        /* \"TransferInBulk.sol\":14597:14598  0 */\n      0x00\n        /* \"TransferInBulk.sol\":14587:14594  balance */\n      dup2\n        /* \"TransferInBulk.sol\":14587:14598  balance > 0 */\n      gt\n        /* \"TransferInBulk.sol\":14583:14652  if (balance > 0) {... */\n      iszero\n      tag_102\n      jumpi\n        /* \"TransferInBulk.sol\":14614:14619  token */\n      dup2\n        /* \"TransferInBulk.sol\":14614:14628  token.transfer */\n      0xffffffffffffffffffffffffffffffffffffffff\n      and\n      0xa9059cbb\n        /* \"TransferInBulk.sol\":14629:14631  to */\n      dup5\n        /* \"TransferInBulk.sol\":14633:14640  balance */\n      dup4\n        /* \"TransferInBulk.sol\":14614:14641  token.transfer(to, balance) */\n      mload(0x40)\n      dup4\n      0xffffffff\n      and\n      0xe0\n      shl\n      dup2\n      mstore\n      0x04\n      add\n      tag_103\n      swap3\n      swap2\n      swap1\n      tag_104\n      jump\t// in\n    tag_103:\n      0x20\n      mload(0x40)\n      dup1\n      dup4\n      sub\n      dup2\n      0x00\n      dup8\n      gas\n      call\n      iszero\n      dup1\n      iszero\n      tag_106\n      jumpi\n      returndatasize\n      0x00\n      dup1\n      returndatacopy\n      revert(0x00, returndatasize)\n    tag_106:\n      pop\n      pop\n      pop\n      pop\n      mload(0x40)\n      returndatasize\n      not(0x1f)\n      0x1f\n      dup3\n      add\n      and\n      dup3\n      add\n      dup1\n      0x40\n      mstore\n      pop\n      dup2\n      add\n      swap1\n      tag_107\n      swap2\n      swap1\n      tag_108\n      jump\t// in\n    tag_107:\n      pop\n        /* \"TransferInBulk.sol\":14583:14652  if (balance > 0) {... */\n    tag_102:\n        /* \"TransferInBulk.sol\":14469:14658  {... */\n      pop\n      pop\n        /* \"TransferInBulk.sol\":14394:14658  function withdrawToken(address token_address, address to) public onlyOwner {... */\n      pop\n      pop\n      jump\t// out\n        /* \"TransferInBulk.sol\":12635:12720  function residueGas() public view returns (uint256) {... */\n    tag_34:\n        /* \"TransferInBulk.sol\":12678:12685  uint256 */\n      0x00\n        /* \"TransferInBulk.sol\":12704:12713  gasleft() */\n      gas\n        /* \"TransferInBulk.sol\":12697:12713  return gasleft() */\n      swap1\n      pop\n        /* \"TransferInBulk.sol\":12635:12720  function residueGas() public view returns (uint256) {... */\n      swap1\n      jump\t// out\n        /* \"TransferInBulk.sol\":9468:9569  function renounceOwnership() public virtual onlyOwner {... */\n    tag_39:\n        /* \"TransferInBulk.sol\":9204:9217  _checkOwner() */\n      tag_111\n        /* \"TransferInBulk.sol\":9204:9215  _checkOwner */\n      tag_89\n        /* \"TransferInBulk.sol\":9204:9217  _checkOwner() */\n      jump\t// in\n    tag_111:\n        /* \"TransferInBulk.sol\":9532:9562  _transferOwnership(address(0)) */\n      tag_113\n        /* \"TransferInBulk.sol\":9559:9560  0 */\n      0x00\n        /* \"TransferInBulk.sol\":9532:9550  _transferOwnership */\n      tag_114\n        /* \"TransferInBulk.sol\":9532:9562  _transferOwnership(address(0)) */\n      jump\t// in\n    tag_113:\n        /* \"TransferInBulk.sol\":9468:9569  function renounceOwnership() public virtual onlyOwner {... */\n      jump\t// out\n        /* \"TransferInBulk.sol\":13616:13915  function transferToken(... */\n    tag_44:\n        /* \"TransferInBulk.sol\":13739:13751  IERC20 token */\n      0x00\n        /* \"TransferInBulk.sol\":13761:13767  _token */\n      dup4\n        /* \"TransferInBulk.sol\":13739:13768  IERC20 token = IERC20(_token) */\n      swap1\n      pop\n        /* \"TransferInBulk.sol\":13778:13792  uint256 length */\n      0x00\n        /* \"TransferInBulk.sol\":13795:13797  to */\n      dup4\n        /* \"TransferInBulk.sol\":13795:13804  to.length */\n      mload\n        /* \"TransferInBulk.sol\":13778:13804  uint256 length = to.length */\n      swap1\n      pop\n        /* \"TransferInBulk.sol\":13819:13828  uint256 i */\n      0x00\n        /* \"TransferInBulk.sol\":13814:13909  for (uint256 i = 0; i < length; i++) {... */\n    tag_116:\n        /* \"TransferInBulk.sol\":13838:13844  length */\n      dup2\n        /* \"TransferInBulk.sol\":13834:13835  i */\n      dup2\n        /* \"TransferInBulk.sol\":13834:13844  i < length */\n      lt\n        /* \"TransferInBulk.sol\":13814:13909  for (uint256 i = 0; i < length; i++) {... */\n      iszero\n      tag_117\n      jumpi\n        /* \"TransferInBulk.sol\":13865:13898  token.safeTransfer(to[i], amount) */\n      tag_119\n        /* \"TransferInBulk.sol\":13884:13886  to */\n      dup6\n        /* \"TransferInBulk.sol\":13887:13888  i */\n      dup3\n        /* \"TransferInBulk.sol\":13884:13889  to[i] */\n      dup2\n      mload\n      dup2\n      lt\n      tag_120\n      jumpi\n      tag_121\n      tag_68\n      jump\t// in\n    tag_121:\n    tag_120:\n      0x20\n      mul\n      0x20\n      add\n      add\n      mload\n        /* \"TransferInBulk.sol\":13891:13897  amount */\n      dup6\n        /* \"TransferInBulk.sol\":13865:13870  token */\n      dup6\n        /* \"TransferInBulk.sol\":13865:13883  token.safeTransfer */\n      0xffffffffffffffffffffffffffffffffffffffff\n      and\n      tag_71\n      swap1\n        /* \"TransferInBulk.sol\":13865:13898  token.safeTransfer(to[i], amount) */\n      swap3\n      swap2\n      swap1\n      0xffffffff\n      and\n      jump\t// in\n    tag_119:\n        /* \"TransferInBulk.sol\":13846:13849  i++ */\n      dup1\n      dup1\n      tag_122\n      swap1\n      tag_73\n      jump\t// in\n    tag_122:\n      swap2\n      pop\n      pop\n        /* \"TransferInBulk.sol\":13814:13909  for (uint256 i = 0; i < length; i++) {... */\n      jump(tag_116)\n    tag_117:\n      pop\n        /* \"TransferInBulk.sol\":13729:13915  {... */\n      pop\n      pop\n        /* \"TransferInBulk.sol\":13616:13915  function transferToken(... */\n      pop\n      pop\n      pop\n      jump\t// out\n        /* \"TransferInBulk.sol\":9241:9326  function owner() public view virtual returns (address) {... */\n    tag_47:\n        /* \"TransferInBulk.sol\":9287:9294  address */\n      0x00\n        /* \"TransferInBulk.sol\":9313:9319  _owner */\n      dup1\n      0x00\n      swap1\n      sload\n      swap1\n      0x0100\n      exp\n      swap1\n      div\n      0xffffffffffffffffffffffffffffffffffffffff\n      and\n        /* \"TransferInBulk.sol\":9306:9319  return _owner */\n      swap1\n      pop\n        /* \"TransferInBulk.sol\":9241:9326  function owner() public view virtual returns (address) {... */\n      swap1\n      jump\t// out\n        /* \"TransferInBulk.sol\":12749:13194  function transferEth(address payable[] memory to, uint256 amount)... */\n    tag_53:\n        /* \"TransferInBulk.sol\":12860:12874  uint256 length */\n      0x00\n        /* \"TransferInBulk.sol\":12877:12879  to */\n      dup3\n        /* \"TransferInBulk.sol\":12877:12886  to.length */\n      mload\n        /* \"TransferInBulk.sol\":12860:12886  uint256 length = to.length */\n      swap1\n      pop\n        /* \"TransferInBulk.sol\":12930:12948  length.mul(amount) */\n      tag_125\n        /* \"TransferInBulk.sol\":12941:12947  amount */\n      dup3\n        /* \"TransferInBulk.sol\":12930:12936  length */\n      dup3\n        /* \"TransferInBulk.sol\":12930:12940  length.mul */\n      tag_126\n      swap1\n        /* \"TransferInBulk.sol\":12930:12948  length.mul(amount) */\n      swap2\n      swap1\n      0xffffffff\n      and\n      jump\t// in\n    tag_125:\n        /* \"TransferInBulk.sol\":12917:12926  msg.value */\n      callvalue\n        /* \"TransferInBulk.sol\":12917:12948  msg.value >= length.mul(amount) */\n      lt\n      iszero\n        /* \"TransferInBulk.sol\":12896:13021  require(... */\n      tag_127\n      jumpi\n      mload(0x40)\n      0x08c379a000000000000000000000000000000000000000000000000000000000\n      dup2\n      mstore\n      0x04\n      add\n      tag_128\n      swap1\n      tag_129\n      jump\t// in\n    tag_128:\n      mload(0x40)\n      dup1\n      swap2\n      sub\n      swap1\n      revert\n    tag_127:\n        /* \"TransferInBulk.sol\":13036:13045  uint256 i */\n      0x00\n        /* \"TransferInBulk.sol\":13031:13115  for (uint256 i = 0; i < length; i++) {... */\n    tag_130:\n        /* \"TransferInBulk.sol\":13055:13061  length */\n      dup2\n        /* \"TransferInBulk.sol\":13051:13052  i */\n      dup2\n        /* \"TransferInBulk.sol\":13051:13061  i < length */\n      lt\n        /* \"TransferInBulk.sol\":13031:13115  for (uint256 i = 0; i < length; i++) {... */\n      iszero\n      tag_131\n      jumpi\n        /* \"TransferInBulk.sol\":13082:13084  to */\n      dup4\n        /* \"TransferInBulk.sol\":13085:13086  i */\n      dup2\n        /* \"TransferInBulk.sol\":13082:13087  to[i] */\n      dup2\n      mload\n      dup2\n      lt\n      tag_133\n      jumpi\n      tag_134\n      tag_68\n      jump\t// in\n    tag_134:\n    tag_133:\n      0x20\n      mul\n      0x20\n      add\n      add\n      mload\n        /* \"TransferInBulk.sol\":13082:13096  to[i].transfer */\n      0xffffffffffffffffffffffffffffffffffffffff\n      and\n        /* \"TransferInBulk.sol\":13082:13104  to[i].transfer(amount) */\n      0x08fc\n        /* \"TransferInBulk.sol\":13097:13103  amount */\n      dup5\n        /* \"TransferInBulk.sol\":13082:13104  to[i].transfer(amount) */\n      swap1\n      dup2\n      iszero\n      mul\n      swap1\n      mload(0x40)\n      0x00\n      mload(0x40)\n      dup1\n      dup4\n      sub\n      dup2\n      dup6\n      dup9\n      dup9\n      call\n      swap4\n      pop\n      pop\n      pop\n      pop\n      iszero\n      dup1\n      iszero\n      tag_136\n      jumpi\n      returndatasize\n      0x00\n      dup1\n      returndatacopy\n      revert(0x00, returndatasize)\n    tag_136:\n      pop\n        /* \"TransferInBulk.sol\":13063:13066  i++ */\n      dup1\n      dup1\n      tag_137\n      swap1\n      tag_73\n      jump\t// in\n    tag_137:\n      swap2\n      pop\n      pop\n        /* \"TransferInBulk.sol\":13031:13115  for (uint256 i = 0; i < length; i++) {... */\n      jump(tag_130)\n    tag_131:\n      pop\n        /* \"TransferInBulk.sol\":13132:13142  msg.sender */\n      caller\n        /* \"TransferInBulk.sol\":13124:13152  payable(msg.sender).transfer */\n      0xffffffffffffffffffffffffffffffffffffffff\n      and\n        /* \"TransferInBulk.sol\":13124:13187  payable(msg.sender).transfer(msg.value.sub(length.mul(amount))) */\n      0x08fc\n        /* \"TransferInBulk.sol\":13153:13186  msg.value.sub(length.mul(amount)) */\n      tag_138\n        /* \"TransferInBulk.sol\":13167:13185  length.mul(amount) */\n      tag_139\n        /* \"TransferInBulk.sol\":13178:13184  amount */\n      dup6\n        /* \"TransferInBulk.sol\":13167:13173  length */\n      dup6\n        /* \"TransferInBulk.sol\":13167:13177  length.mul */\n      tag_126\n      swap1\n        /* \"TransferInBulk.sol\":13167:13185  length.mul(amount) */\n      swap2\n      swap1\n      0xffffffff\n      and\n      jump\t// in\n    tag_139:\n        /* \"TransferInBulk.sol\":13153:13162  msg.value */\n      callvalue\n        /* \"TransferInBulk.sol\":13153:13166  msg.value.sub */\n      tag_140\n      swap1\n        /* \"TransferInBulk.sol\":13153:13186  msg.value.sub(length.mul(amount)) */\n      swap2\n      swap1\n      0xffffffff\n      and\n      jump\t// in\n    tag_138:\n        /* \"TransferInBulk.sol\":13124:13187  payable(msg.sender).transfer(msg.value.sub(length.mul(amount))) */\n      swap1\n      dup2\n      iszero\n      mul\n      swap1\n      mload(0x40)\n      0x00\n      mload(0x40)\n      dup1\n      dup4\n      sub\n      dup2\n      dup6\n      dup9\n      dup9\n      call\n      swap4\n      pop\n      pop\n      pop\n      pop\n      iszero\n      dup1\n      iszero\n      tag_142\n      jumpi\n      returndatasize\n      0x00\n      dup1\n      returndatacopy\n      revert(0x00, returndatasize)\n    tag_142:\n      pop\n        /* \"TransferInBulk.sol\":12850:13194  {... */\n      pop\n        /* \"TransferInBulk.sol\":12749:13194  function transferEth(address payable[] memory to, uint256 amount)... */\n      pop\n      pop\n      jump\t// out\n        /* \"TransferInBulk.sol\":9575:9807  function transferOwnership(address newOwner) public virtual onlyOwner {... */\n    tag_57:\n        /* \"TransferInBulk.sol\":9204:9217  _checkOwner() */\n      tag_144\n        /* \"TransferInBulk.sol\":9204:9215  _checkOwner */\n      tag_89\n        /* \"TransferInBulk.sol\":9204:9217  _checkOwner() */\n      jump\t// in\n    tag_144:\n        /* \"TransferInBulk.sol\":9696:9697  0 */\n      0x00\n        /* \"TransferInBulk.sol\":9676:9698  newOwner != address(0) */\n      0xffffffffffffffffffffffffffffffffffffffff\n      and\n        /* \"TransferInBulk.sol\":9676:9684  newOwner */\n      dup2\n        /* \"TransferInBulk.sol\":9676:9698  newOwner != address(0) */\n      0xffffffffffffffffffffffffffffffffffffffff\n      and\n      sub\n        /* \"TransferInBulk.sol\":9655:9762  require(... */\n      tag_146\n      jumpi\n      mload(0x40)\n      0x08c379a000000000000000000000000000000000000000000000000000000000\n      dup2\n      mstore\n      0x04\n      add\n      tag_147\n      swap1\n      tag_148\n      jump\t// in\n    tag_147:\n      mload(0x40)\n      dup1\n      swap2\n      sub\n      swap1\n      revert\n    tag_146:\n        /* \"TransferInBulk.sol\":9772:9800  _transferOwnership(newOwner) */\n      tag_149\n        /* \"TransferInBulk.sol\":9791:9799  newOwner */\n      dup2\n        /* \"TransferInBulk.sol\":9772:9790  _transferOwnership */\n      tag_114\n        /* \"TransferInBulk.sol\":9772:9800  _transferOwnership(newOwner) */\n      jump\t// in\n    tag_149:\n        /* \"TransferInBulk.sol\":9575:9807  function transferOwnership(address newOwner) public virtual onlyOwner {... */\n      pop\n      jump\t// out\n        /* \"TransferInBulk.sol\":5733:5972  function safeTransfer(... */\n    tag_71:\n        /* \"TransferInBulk.sol\":5845:5965  _callOptionalReturn(... */\n      tag_151\n        /* \"TransferInBulk.sol\":5878:5883  token */\n      dup4\n        /* \"TransferInBulk.sol\":5920:5943  token.transfer.selector */\n      shl(0xe0, 0xa9059cbb)\n        /* \"TransferInBulk.sol\":5945:5947  to */\n      dup5\n        /* \"TransferInBulk.sol\":5949:5954  value */\n      dup5\n        /* \"TransferInBulk.sol\":5897:5955  abi.encodeWithSelector(token.transfer.selector, to, value) */\n      add(0x24, mload(0x40))\n      tag_152\n      swap3\n      swap2\n      swap1\n      tag_104\n      jump\t// in\n    tag_152:\n      mload(0x40)\n      0x20\n      dup2\n      dup4\n      sub\n      sub\n      dup2\n      mstore\n      swap1\n      0x40\n      mstore\n      swap1\n      not(0xffffffffffffffffffffffffffffffffffffffffffffffffffffffff)\n      and\n      0x20\n      dup3\n      add\n      dup1\n      mload\n      0xffffffffffffffffffffffffffffffffffffffffffffffffffffffff\n      dup4\n      dup2\n      dup4\n      and\n      or\n      dup4\n      mstore\n      pop\n      pop\n      pop\n      pop\n        /* \"TransferInBulk.sol\":5845:5864  _callOptionalReturn */\n      tag_153\n        /* \"TransferInBulk.sol\":5845:5965  _callOptionalReturn(... */\n      jump\t// in\n    tag_151:\n        /* \"TransferInBulk.sol\":5733:5972  function safeTransfer(... */\n      pop\n      pop\n      pop\n      jump\t// out\n        /* \"TransferInBulk.sol\":9332:9462  function _checkOwner() internal view virtual {... */\n    tag_89:\n        /* \"TransferInBulk.sol\":9406:9418  _msgSender() */\n      tag_155\n        /* \"TransferInBulk.sol\":9406:9416  _msgSender */\n      tag_156\n        /* \"TransferInBulk.sol\":9406:9418  _msgSender() */\n      jump\t// in\n    tag_155:\n        /* \"TransferInBulk.sol\":9395:9418  owner() == _msgSender() */\n      0xffffffffffffffffffffffffffffffffffffffff\n      and\n        /* \"TransferInBulk.sol\":9395:9402  owner() */\n      tag_157\n        /* \"TransferInBulk.sol\":9395:9400  owner */\n      tag_47\n        /* \"TransferInBulk.sol\":9395:9402  owner() */\n      jump\t// in\n    tag_157:\n        /* \"TransferInBulk.sol\":9395:9418  owner() == _msgSender() */\n      0xffffffffffffffffffffffffffffffffffffffff\n      and\n      eq\n        /* \"TransferInBulk.sol\":9387:9455  require(owner() == _msgSender(), \"Ownable: caller is not the owner\") */\n      tag_158\n      jumpi\n      mload(0x40)\n      0x08c379a000000000000000000000000000000000000000000000000000000000\n      dup2\n      mstore\n      0x04\n      add\n      tag_159\n      swap1\n      tag_160\n      jump\t// in\n    tag_159:\n      mload(0x40)\n      dup1\n      swap2\n      sub\n      swap1\n      revert\n    tag_158:\n        /* \"TransferInBulk.sol\":9332:9462  function _checkOwner() internal view virtual {... */\n      jump\t// out\n        /* \"TransferInBulk.sol\":9813:10000  function _transferOwnership(address newOwner) internal virtual {... */\n    tag_114:\n        /* \"TransferInBulk.sol\":9886:9902  address oldOwner */\n      0x00\n        /* \"TransferInBulk.sol\":9905:9911  _owner */\n      dup1\n      0x00\n      swap1\n      sload\n      swap1\n      0x0100\n      exp\n      swap1\n      div\n      0xffffffffffffffffffffffffffffffffffffffff\n      and\n        /* \"TransferInBulk.sol\":9886:9911  address oldOwner = _owner */\n      swap1\n      pop\n        /* \"TransferInBulk.sol\":9930:9938  newOwner */\n      dup2\n        /* \"TransferInBulk.sol\":9921:9927  _owner */\n      0x00\n      dup1\n        /* \"TransferInBulk.sol\":9921:9938  _owner = newOwner */\n      0x0100\n      exp\n      dup2\n      sload\n      dup2\n      0xffffffffffffffffffffffffffffffffffffffff\n      mul\n      not\n      and\n      swap1\n      dup4\n      0xffffffffffffffffffffffffffffffffffffffff\n      and\n      mul\n      or\n      swap1\n      sstore\n      pop\n        /* \"TransferInBulk.sol\":9984:9992  newOwner */\n      dup2\n        /* \"TransferInBulk.sol\":9953:9993  OwnershipTransferred(oldOwner, newOwner) */\n      0xffffffffffffffffffffffffffffffffffffffff\n      and\n        /* \"TransferInBulk.sol\":9974:9982  oldOwner */\n      dup2\n        /* \"TransferInBulk.sol\":9953:9993  OwnershipTransferred(oldOwner, newOwner) */\n      0xffffffffffffffffffffffffffffffffffffffff\n      and\n      0x8be0079c531659141344cd1fd0a4f28419497f9722a3daafe3b4186f6b6457e0\n      mload(0x40)\n      mload(0x40)\n      dup1\n      swap2\n      sub\n      swap1\n      log3\n        /* \"TransferInBulk.sol\":9876:10000  {... */\n      pop\n        /* \"TransferInBulk.sol\":9813:10000  function _transferOwnership(address newOwner) internal virtual {... */\n      pop\n      jump\t// out\n        /* \"TransferInBulk.sol\":11449:11545  function mul(uint256 a, uint256 b) internal pure returns (uint256) {... */\n    tag_126:\n        /* \"TransferInBulk.sol\":11507:11514  uint256 */\n      0x00\n        /* \"TransferInBulk.sol\":11537:11538  b */\n      dup2\n        /* \"TransferInBulk.sol\":11533:11534  a */\n      dup4\n        /* \"TransferInBulk.sol\":11533:11538  a * b */\n      tag_163\n      swap2\n      swap1\n      tag_164\n      jump\t// in\n    tag_163:\n        /* \"TransferInBulk.sol\":11526:11538  return a * b */\n      swap1\n      pop\n        /* \"TransferInBulk.sol\":11449:11545  function mul(uint256 a, uint256 b) internal pure returns (uint256) {... */\n      swap3\n      swap2\n      pop\n      pop\n      jump\t// out\n        /* \"TransferInBulk.sol\":11347:11443  function sub(uint256 a, uint256 b) internal pure returns (uint256) {... */\n    tag_140:\n        /* \"TransferInBulk.sol\":11405:11412  uint256 */\n      0x00\n        /* \"TransferInBulk.sol\":11435:11436  b */\n      dup2\n        /* \"TransferInBulk.sol\":11431:11432  a */\n      dup4\n        /* \"TransferInBulk.sol\":11431:11436  a - b */\n      tag_166\n      swap2\n      swap1\n      tag_167\n      jump\t// in\n    tag_166:\n        /* \"TransferInBulk.sol\":11424:11436  return a - b */\n      swap1\n      pop\n        /* \"TransferInBulk.sol\":11347:11443  function sub(uint256 a, uint256 b) internal pure returns (uint256) {... */\n      swap3\n      swap2\n      pop\n      pop\n      jump\t// out\n        /* \"TransferInBulk.sol\":8271:8679  function _callOptionalReturn(IERC20 token, bytes memory data) private {... */\n    tag_153:\n        /* \"TransferInBulk.sol\":8351:8374  bytes memory returndata */\n      0x00\n        /* \"TransferInBulk.sol\":8377:8480  address(token).functionCall(... */\n      tag_169\n        /* \"TransferInBulk.sol\":8418:8422  data */\n      dup3\n        /* \"TransferInBulk.sol\":8377:8480  address(token).functionCall(... */\n      mload(0x40)\n      dup1\n      0x40\n      add\n      0x40\n      mstore\n      dup1\n      0x20\n      dup2\n      mstore\n      0x20\n      add\n      0x5361666545524332303a206c6f772d6c6576656c2063616c6c206661696c6564\n      dup2\n      mstore\n      pop\n        /* \"TransferInBulk.sol\":8385:8390  token */\n      dup6\n        /* \"TransferInBulk.sol\":8377:8404  address(token).functionCall */\n      0xffffffffffffffffffffffffffffffffffffffff\n      and\n      tag_170\n      swap1\n        /* \"TransferInBulk.sol\":8377:8480  address(token).functionCall(... */\n      swap3\n      swap2\n      swap1\n      0xffffffff\n      and\n      jump\t// in\n    tag_169:\n        /* \"TransferInBulk.sol\":8351:8480  bytes memory returndata = address(token).functionCall(... */\n      swap1\n      pop\n        /* \"TransferInBulk.sol\":8514:8515  0 */\n      0x00\n        /* \"TransferInBulk.sol\":8494:8504  returndata */\n      dup2\n        /* \"TransferInBulk.sol\":8494:8511  returndata.length */\n      mload\n        /* \"TransferInBulk.sol\":8494:8515  returndata.length > 0 */\n      gt\n        /* \"TransferInBulk.sol\":8490:8673  if (returndata.length > 0) {... */\n      iszero\n      tag_171\n      jumpi\n        /* \"TransferInBulk.sol\":8567:8577  returndata */\n      dup1\n        /* \"TransferInBulk.sol\":8556:8586  abi.decode(returndata, (bool)) */\n      dup1\n      0x20\n      add\n      swap1\n      mload\n      dup2\n      add\n      swap1\n      tag_172\n      swap2\n      swap1\n      tag_108\n      jump\t// in\n    tag_172:\n        /* \"TransferInBulk.sol\":8531:8662  require(... */\n      tag_173\n      jumpi\n      mload(0x40)\n      0x08c379a000000000000000000000000000000000000000000000000000000000\n      dup2\n      mstore\n      0x04\n      add\n      tag_174\n      swap1\n      tag_175\n      jump\t// in\n    tag_174:\n      mload(0x40)\n      dup1\n      swap2\n      sub\n      swap1\n      revert\n    tag_173:\n        /* \"TransferInBulk.sol\":8490:8673  if (returndata.length > 0) {... */\n    tag_171:\n        /* \"TransferInBulk.sol\":8341:8679  {... */\n      pop\n        /* \"TransferInBulk.sol\":8271:8679  function _callOptionalReturn(IERC20 token, bytes memory data) private {... */\n      pop\n      pop\n      jump\t// out\n        /* \"TransferInBulk.sol\":8715:8811  function _msgSender() internal view virtual returns (address) {... */\n    tag_156:\n        /* \"TransferInBulk.sol\":8768:8775  address */\n      0x00\n        /* \"TransferInBulk.sol\":8794:8804  msg.sender */\n      caller\n        /* \"TransferInBulk.sol\":8787:8804  return msg.sender */\n      swap1\n      pop\n        /* \"TransferInBulk.sol\":8715:8811  function _msgSender() internal view virtual returns (address) {... */\n      swap1\n      jump\t// out\n        /* \"TransferInBulk.sol\":1566:1789  function functionCall(... */\n    tag_170:\n        /* \"TransferInBulk.sol\":1699:1711  bytes memory */\n      0x60\n        /* \"TransferInBulk.sol\":1730:1782  functionCallWithValue(target, data, 0, errorMessage) */\n      tag_178\n        /* \"TransferInBulk.sol\":1752:1758  target */\n      dup5\n        /* \"TransferInBulk.sol\":1760:1764  data */\n      dup5\n        /* \"TransferInBulk.sol\":1766:1767  0 */\n      0x00\n        /* \"TransferInBulk.sol\":1769:1781  errorMessage */\n      dup6\n        /* \"TransferInBulk.sol\":1730:1751  functionCallWithValue */\n      tag_179\n        /* \"TransferInBulk.sol\":1730:1782  functionCallWithValue(target, data, 0, errorMessage) */\n      jump\t// in\n    tag_178:\n        /* \"TransferInBulk.sol\":1723:1782  return functionCallWithValue(target, data, 0, errorMessage) */\n      swap1\n      pop\n        /* \"TransferInBulk.sol\":1566:1789  function functionCall(... */\n      swap4\n      swap3\n      pop\n      pop\n      pop\n      jump\t// out\n        /* \"TransferInBulk.sol\":2145:2737  function functionCallWithValue(... */\n    tag_179:\n        /* \"TransferInBulk.sol\":2310:2322  bytes memory */\n      0x60\n        /* \"TransferInBulk.sol\":2380:2385  value */\n      dup3\n        /* \"TransferInBulk.sol\":2355:2376  address(this).balance */\n      selfbalance\n        /* \"TransferInBulk.sol\":2355:2385  address(this).balance >= value */\n      lt\n      iszero\n        /* \"TransferInBulk.sol\":2334:2449  require(... */\n      tag_181\n      jumpi\n      mload(0x40)\n      0x08c379a000000000000000000000000000000000000000000000000000000000\n      dup2\n      mstore\n      0x04\n      add\n      tag_182\n      swap1\n      tag_183\n      jump\t// in\n    tag_182:\n      mload(0x40)\n      dup1\n      swap2\n      sub\n      swap1\n      revert\n    tag_181:\n        /* \"TransferInBulk.sol\":2460:2472  bool success */\n      0x00\n        /* \"TransferInBulk.sol\":2474:2497  bytes memory returndata */\n      dup1\n        /* \"TransferInBulk.sol\":2501:2507  target */\n      dup7\n        /* \"TransferInBulk.sol\":2501:2512  target.call */\n      0xffffffffffffffffffffffffffffffffffffffff\n      and\n        /* \"TransferInBulk.sol\":2520:2525  value */\n      dup6\n        /* \"TransferInBulk.sol\":2540:2544  data */\n      dup8\n        /* \"TransferInBulk.sol\":2501:2554  target.call{value: value}(... */\n      mload(0x40)\n      tag_184\n      swap2\n      swap1\n      tag_185\n      jump\t// in\n    tag_184:\n      0x00\n      mload(0x40)\n      dup1\n      dup4\n      sub\n      dup2\n      dup6\n      dup8\n      gas\n      call\n      swap3\n      pop\n      pop\n      pop\n      returndatasize\n      dup1\n      0x00\n      dup2\n      eq\n      tag_188\n      jumpi\n      mload(0x40)\n      swap2\n      pop\n      and(add(returndatasize, 0x3f), not(0x1f))\n      dup3\n      add\n      0x40\n      mstore\n      returndatasize\n      dup3\n      mstore\n      returndatasize\n      0x00\n      0x20\n      dup5\n      add\n      returndatacopy\n      jump(tag_187)\n    tag_188:\n      0x60\n      swap2\n      pop\n    tag_187:\n      pop\n        /* \"TransferInBulk.sol\":2459:2554  (bool success, bytes memory returndata) = target.call{value: value}(... */\n      swap2\n      pop\n      swap2\n      pop\n        /* \"TransferInBulk.sol\":2583:2730  verifyCallResultFromTarget(... */\n      tag_189\n        /* \"TransferInBulk.sol\":2627:2633  target */\n      dup8\n        /* \"TransferInBulk.sol\":2651:2658  success */\n      dup4\n        /* \"TransferInBulk.sol\":2676:2686  returndata */\n      dup4\n        /* \"TransferInBulk.sol\":2704:2716  errorMessage */\n      dup8\n        /* \"TransferInBulk.sol\":2583:2609  verifyCallResultFromTarget */\n      tag_190\n        /* \"TransferInBulk.sol\":2583:2730  verifyCallResultFromTarget(... */\n      jump\t// in\n    tag_189:\n        /* \"TransferInBulk.sol\":2564:2730  return... */\n      swap3\n      pop\n      pop\n      pop\n        /* \"TransferInBulk.sol\":2145:2737  function functionCallWithValue(... */\n      swap5\n      swap4\n      pop\n      pop\n      pop\n      pop\n      jump\t// out\n        /* \"TransferInBulk.sol\":4189:4652  function verifyCallResultFromTarget(... */\n    tag_190:\n        /* \"TransferInBulk.sol\":4369:4381  bytes memory */\n      0x60\n        /* \"TransferInBulk.sol\":4397:4404  success */\n      dup4\n        /* \"TransferInBulk.sol\":4393:4646  if (success) {... */\n      iszero\n      tag_192\n      jumpi\n        /* \"TransferInBulk.sol\":4445:4446  0 */\n      0x00\n        /* \"TransferInBulk.sol\":4424:4434  returndata */\n      dup4\n        /* \"TransferInBulk.sol\":4424:4441  returndata.length */\n      mload\n        /* \"TransferInBulk.sol\":4424:4446  returndata.length == 0 */\n      sub\n        /* \"TransferInBulk.sol\":4420:4541  if (returndata.length == 0) {... */\n      tag_193\n      jumpi\n        /* \"TransferInBulk.sol\":4474:4492  isContract(target) */\n      tag_194\n        /* \"TransferInBulk.sol\":4485:4491  target */\n      dup6\n        /* \"TransferInBulk.sol\":4474:4484  isContract */\n      tag_195\n        /* \"TransferInBulk.sol\":4474:4492  isContract(target) */\n      jump\t// in\n    tag_194:\n        /* \"TransferInBulk.sol\":4466:4526  require(isContract(target), \"Address: call to non-contract\") */\n      tag_196\n      jumpi\n      mload(0x40)\n      0x08c379a000000000000000000000000000000000000000000000000000000000\n      dup2\n      mstore\n      0x04\n      add\n      tag_197\n      swap1\n      tag_198\n      jump\t// in\n    tag_197:\n      mload(0x40)\n      dup1\n      swap2\n      sub\n      swap1\n      revert\n    tag_196:\n        /* \"TransferInBulk.sol\":4420:4541  if (returndata.length == 0) {... */\n    tag_193:\n        /* \"TransferInBulk.sol\":4561:4571  returndata */\n      dup3\n        /* \"TransferInBulk.sol\":4554:4571  return returndata */\n      swap1\n      pop\n      jump(tag_191)\n        /* \"TransferInBulk.sol\":4393:4646  if (success) {... */\n    tag_192:\n        /* \"TransferInBulk.sol\":4602:4635  _revert(returndata, errorMessage) */\n      tag_200\n        /* \"TransferInBulk.sol\":4610:4620  returndata */\n      dup4\n        /* \"TransferInBulk.sol\":4622:4634  errorMessage */\n      dup4\n        /* \"TransferInBulk.sol\":4602:4609  _revert */\n      tag_201\n        /* \"TransferInBulk.sol\":4602:4635  _revert(returndata, errorMessage) */\n      jump\t// in\n    tag_200:\n        /* \"TransferInBulk.sol\":4189:4652  function verifyCallResultFromTarget(... */\n    tag_191:\n      swap5\n      swap4\n      pop\n      pop\n      pop\n      pop\n      jump\t// out\n        /* \"TransferInBulk.sol\":760:873  function isContract(address account) internal view returns (bool) {... */\n    tag_195:\n        /* \"TransferInBulk.sol\":820:824  bool */\n      0x00\n        /* \"TransferInBulk.sol\":865:866  0 */\n      dup1\n        /* \"TransferInBulk.sol\":843:850  account */\n      dup3\n        /* \"TransferInBulk.sol\":843:862  account.code.length */\n      0xffffffffffffffffffffffffffffffffffffffff\n      and\n      extcodesize\n        /* \"TransferInBulk.sol\":843:866  account.code.length > 0 */\n      gt\n        /* \"TransferInBulk.sol\":836:866  return account.code.length > 0 */\n      swap1\n      pop\n        /* \"TransferInBulk.sol\":760:873  function isContract(address account) internal view returns (bool) {... */\n      swap2\n      swap1\n      pop\n      jump\t// out\n        /* \"TransferInBulk.sol\":4959:5322  function _revert(bytes memory returndata, string memory errorMessage)... */\n    tag_201:\n        /* \"TransferInBulk.sol\":5096:5097  0 */\n      0x00\n        /* \"TransferInBulk.sol\":5076:5086  returndata */\n      dup3\n        /* \"TransferInBulk.sol\":5076:5093  returndata.length */\n      mload\n        /* \"TransferInBulk.sol\":5076:5097  returndata.length > 0 */\n      gt\n        /* \"TransferInBulk.sol\":5072:5316  if (returndata.length > 0) {... */\n      iszero\n      tag_204\n      jumpi\n        /* \"TransferInBulk.sol\":5169:5179  returndata */\n      dup2\n        /* \"TransferInBulk.sol\":5163:5180  mload(returndata) */\n      mload\n        /* \"TransferInBulk.sol\":5225:5240  returndata_size */\n      dup1\n        /* \"TransferInBulk.sol\":5212:5222  returndata */\n      dup4\n        /* \"TransferInBulk.sol\":5208:5210  32 */\n      0x20\n        /* \"TransferInBulk.sol\":5204:5223  add(32, returndata) */\n      add\n        /* \"TransferInBulk.sol\":5197:5241  revert(add(32, returndata), returndata_size) */\n      revert\n        /* \"TransferInBulk.sol\":5072:5316  if (returndata.length > 0) {... */\n    tag_204:\n        /* \"TransferInBulk.sol\":5292:5304  errorMessage */\n      dup1\n        /* \"TransferInBulk.sol\":5285:5305  revert(errorMessage) */\n      mload(0x40)\n      0x08c379a000000000000000000000000000000000000000000000000000000000\n      dup2\n      mstore\n      0x04\n      add\n      tag_206\n      swap2\n      swap1\n      tag_207\n      jump\t// in\n    tag_206:\n      mload(0x40)\n      dup1\n      swap2\n      sub\n      swap1\n      revert\n        /* \"#utility.yul\":7:82   */\n    tag_208:\n        /* \"#utility.yul\":40:46   */\n      0x00\n        /* \"#utility.yul\":73:75   */\n      0x40\n        /* \"#utility.yul\":67:76   */\n      mload\n        /* \"#utility.yul\":57:76   */\n      swap1\n      pop\n        /* \"#utility.yul\":7:82   */\n      swap1\n      jump\t// out\n        /* \"#utility.yul\":88:205   */\n    tag_209:\n        /* \"#utility.yul\":197:198   */\n      0x00\n        /* \"#utility.yul\":194:195   */\n      dup1\n        /* \"#utility.yul\":187:199   */\n      revert\n        /* \"#utility.yul\":211:328   */\n    tag_210:\n        /* \"#utility.yul\":320:321   */\n      0x00\n        /* \"#utility.yul\":317:318   */\n      dup1\n        /* \"#utility.yul\":310:322   */\n      revert\n        /* \"#utility.yul\":334:460   */\n    tag_211:\n        /* \"#utility.yul\":371:378   */\n      0x00\n        /* \"#utility.yul\":411:453   */\n      0xffffffffffffffffffffffffffffffffffffffff\n        /* \"#utility.yul\":404:409   */\n      dup3\n        /* \"#utility.yul\":400:454   */\n      and\n        /* \"#utility.yul\":389:454   */\n      swap1\n      pop\n        /* \"#utility.yul\":334:460   */\n      swap2\n      swap1\n      pop\n      jump\t// out\n        /* \"#utility.yul\":466:562   */\n    tag_212:\n        /* \"#utility.yul\":503:510   */\n      0x00\n        /* \"#utility.yul\":532:556   */\n      tag_270\n        /* \"#utility.yul\":550:555   */\n      dup3\n        /* \"#utility.yul\":532:556   */\n      tag_211\n      jump\t// in\n    tag_270:\n        /* \"#utility.yul\":521:556   */\n      swap1\n      pop\n        /* \"#utility.yul\":466:562   */\n      swap2\n      swap1\n      pop\n      jump\t// out\n        /* \"#utility.yul\":568:690   */\n    tag_213:\n        /* \"#utility.yul\":641:665   */\n      tag_272\n        /* \"#utility.yul\":659:664   */\n      dup2\n        /* \"#utility.yul\":641:665   */\n      tag_212\n      jump\t// in\n    tag_272:\n        /* \"#utility.yul\":634:639   */\n      dup2\n        /* \"#utility.yul\":631:666   */\n      eq\n        /* \"#utility.yul\":621:684   */\n      tag_273\n      jumpi\n        /* \"#utility.yul\":680:681   */\n      0x00\n        /* \"#utility.yul\":677:678   */\n      dup1\n        /* \"#utility.yul\":670:682   */\n      revert\n        /* \"#utility.yul\":621:684   */\n    tag_273:\n        /* \"#utility.yul\":568:690   */\n      pop\n      jump\t// out\n        /* \"#utility.yul\":696:835   */\n    tag_214:\n        /* \"#utility.yul\":742:747   */\n      0x00\n        /* \"#utility.yul\":780:786   */\n      dup2\n        /* \"#utility.yul\":767:787   */\n      calldataload\n        /* \"#utility.yul\":758:787   */\n      swap1\n      pop\n        /* \"#utility.yul\":796:829   */\n      tag_275\n        /* \"#utility.yul\":823:828   */\n      dup2\n        /* \"#utility.yul\":796:829   */\n      tag_213\n      jump\t// in\n    tag_275:\n        /* \"#utility.yul\":696:835   */\n      swap3\n      swap2\n      pop\n      pop\n      jump\t// out\n        /* \"#utility.yul\":841:958   */\n    tag_215:\n        /* \"#utility.yul\":950:951   */\n      0x00\n        /* \"#utility.yul\":947:948   */\n      dup1\n        /* \"#utility.yul\":940:952   */\n      revert\n        /* \"#utility.yul\":964:1066   */\n    tag_216:\n        /* \"#utility.yul\":1005:1011   */\n      0x00\n        /* \"#utility.yul\":1056:1058   */\n      0x1f\n        /* \"#utility.yul\":1052:1059   */\n      not\n        /* \"#utility.yul\":1047:1049   */\n      0x1f\n        /* \"#utility.yul\":1040:1045   */\n      dup4\n        /* \"#utility.yul\":1036:1050   */\n      add\n        /* \"#utility.yul\":1032:1060   */\n      and\n        /* \"#utility.yul\":1022:1060   */\n      swap1\n      pop\n        /* \"#utility.yul\":964:1066   */\n      swap2\n      swap1\n      pop\n      jump\t// out\n        /* \"#utility.yul\":1072:1252   */\n    tag_217:\n        /* \"#utility.yul\":1120:1197   */\n      0x4e487b7100000000000000000000000000000000000000000000000000000000\n        /* \"#utility.yul\":1117:1118   */\n      0x00\n        /* \"#utility.yul\":1110:1198   */\n      mstore\n        /* \"#utility.yul\":1217:1221   */\n      0x41\n        /* \"#utility.yul\":1214:1215   */\n      0x04\n        /* \"#utility.yul\":1207:1222   */\n      mstore\n        /* \"#utility.yul\":1241:1245   */\n      0x24\n        /* \"#utility.yul\":1238:1239   */\n      0x00\n        /* \"#utility.yul\":1231:1246   */\n      revert\n        /* \"#utility.yul\":1258:1539   */\n    tag_218:\n        /* \"#utility.yul\":1341:1368   */\n      tag_280\n        /* \"#utility.yul\":1363:1367   */\n      dup3\n        /* \"#utility.yul\":1341:1368   */\n      tag_216\n      jump\t// in\n    tag_280:\n        /* \"#utility.yul\":1333:1339   */\n      dup2\n        /* \"#utility.yul\":1329:1369   */\n      add\n        /* \"#utility.yul\":1471:1477   */\n      dup2\n        /* \"#utility.yul\":1459:1469   */\n      dup2\n        /* \"#utility.yul\":1456:1478   */\n      lt\n        /* \"#utility.yul\":1435:1453   */\n      0xffffffffffffffff\n        /* \"#utility.yul\":1423:1433   */\n      dup3\n        /* \"#utility.yul\":1420:1454   */\n      gt\n        /* \"#utility.yul\":1417:1479   */\n      or\n        /* \"#utility.yul\":1414:1502   */\n      iszero\n      tag_281\n      jumpi\n        /* \"#utility.yul\":1482:1500   */\n      tag_282\n      tag_217\n      jump\t// in\n    tag_282:\n        /* \"#utility.yul\":1414:1502   */\n    tag_281:\n        /* \"#utility.yul\":1522:1532   */\n      dup1\n        /* \"#utility.yul\":1518:1520   */\n      0x40\n        /* \"#utility.yul\":1511:1533   */\n      mstore\n        /* \"#utility.yul\":1301:1539   */\n      pop\n        /* \"#utility.yul\":1258:1539   */\n      pop\n      pop\n      jump\t// out\n        /* \"#utility.yul\":1545:1674   */\n    tag_219:\n        /* \"#utility.yul\":1579:1585   */\n      0x00\n        /* \"#utility.yul\":1606:1626   */\n      tag_284\n      tag_208\n      jump\t// in\n    tag_284:\n        /* \"#utility.yul\":1596:1626   */\n      swap1\n      pop\n        /* \"#utility.yul\":1635:1668   */\n      tag_285\n        /* \"#utility.yul\":1663:1667   */\n      dup3\n        /* \"#utility.yul\":1655:1661   */\n      dup3\n        /* \"#utility.yul\":1635:1668   */\n      tag_218\n      jump\t// in\n    tag_285:\n        /* \"#utility.yul\":1545:1674   */\n      swap2\n      swap1\n      pop\n      jump\t// out\n        /* \"#utility.yul\":1680:1991   */\n    tag_220:\n        /* \"#utility.yul\":1757:1761   */\n      0x00\n        /* \"#utility.yul\":1847:1865   */\n      0xffffffffffffffff\n        /* \"#utility.yul\":1839:1845   */\n      dup3\n        /* \"#utility.yul\":1836:1866   */\n      gt\n        /* \"#utility.yul\":1833:1889   */\n      iszero\n      tag_287\n      jumpi\n        /* \"#utility.yul\":1869:1887   */\n      tag_288\n      tag_217\n      jump\t// in\n    tag_288:\n        /* \"#utility.yul\":1833:1889   */\n    tag_287:\n        /* \"#utility.yul\":1919:1923   */\n      0x20\n        /* \"#utility.yul\":1911:1917   */\n      dup3\n        /* \"#utility.yul\":1907:1924   */\n      mul\n        /* \"#utility.yul\":1899:1924   */\n      swap1\n      pop\n        /* \"#utility.yul\":1979:1983   */\n      0x20\n        /* \"#utility.yul\":1973:1977   */\n      dup2\n        /* \"#utility.yul\":1969:1984   */\n      add\n        /* \"#utility.yul\":1961:1984   */\n      swap1\n      pop\n        /* \"#utility.yul\":1680:1991   */\n      swap2\n      swap1\n      pop\n      jump\t// out\n        /* \"#utility.yul\":1997:2114   */\n    tag_221:\n        /* \"#utility.yul\":2106:2107   */\n      0x00\n        /* \"#utility.yul\":2103:2104   */\n      dup1\n        /* \"#utility.yul\":2096:2108   */\n      revert\n        /* \"#utility.yul\":2137:2847   */\n    tag_222:\n        /* \"#utility.yul\":2233:2238   */\n      0x00\n        /* \"#utility.yul\":2258:2339   */\n      tag_291\n        /* \"#utility.yul\":2274:2338   */\n      tag_292\n        /* \"#utility.yul\":2331:2337   */\n      dup5\n        /* \"#utility.yul\":2274:2338   */\n      tag_220\n      jump\t// in\n    tag_292:\n        /* \"#utility.yul\":2258:2339   */\n      tag_219\n      jump\t// in\n    tag_291:\n        /* \"#utility.yul\":2249:2339   */\n      swap1\n      pop\n        /* \"#utility.yul\":2359:2364   */\n      dup1\n        /* \"#utility.yul\":2388:2394   */\n      dup4\n        /* \"#utility.yul\":2381:2386   */\n      dup3\n        /* \"#utility.yul\":2374:2395   */\n      mstore\n        /* \"#utility.yul\":2422:2426   */\n      0x20\n        /* \"#utility.yul\":2415:2420   */\n      dup3\n        /* \"#utility.yul\":2411:2427   */\n      add\n        /* \"#utility.yul\":2404:2427   */\n      swap1\n      pop\n        /* \"#utility.yul\":2475:2479   */\n      0x20\n        /* \"#utility.yul\":2467:2473   */\n      dup5\n        /* \"#utility.yul\":2463:2480   */\n      mul\n        /* \"#utility.yul\":2455:2461   */\n      dup4\n        /* \"#utility.yul\":2451:2481   */\n      add\n        /* \"#utility.yul\":2504:2507   */\n      dup6\n        /* \"#utility.yul\":2496:2502   */\n      dup2\n        /* \"#utility.yul\":2493:2508   */\n      gt\n        /* \"#utility.yul\":2490:2612   */\n      iszero\n      tag_293\n      jumpi\n        /* \"#utility.yul\":2523:2602   */\n      tag_294\n      tag_221\n      jump\t// in\n    tag_294:\n        /* \"#utility.yul\":2490:2612   */\n    tag_293:\n        /* \"#utility.yul\":2638:2644   */\n      dup4\n        /* \"#utility.yul\":2621:2841   */\n    tag_295:\n        /* \"#utility.yul\":2655:2661   */\n      dup2\n        /* \"#utility.yul\":2650:2653   */\n      dup2\n        /* \"#utility.yul\":2647:2662   */\n      lt\n        /* \"#utility.yul\":2621:2841   */\n      iszero\n      tag_297\n      jumpi\n        /* \"#utility.yul\":2730:2733   */\n      dup1\n        /* \"#utility.yul\":2759:2796   */\n      tag_298\n        /* \"#utility.yul\":2792:2795   */\n      dup9\n        /* \"#utility.yul\":2780:2790   */\n      dup3\n        /* \"#utility.yul\":2759:2796   */\n      tag_214\n      jump\t// in\n    tag_298:\n        /* \"#utility.yul\":2754:2757   */\n      dup5\n        /* \"#utility.yul\":2747:2797   */\n      mstore\n        /* \"#utility.yul\":2826:2830   */\n      0x20\n        /* \"#utility.yul\":2821:2824   */\n      dup5\n        /* \"#utility.yul\":2817:2831   */\n      add\n        /* \"#utility.yul\":2810:2831   */\n      swap4\n      pop\n        /* \"#utility.yul\":2697:2841   */\n      pop\n        /* \"#utility.yul\":2681:2685   */\n      0x20\n        /* \"#utility.yul\":2676:2679   */\n      dup2\n        /* \"#utility.yul\":2672:2686   */\n      add\n        /* \"#utility.yul\":2665:2686   */\n      swap1\n      pop\n        /* \"#utility.yul\":2621:2841   */\n      jump(tag_295)\n    tag_297:\n        /* \"#utility.yul\":2625:2646   */\n      pop\n        /* \"#utility.yul\":2239:2847   */\n      pop\n      pop\n        /* \"#utility.yul\":2137:2847   */\n      swap4\n      swap3\n      pop\n      pop\n      pop\n      jump\t// out\n        /* \"#utility.yul\":2870:3240   */\n    tag_223:\n        /* \"#utility.yul\":2941:2946   */\n      0x00\n        /* \"#utility.yul\":2990:2993   */\n      dup3\n        /* \"#utility.yul\":2983:2987   */\n      0x1f\n        /* \"#utility.yul\":2975:2981   */\n      dup4\n        /* \"#utility.yul\":2971:2988   */\n      add\n        /* \"#utility.yul\":2967:2994   */\n      slt\n        /* \"#utility.yul\":2957:3079   */\n      tag_300\n      jumpi\n        /* \"#utility.yul\":2998:3077   */\n      tag_301\n      tag_215\n      jump\t// in\n    tag_301:\n        /* \"#utility.yul\":2957:3079   */\n    tag_300:\n        /* \"#utility.yul\":3115:3121   */\n      dup2\n        /* \"#utility.yul\":3102:3122   */\n      calldataload\n        /* \"#utility.yul\":3140:3234   */\n      tag_302\n        /* \"#utility.yul\":3230:3233   */\n      dup5\n        /* \"#utility.yul\":3222:3228   */\n      dup3\n        /* \"#utility.yul\":3215:3219   */\n      0x20\n        /* \"#utility.yul\":3207:3213   */\n      dup7\n        /* \"#utility.yul\":3203:3220   */\n      add\n        /* \"#utility.yul\":3140:3234   */\n      tag_222\n      jump\t// in\n    tag_302:\n        /* \"#utility.yul\":3131:3234   */\n      swap2\n      pop\n        /* \"#utility.yul\":2947:3240   */\n      pop\n        /* \"#utility.yul\":2870:3240   */\n      swap3\n      swap2\n      pop\n      pop\n      jump\t// out\n        /* \"#utility.yul\":3246:3557   */\n    tag_224:\n        /* \"#utility.yul\":3323:3327   */\n      0x00\n        /* \"#utility.yul\":3413:3431   */\n      0xffffffffffffffff\n        /* \"#utility.yul\":3405:3411   */\n      dup3\n        /* \"#utility.yul\":3402:3432   */\n      gt\n        /* \"#utility.yul\":3399:3455   */\n      iszero\n      tag_304\n      jumpi\n        /* \"#utility.yul\":3435:3453   */\n      tag_305\n      tag_217\n      jump\t// in\n    tag_305:\n        /* \"#utility.yul\":3399:3455   */\n    tag_304:\n        /* \"#utility.yul\":3485:3489   */\n      0x20\n        /* \"#utility.yul\":3477:3483   */\n      dup3\n        /* \"#utility.yul\":3473:3490   */\n      mul\n        /* \"#utility.yul\":3465:3490   */\n      swap1\n      pop\n        /* \"#utility.yul\":3545:3549   */\n      0x20\n        /* \"#utility.yul\":3539:3543   */\n      dup2\n        /* \"#utility.yul\":3535:3550   */\n      add\n        /* \"#utility.yul\":3527:3550   */\n      swap1\n      pop\n        /* \"#utility.yul\":3246:3557   */\n      swap2\n      swap1\n      pop\n      jump\t// out\n        /* \"#utility.yul\":3563:3640   */\n    tag_225:\n        /* \"#utility.yul\":3600:3607   */\n      0x00\n        /* \"#utility.yul\":3629:3634   */\n      dup2\n        /* \"#utility.yul\":3618:3634   */\n      swap1\n      pop\n        /* \"#utility.yul\":3563:3640   */\n      swap2\n      swap1\n      pop\n      jump\t// out\n        /* \"#utility.yul\":3646:3768   */\n    tag_226:\n        /* \"#utility.yul\":3719:3743   */\n      tag_308\n        /* \"#utility.yul\":3737:3742   */\n      dup2\n        /* \"#utility.yul\":3719:3743   */\n      tag_225\n      jump\t// in\n    tag_308:\n        /* \"#utility.yul\":3712:3717   */\n      dup2\n        /* \"#utility.yul\":3709:3744   */\n      eq\n        /* \"#utility.yul\":3699:3762   */\n      tag_309\n      jumpi\n        /* \"#utility.yul\":3758:3759   */\n      0x00\n        /* \"#utility.yul\":3755:3756   */\n      dup1\n        /* \"#utility.yul\":3748:3760   */\n      revert\n        /* \"#utility.yul\":3699:3762   */\n    tag_309:\n        /* \"#utility.yul\":3646:3768   */\n      pop\n      jump\t// out\n        /* \"#utility.yul\":3774:3913   */\n    tag_227:\n        /* \"#utility.yul\":3820:3825   */\n      0x00\n        /* \"#utility.yul\":3858:3864   */\n      dup2\n        /* \"#utility.yul\":3845:3865   */\n      calldataload\n        /* \"#utility.yul\":3836:3865   */\n      swap1\n      pop\n        /* \"#utility.yul\":3874:3907   */\n      tag_311\n        /* \"#utility.yul\":3901:3906   */\n      dup2\n        /* \"#utility.yul\":3874:3907   */\n      tag_226\n      jump\t// in\n    tag_311:\n        /* \"#utility.yul\":3774:3913   */\n      swap3\n      swap2\n      pop\n      pop\n      jump\t// out\n        /* \"#utility.yul\":3936:4646   */\n    tag_228:\n        /* \"#utility.yul\":4032:4037   */\n      0x00\n        /* \"#utility.yul\":4057:4138   */\n      tag_313\n        /* \"#utility.yul\":4073:4137   */\n      tag_314\n        /* \"#utility.yul\":4130:4136   */\n      dup5\n        /* \"#utility.yul\":4073:4137   */\n      tag_224\n      jump\t// in\n    tag_314:\n        /* \"#utility.yul\":4057:4138   */\n      tag_219\n      jump\t// in\n    tag_313:\n        /* \"#utility.yul\":4048:4138   */\n      swap1\n      pop\n        /* \"#utility.yul\":4158:4163   */\n      dup1\n        /* \"#utility.yul\":4187:4193   */\n      dup4\n        /* \"#utility.yul\":4180:4185   */\n      dup3\n        /* \"#utility.yul\":4173:4194   */\n      mstore\n        /* \"#utility.yul\":4221:4225   */\n      0x20\n        /* \"#utility.yul\":4214:4219   */\n      dup3\n        /* \"#utility.yul\":4210:4226   */\n      add\n        /* \"#utility.yul\":4203:4226   */\n      swap1\n      pop\n        /* \"#utility.yul\":4274:4278   */\n      0x20\n        /* \"#utility.yul\":4266:4272   */\n      dup5\n        /* \"#utility.yul\":4262:4279   */\n      mul\n        /* \"#utility.yul\":4254:4260   */\n      dup4\n        /* \"#utility.yul\":4250:4280   */\n      add\n        /* \"#utility.yul\":4303:4306   */\n      dup6\n        /* \"#utility.yul\":4295:4301   */\n      dup2\n        /* \"#utility.yul\":4292:4307   */\n      gt\n        /* \"#utility.yul\":4289:4411   */\n      iszero\n      tag_315\n      jumpi\n        /* \"#utility.yul\":4322:4401   */\n      tag_316\n      tag_221\n      jump\t// in\n    tag_316:\n        /* \"#utility.yul\":4289:4411   */\n    tag_315:\n        /* \"#utility.yul\":4437:4443   */\n      dup4\n        /* \"#utility.yul\":4420:4640   */\n    tag_317:\n        /* \"#utility.yul\":4454:4460   */\n      dup2\n        /* \"#utility.yul\":4449:4452   */\n      dup2\n        /* \"#utility.yul\":4446:4461   */\n      lt\n        /* \"#utility.yul\":4420:4640   */\n      iszero\n      tag_319\n      jumpi\n        /* \"#utility.yul\":4529:4532   */\n      dup1\n        /* \"#utility.yul\":4558:4595   */\n      tag_320\n        /* \"#utility.yul\":4591:4594   */\n      dup9\n        /* \"#utility.yul\":4579:4589   */\n      dup3\n        /* \"#utility.yul\":4558:4595   */\n      tag_227\n      jump\t// in\n    tag_320:\n        /* \"#utility.yul\":4553:4556   */\n      dup5\n        /* \"#utility.yul\":4546:4596   */\n      mstore\n        /* \"#utility.yul\":4625:4629   */\n      0x20\n        /* \"#utility.yul\":4620:4623   */\n      dup5\n        /* \"#utility.yul\":4616:4630   */\n      add\n        /* \"#utility.yul\":4609:4630   */\n      swap4\n      pop\n        /* \"#utility.yul\":4496:4640   */\n      pop\n        /* \"#utility.yul\":4480:4484   */\n      0x20\n        /* \"#utility.yul\":4475:4478   */\n      dup2\n        /* \"#utility.yul\":4471:4485   */\n      add\n        /* \"#utility.yul\":4464:4485   */\n      swap1\n      pop\n        /* \"#utility.yul\":4420:4640   */\n      jump(tag_317)\n    tag_319:\n        /* \"#utility.yul\":4424:4445   */\n      pop\n        /* \"#utility.yul\":4038:4646   */\n      pop\n      pop\n        /* \"#utility.yul\":3936:4646   */\n      swap4\n      swap3\n      pop\n      pop\n      pop\n      jump\t// out\n        /* \"#utility.yul\":4669:5039   */\n    tag_229:\n        /* \"#utility.yul\":4740:4745   */\n      0x00\n        /* \"#utility.yul\":4789:4792   */\n      dup3\n        /* \"#utility.yul\":4782:4786   */\n      0x1f\n        /* \"#utility.yul\":4774:4780   */\n      dup4\n        /* \"#utility.yul\":4770:4787   */\n      add\n        /* \"#utility.yul\":4766:4793   */\n      slt\n        /* \"#utility.yul\":4756:4878   */\n      tag_322\n      jumpi\n        /* \"#utility.yul\":4797:4876   */\n      tag_323\n      tag_215\n      jump\t// in\n    tag_323:\n        /* \"#utility.yul\":4756:4878   */\n    tag_322:\n        /* \"#utility.yul\":4914:4920   */\n      dup2\n        /* \"#utility.yul\":4901:4921   */\n      calldataload\n        /* \"#utility.yul\":4939:5033   */\n      tag_324\n        /* \"#utility.yul\":5029:5032   */\n      dup5\n        /* \"#utility.yul\":5021:5027   */\n      dup3\n        /* \"#utility.yul\":5014:5018   */\n      0x20\n        /* \"#utility.yul\":5006:5012   */\n      dup7\n        /* \"#utility.yul\":5002:5019   */\n      add\n        /* \"#utility.yul\":4939:5033   */\n      tag_228\n      jump\t// in\n    tag_324:\n        /* \"#utility.yul\":4930:5033   */\n      swap2\n      pop\n        /* \"#utility.yul\":4746:5039   */\n      pop\n        /* \"#utility.yul\":4669:5039   */\n      swap3\n      swap2\n      pop\n      pop\n      jump\t// out\n        /* \"#utility.yul\":5045:6084   */\n    tag_16:\n        /* \"#utility.yul\":5172:5178   */\n      0x00\n        /* \"#utility.yul\":5180:5186   */\n      dup1\n        /* \"#utility.yul\":5188:5194   */\n      0x00\n        /* \"#utility.yul\":5237:5239   */\n      0x60\n        /* \"#utility.yul\":5225:5234   */\n      dup5\n        /* \"#utility.yul\":5216:5223   */\n      dup7\n        /* \"#utility.yul\":5212:5235   */\n      sub\n        /* \"#utility.yul\":5208:5240   */\n      slt\n        /* \"#utility.yul\":5205:5324   */\n      iszero\n      tag_326\n      jumpi\n        /* \"#utility.yul\":5243:5322   */\n      tag_327\n      tag_209\n      jump\t// in\n    tag_327:\n        /* \"#utility.yul\":5205:5324   */\n    tag_326:\n        /* \"#utility.yul\":5363:5364   */\n      0x00\n        /* \"#utility.yul\":5388:5441   */\n      tag_328\n        /* \"#utility.yul\":5433:5440   */\n      dup7\n        /* \"#utility.yul\":5424:5430   */\n      dup3\n        /* \"#utility.yul\":5413:5422   */\n      dup8\n        /* \"#utility.yul\":5409:5431   */\n      add\n        /* \"#utility.yul\":5388:5441   */\n      tag_214\n      jump\t// in\n    tag_328:\n        /* \"#utility.yul\":5378:5441   */\n      swap4\n      pop\n        /* \"#utility.yul\":5334:5451   */\n      pop\n        /* \"#utility.yul\":5518:5520   */\n      0x20\n        /* \"#utility.yul\":5507:5516   */\n      dup5\n        /* \"#utility.yul\":5503:5521   */\n      add\n        /* \"#utility.yul\":5490:5522   */\n      calldataload\n        /* \"#utility.yul\":5549:5567   */\n      0xffffffffffffffff\n        /* \"#utility.yul\":5541:5547   */\n      dup2\n        /* \"#utility.yul\":5538:5568   */\n      gt\n        /* \"#utility.yul\":5535:5652   */\n      iszero\n      tag_329\n      jumpi\n        /* \"#utility.yul\":5571:5650   */\n      tag_330\n      tag_210\n      jump\t// in\n    tag_330:\n        /* \"#utility.yul\":5535:5652   */\n    tag_329:\n        /* \"#utility.yul\":5676:5754   */\n      tag_331\n        /* \"#utility.yul\":5746:5753   */\n      dup7\n        /* \"#utility.yul\":5737:5743   */\n      dup3\n        /* \"#utility.yul\":5726:5735   */\n      dup8\n        /* \"#utility.yul\":5722:5744   */\n      add\n        /* \"#utility.yul\":5676:5754   */\n      tag_223\n      jump\t// in\n    tag_331:\n        /* \"#utility.yul\":5666:5754   */\n      swap3\n      pop\n        /* \"#utility.yul\":5461:5764   */\n      pop\n        /* \"#utility.yul\":5831:5833   */\n      0x40\n        /* \"#utility.yul\":5820:5829   */\n      dup5\n        /* \"#utility.yul\":5816:5834   */\n      add\n        /* \"#utility.yul\":5803:5835   */\n      calldataload\n        /* \"#utility.yul\":5862:5880   */\n      0xffffffffffffffff\n        /* \"#utility.yul\":5854:5860   */\n      dup2\n        /* \"#utility.yul\":5851:5881   */\n      gt\n        /* \"#utility.yul\":5848:5965   */\n      iszero\n      tag_332\n      jumpi\n        /* \"#utility.yul\":5884:5963   */\n      tag_333\n      tag_210\n      jump\t// in\n    tag_333:\n        /* \"#utility.yul\":5848:5965   */\n    tag_332:\n        /* \"#utility.yul\":5989:6067   */\n      tag_334\n        /* \"#utility.yul\":6059:6066   */\n      dup7\n        /* \"#utility.yul\":6050:6056   */\n      dup3\n        /* \"#utility.yul\":6039:6048   */\n      dup8\n        /* \"#utility.yul\":6035:6057   */\n      add\n        /* \"#utility.yul\":5989:6067   */\n      tag_229\n      jump\t// in\n    tag_334:\n        /* \"#utility.yul\":5979:6067   */\n      swap2\n      pop\n        /* \"#utility.yul\":5774:6077   */\n      pop\n        /* \"#utility.yul\":5045:6084   */\n      swap3\n      pop\n      swap3\n      pop\n      swap3\n      jump\t// out\n        /* \"#utility.yul\":6090:6409   */\n    tag_230:\n        /* \"#utility.yul\":6175:6179   */\n      0x00\n        /* \"#utility.yul\":6265:6283   */\n      0xffffffffffffffff\n        /* \"#utility.yul\":6257:6263   */\n      dup3\n        /* \"#utility.yul\":6254:6284   */\n      gt\n        /* \"#utility.yul\":6251:6307   */\n      iszero\n      tag_336\n      jumpi\n        /* \"#utility.yul\":6287:6305   */\n      tag_337\n      tag_217\n      jump\t// in\n    tag_337:\n        /* \"#utility.yul\":6251:6307   */\n    tag_336:\n        /* \"#utility.yul\":6337:6341   */\n      0x20\n        /* \"#utility.yul\":6329:6335   */\n      dup3\n        /* \"#utility.yul\":6325:6342   */\n      mul\n        /* \"#utility.yul\":6317:6342   */\n      swap1\n      pop\n        /* \"#utility.yul\":6397:6401   */\n      0x20\n        /* \"#utility.yul\":6391:6395   */\n      dup2\n        /* \"#utility.yul\":6387:6402   */\n      add\n        /* \"#utility.yul\":6379:6402   */\n      swap1\n      pop\n        /* \"#utility.yul\":6090:6409   */\n      swap2\n      swap1\n      pop\n      jump\t// out\n        /* \"#utility.yul\":6415:6519   */\n    tag_231:\n        /* \"#utility.yul\":6460:6467   */\n      0x00\n        /* \"#utility.yul\":6489:6513   */\n      tag_339\n        /* \"#utility.yul\":6507:6512   */\n      dup3\n        /* \"#utility.yul\":6489:6513   */\n      tag_211\n      jump\t// in\n    tag_339:\n        /* \"#utility.yul\":6478:6513   */\n      swap1\n      pop\n        /* \"#utility.yul\":6415:6519   */\n      swap2\n      swap1\n      pop\n      jump\t// out\n        /* \"#utility.yul\":6525:6663   */\n    tag_232:\n        /* \"#utility.yul\":6606:6638   */\n      tag_341\n        /* \"#utility.yul\":6632:6637   */\n      dup2\n        /* \"#utility.yul\":6606:6638   */\n      tag_231\n      jump\t// in\n    tag_341:\n        /* \"#utility.yul\":6599:6604   */\n      dup2\n        /* \"#utility.yul\":6596:6639   */\n      eq\n        /* \"#utility.yul\":6586:6657   */\n      tag_342\n      jumpi\n        /* \"#utility.yul\":6653:6654   */\n      0x00\n        /* \"#utility.yul\":6650:6651   */\n      dup1\n        /* \"#utility.yul\":6643:6655   */\n      revert\n        /* \"#utility.yul\":6586:6657   */\n    tag_342:\n        /* \"#utility.yul\":6525:6663   */\n      pop\n      jump\t// out\n        /* \"#utility.yul\":6669:6824   */\n    tag_233:\n        /* \"#utility.yul\":6723:6728   */\n      0x00\n        /* \"#utility.yul\":6761:6767   */\n      dup2\n        /* \"#utility.yul\":6748:6768   */\n      calldataload\n        /* \"#utility.yul\":6739:6768   */\n      swap1\n      pop\n        /* \"#utility.yul\":6777:6818   */\n      tag_344\n        /* \"#utility.yul\":6812:6817   */\n      dup2\n        /* \"#utility.yul\":6777:6818   */\n      tag_232\n      jump\t// in\n    tag_344:\n        /* \"#utility.yul\":6669:6824   */\n      swap3\n      swap2\n      pop\n      pop\n      jump\t// out\n        /* \"#utility.yul\":6855:7589   */\n    tag_234:\n        /* \"#utility.yul\":6959:6964   */\n      0x00\n        /* \"#utility.yul\":6984:7073   */\n      tag_346\n        /* \"#utility.yul\":7000:7072   */\n      tag_347\n        /* \"#utility.yul\":7065:7071   */\n      dup5\n        /* \"#utility.yul\":7000:7072   */\n      tag_230\n      jump\t// in\n    tag_347:\n        /* \"#utility.yul\":6984:7073   */\n      tag_219\n      jump\t// in\n    tag_346:\n        /* \"#utility.yul\":6975:7073   */\n      swap1\n      pop\n        /* \"#utility.yul\":7093:7098   */\n      dup1\n        /* \"#utility.yul\":7122:7128   */\n      dup4\n        /* \"#utility.yul\":7115:7120   */\n      dup3\n        /* \"#utility.yul\":7108:7129   */\n      mstore\n        /* \"#utility.yul\":7156:7160   */\n      0x20\n        /* \"#utility.yul\":7149:7154   */\n      dup3\n        /* \"#utility.yul\":7145:7161   */\n      add\n        /* \"#utility.yul\":7138:7161   */\n      swap1\n      pop\n        /* \"#utility.yul\":7209:7213   */\n      0x20\n        /* \"#utility.yul\":7201:7207   */\n      dup5\n        /* \"#utility.yul\":7197:7214   */\n      mul\n        /* \"#utility.yul\":7189:7195   */\n      dup4\n        /* \"#utility.yul\":7185:7215   */\n      add\n        /* \"#utility.yul\":7238:7241   */\n      dup6\n        /* \"#utility.yul\":7230:7236   */\n      dup2\n        /* \"#utility.yul\":7227:7242   */\n      gt\n        /* \"#utility.yul\":7224:7346   */\n      iszero\n      tag_348\n      jumpi\n        /* \"#utility.yul\":7257:7336   */\n      tag_349\n      tag_221\n      jump\t// in\n    tag_349:\n        /* \"#utility.yul\":7224:7346   */\n    tag_348:\n        /* \"#utility.yul\":7372:7378   */\n      dup4\n        /* \"#utility.yul\":7355:7583   */\n    tag_350:\n        /* \"#utility.yul\":7389:7395   */\n      dup2\n        /* \"#utility.yul\":7384:7387   */\n      dup2\n        /* \"#utility.yul\":7381:7396   */\n      lt\n        /* \"#utility.yul\":7355:7583   */\n      iszero\n      tag_352\n      jumpi\n        /* \"#utility.yul\":7464:7467   */\n      dup1\n        /* \"#utility.yul\":7493:7538   */\n      tag_353\n        /* \"#utility.yul\":7534:7537   */\n      dup9\n        /* \"#utility.yul\":7522:7532   */\n      dup3\n        /* \"#utility.yul\":7493:7538   */\n      tag_233\n      jump\t// in\n    tag_353:\n        /* \"#utility.yul\":7488:7491   */\n      dup5\n        /* \"#utility.yul\":7481:7539   */\n      mstore\n        /* \"#utility.yul\":7568:7572   */\n      0x20\n        /* \"#utility.yul\":7563:7566   */\n      dup5\n        /* \"#utility.yul\":7559:7573   */\n      add\n        /* \"#utility.yul\":7552:7573   */\n      swap4\n      pop\n        /* \"#utility.yul\":7431:7583   */\n      pop\n        /* \"#utility.yul\":7415:7419   */\n      0x20\n        /* \"#utility.yul\":7410:7413   */\n      dup2\n        /* \"#utility.yul\":7406:7420   */\n      add\n        /* \"#utility.yul\":7399:7420   */\n      swap1\n      pop\n        /* \"#utility.yul\":7355:7583   */\n      jump(tag_350)\n    tag_352:\n        /* \"#utility.yul\":7359:7380   */\n      pop\n        /* \"#utility.yul\":6965:7589   */\n      pop\n      pop\n        /* \"#utility.yul\":6855:7589   */\n      swap4\n      swap3\n      pop\n      pop\n      pop\n      jump\t// out\n        /* \"#utility.yul\":7620:8006   */\n    tag_235:\n        /* \"#utility.yul\":7699:7704   */\n      0x00\n        /* \"#utility.yul\":7748:7751   */\n      dup3\n        /* \"#utility.yul\":7741:7745   */\n      0x1f\n        /* \"#utility.yul\":7733:7739   */\n      dup4\n        /* \"#utility.yul\":7729:7746   */\n      add\n        /* \"#utility.yul\":7725:7752   */\n      slt\n        /* \"#utility.yul\":7715:7837   */\n      tag_355\n      jumpi\n        /* \"#utility.yul\":7756:7835   */\n      tag_356\n      tag_215\n      jump\t// in\n    tag_356:\n        /* \"#utility.yul\":7715:7837   */\n    tag_355:\n        /* \"#utility.yul\":7873:7879   */\n      dup2\n        /* \"#utility.yul\":7860:7880   */\n      calldataload\n        /* \"#utility.yul\":7898:8000   */\n      tag_357\n        /* \"#utility.yul\":7996:7999   */\n      dup5\n        /* \"#utility.yul\":7988:7994   */\n      dup3\n        /* \"#utility.yul\":7981:7985   */\n      0x20\n        /* \"#utility.yul\":7973:7979   */\n      dup7\n        /* \"#utility.yul\":7969:7986   */\n      add\n        /* \"#utility.yul\":7898:8000   */\n      tag_234\n      jump\t// in\n    tag_357:\n        /* \"#utility.yul\":7889:8000   */\n      swap2\n      pop\n        /* \"#utility.yul\":7705:8006   */\n      pop\n        /* \"#utility.yul\":7620:8006   */\n      swap3\n      swap2\n      pop\n      pop\n      jump\t// out\n        /* \"#utility.yul\":8012:8922   */\n    tag_20:\n        /* \"#utility.yul\":8138:8144   */\n      0x00\n        /* \"#utility.yul\":8146:8152   */\n      dup1\n        /* \"#utility.yul\":8195:8197   */\n      0x40\n        /* \"#utility.yul\":8183:8192   */\n      dup4\n        /* \"#utility.yul\":8174:8181   */\n      dup6\n        /* \"#utility.yul\":8170:8193   */\n      sub\n        /* \"#utility.yul\":8166:8198   */\n      slt\n        /* \"#utility.yul\":8163:8282   */\n      iszero\n      tag_359\n      jumpi\n        /* \"#utility.yul\":8201:8280   */\n      tag_360\n      tag_209\n      jump\t// in\n    tag_360:\n        /* \"#utility.yul\":8163:8282   */\n    tag_359:\n        /* \"#utility.yul\":8349:8350   */\n      0x00\n        /* \"#utility.yul\":8338:8347   */\n      dup4\n        /* \"#utility.yul\":8334:8351   */\n      add\n        /* \"#utility.yul\":8321:8352   */\n      calldataload\n        /* \"#utility.yul\":8379:8397   */\n      0xffffffffffffffff\n        /* \"#utility.yul\":8371:8377   */\n      dup2\n        /* \"#utility.yul\":8368:8398   */\n      gt\n        /* \"#utility.yul\":8365:8482   */\n      iszero\n      tag_361\n      jumpi\n        /* \"#utility.yul\":8401:8480   */\n      tag_362\n      tag_210\n      jump\t// in\n    tag_362:\n        /* \"#utility.yul\":8365:8482   */\n    tag_361:\n        /* \"#utility.yul\":8506:8592   */\n      tag_363\n        /* \"#utility.yul\":8584:8591   */\n      dup6\n        /* \"#utility.yul\":8575:8581   */\n      dup3\n        /* \"#utility.yul\":8564:8573   */\n      dup7\n        /* \"#utility.yul\":8560:8582   */\n      add\n        /* \"#utility.yul\":8506:8592   */\n      tag_235\n      jump\t// in\n    tag_363:\n        /* \"#utility.yul\":8496:8592   */\n      swap3\n      pop\n        /* \"#utility.yul\":8292:8602   */\n      pop\n        /* \"#utility.yul\":8669:8671   */\n      0x20\n        /* \"#utility.yul\":8658:8667   */\n      dup4\n        /* \"#utility.yul\":8654:8672   */\n      add\n        /* \"#utility.yul\":8641:8673   */\n      calldataload\n        /* \"#utility.yul\":8700:8718   */\n      0xffffffffffffffff\n        /* \"#utility.yul\":8692:8698   */\n      dup2\n        /* \"#utility.yul\":8689:8719   */\n      gt\n        /* \"#utility.yul\":8686:8803   */\n      iszero\n      tag_364\n      jumpi\n        /* \"#utility.yul\":8722:8801   */\n      tag_365\n      tag_210\n      jump\t// in\n    tag_365:\n        /* \"#utility.yul\":8686:8803   */\n    tag_364:\n        /* \"#utility.yul\":8827:8905   */\n      tag_366\n        /* \"#utility.yul\":8897:8904   */\n      dup6\n        /* \"#utility.yul\":8888:8894   */\n      dup3\n        /* \"#utility.yul\":8877:8886   */\n      dup7\n        /* \"#utility.yul\":8873:8895   */\n      add\n        /* \"#utility.yul\":8827:8905   */\n      tag_229\n      jump\t// in\n    tag_366:\n        /* \"#utility.yul\":8817:8905   */\n      swap2\n      pop\n        /* \"#utility.yul\":8612:8915   */\n      pop\n        /* \"#utility.yul\":8012:8922   */\n      swap3\n      pop\n      swap3\n      swap1\n      pop\n      jump\t// out\n        /* \"#utility.yul\":8928:9257   */\n    tag_25:\n        /* \"#utility.yul\":8987:8993   */\n      0x00\n        /* \"#utility.yul\":9036:9038   */\n      0x20\n        /* \"#utility.yul\":9024:9033   */\n      dup3\n        /* \"#utility.yul\":9015:9022   */\n      dup5\n        /* \"#utility.yul\":9011:9034   */\n      sub\n        /* \"#utility.yul\":9007:9039   */\n      slt\n        /* \"#utility.yul\":9004:9123   */\n      iszero\n      tag_368\n      jumpi\n        /* \"#utility.yul\":9042:9121   */\n      tag_369\n      tag_209\n      jump\t// in\n    tag_369:\n        /* \"#utility.yul\":9004:9123   */\n    tag_368:\n        /* \"#utility.yul\":9162:9163   */\n      0x00\n        /* \"#utility.yul\":9187:9240   */\n      tag_370\n        /* \"#utility.yul\":9232:9239   */\n      dup5\n        /* \"#utility.yul\":9223:9229   */\n      dup3\n        /* \"#utility.yul\":9212:9221   */\n      dup6\n        /* \"#utility.yul\":9208:9230   */\n      add\n        /* \"#utility.yul\":9187:9240   */\n      tag_214\n      jump\t// in\n    tag_370:\n        /* \"#utility.yul\":9177:9240   */\n      swap2\n      pop\n        /* \"#utility.yul\":9133:9250   */\n      pop\n        /* \"#utility.yul\":8928:9257   */\n      swap3\n      swap2\n      pop\n      pop\n      jump\t// out\n        /* \"#utility.yul\":9263:9737   */\n    tag_30:\n        /* \"#utility.yul\":9331:9337   */\n      0x00\n        /* \"#utility.yul\":9339:9345   */\n      dup1\n        /* \"#utility.yul\":9388:9390   */\n      0x40\n        /* \"#utility.yul\":9376:9385   */\n      dup4\n        /* \"#utility.yul\":9367:9374   */\n      dup6\n        /* \"#utility.yul\":9363:9386   */\n      sub\n        /* \"#utility.yul\":9359:9391   */\n      slt\n        /* \"#utility.yul\":9356:9475   */\n      iszero\n      tag_372\n      jumpi\n        /* \"#utility.yul\":9394:9473   */\n      tag_373\n      tag_209\n      jump\t// in\n    tag_373:\n        /* \"#utility.yul\":9356:9475   */\n    tag_372:\n        /* \"#utility.yul\":9514:9515   */\n      0x00\n        /* \"#utility.yul\":9539:9592   */\n      tag_374\n        /* \"#utility.yul\":9584:9591   */\n      dup6\n        /* \"#utility.yul\":9575:9581   */\n      dup3\n        /* \"#utility.yul\":9564:9573   */\n      dup7\n        /* \"#utility.yul\":9560:9582   */\n      add\n        /* \"#utility.yul\":9539:9592   */\n      tag_214\n      jump\t// in\n    tag_374:\n        /* \"#utility.yul\":9529:9592   */\n      swap3\n      pop\n        /* \"#utility.yul\":9485:9602   */\n      pop\n        /* \"#utility.yul\":9641:9643   */\n      0x20\n        /* \"#utility.yul\":9667:9720   */\n      tag_375\n        /* \"#utility.yul\":9712:9719   */\n      dup6\n        /* \"#utility.yul\":9703:9709   */\n      dup3\n        /* \"#utility.yul\":9692:9701   */\n      dup7\n        /* \"#utility.yul\":9688:9710   */\n      add\n        /* \"#utility.yul\":9667:9720   */\n      tag_214\n      jump\t// in\n    tag_375:\n        /* \"#utility.yul\":9657:9720   */\n      swap2\n      pop\n        /* \"#utility.yul\":9612:9730   */\n      pop\n        /* \"#utility.yul\":9263:9737   */\n      swap3\n      pop\n      swap3\n      swap1\n      pop\n      jump\t// out\n        /* \"#utility.yul\":9743:9861   */\n    tag_236:\n        /* \"#utility.yul\":9830:9854   */\n      tag_377\n        /* \"#utility.yul\":9848:9853   */\n      dup2\n        /* \"#utility.yul\":9830:9854   */\n      tag_225\n      jump\t// in\n    tag_377:\n        /* \"#utility.yul\":9825:9828   */\n      dup3\n        /* \"#utility.yul\":9818:9855   */\n      mstore\n        /* \"#utility.yul\":9743:9861   */\n      pop\n      pop\n      jump\t// out\n        /* \"#utility.yul\":9867:10089   */\n    tag_36:\n        /* \"#utility.yul\":9960:9964   */\n      0x00\n        /* \"#utility.yul\":9998:10000   */\n      0x20\n        /* \"#utility.yul\":9987:9996   */\n      dup3\n        /* \"#utility.yul\":9983:10001   */\n      add\n        /* \"#utility.yul\":9975:10001   */\n      swap1\n      pop\n        /* \"#utility.yul\":10011:10082   */\n      tag_379\n        /* \"#utility.yul\":10079:10080   */\n      0x00\n        /* \"#utility.yul\":10068:10077   */\n      dup4\n        /* \"#utility.yul\":10064:10081   */\n      add\n        /* \"#utility.yul\":10055:10061   */\n      dup5\n        /* \"#utility.yul\":10011:10082   */\n      tag_236\n      jump\t// in\n    tag_379:\n        /* \"#utility.yul\":9867:10089   */\n      swap3\n      swap2\n      pop\n      pop\n      jump\t// out\n        /* \"#utility.yul\":10095:10924   */\n    tag_43:\n        /* \"#utility.yul\":10197:10203   */\n      0x00\n        /* \"#utility.yul\":10205:10211   */\n      dup1\n        /* \"#utility.yul\":10213:10219   */\n      0x00\n        /* \"#utility.yul\":10262:10264   */\n      0x60\n        /* \"#utility.yul\":10250:10259   */\n      dup5\n        /* \"#utility.yul\":10241:10248   */\n      dup7\n        /* \"#utility.yul\":10237:10260   */\n      sub\n        /* \"#utility.yul\":10233:10265   */\n      slt\n        /* \"#utility.yul\":10230:10349   */\n      iszero\n      tag_381\n      jumpi\n        /* \"#utility.yul\":10268:10347   */\n      tag_382\n      tag_209\n      jump\t// in\n    tag_382:\n        /* \"#utility.yul\":10230:10349   */\n    tag_381:\n        /* \"#utility.yul\":10388:10389   */\n      0x00\n        /* \"#utility.yul\":10413:10466   */\n      tag_383\n        /* \"#utility.yul\":10458:10465   */\n      dup7\n        /* \"#utility.yul\":10449:10455   */\n      dup3\n        /* \"#utility.yul\":10438:10447   */\n      dup8\n        /* \"#utility.yul\":10434:10456   */\n      add\n        /* \"#utility.yul\":10413:10466   */\n      tag_214\n      jump\t// in\n    tag_383:\n        /* \"#utility.yul\":10403:10466   */\n      swap4\n      pop\n        /* \"#utility.yul\":10359:10476   */\n      pop\n        /* \"#utility.yul\":10543:10545   */\n      0x20\n        /* \"#utility.yul\":10532:10541   */\n      dup5\n        /* \"#utility.yul\":10528:10546   */\n      add\n        /* \"#utility.yul\":10515:10547   */\n      calldataload\n        /* \"#utility.yul\":10574:10592   */\n      0xffffffffffffffff\n        /* \"#utility.yul\":10566:10572   */\n      dup2\n        /* \"#utility.yul\":10563:10593   */\n      gt\n        /* \"#utility.yul\":10560:10677   */\n      iszero\n      tag_384\n      jumpi\n        /* \"#utility.yul\":10596:10675   */\n      tag_385\n      tag_210\n      jump\t// in\n    tag_385:\n        /* \"#utility.yul\":10560:10677   */\n    tag_384:\n        /* \"#utility.yul\":10701:10779   */\n      tag_386\n        /* \"#utility.yul\":10771:10778   */\n      dup7\n        /* \"#utility.yul\":10762:10768   */\n      dup3\n        /* \"#utility.yul\":10751:10760   */\n      dup8\n        /* \"#utility.yul\":10747:10769   */\n      add\n        /* \"#utility.yul\":10701:10779   */\n      tag_223\n      jump\t// in\n    tag_386:\n        /* \"#utility.yul\":10691:10779   */\n      swap3\n      pop\n        /* \"#utility.yul\":10486:10789   */\n      pop\n        /* \"#utility.yul\":10828:10830   */\n      0x40\n        /* \"#utility.yul\":10854:10907   */\n      tag_387\n        /* \"#utility.yul\":10899:10906   */\n      dup7\n        /* \"#utility.yul\":10890:10896   */\n      dup3\n        /* \"#utility.yul\":10879:10888   */\n      dup8\n        /* \"#utility.yul\":10875:10897   */\n      add\n        /* \"#utility.yul\":10854:10907   */\n      tag_227\n      jump\t// in\n    tag_387:\n        /* \"#utility.yul\":10844:10907   */\n      swap2\n      pop\n        /* \"#utility.yul\":10799:10917   */\n      pop\n        /* \"#utility.yul\":10095:10924   */\n      swap3\n      pop\n      swap3\n      pop\n      swap3\n      jump\t// out\n        /* \"#utility.yul\":10930:11048   */\n    tag_237:\n        /* \"#utility.yul\":11017:11041   */\n      tag_389\n        /* \"#utility.yul\":11035:11040   */\n      dup2\n        /* \"#utility.yul\":11017:11041   */\n      tag_212\n      jump\t// in\n    tag_389:\n        /* \"#utility.yul\":11012:11015   */\n      dup3\n        /* \"#utility.yul\":11005:11042   */\n      mstore\n        /* \"#utility.yul\":10930:11048   */\n      pop\n      pop\n      jump\t// out\n        /* \"#utility.yul\":11054:11276   */\n    tag_49:\n        /* \"#utility.yul\":11147:11151   */\n      0x00\n        /* \"#utility.yul\":11185:11187   */\n      0x20\n        /* \"#utility.yul\":11174:11183   */\n      dup3\n        /* \"#utility.yul\":11170:11188   */\n      add\n        /* \"#utility.yul\":11162:11188   */\n      swap1\n      pop\n        /* \"#utility.yul\":11198:11269   */\n      tag_391\n        /* \"#utility.yul\":11266:11267   */\n      0x00\n        /* \"#utility.yul\":11255:11264   */\n      dup4\n        /* \"#utility.yul\":11251:11268   */\n      add\n        /* \"#utility.yul\":11242:11248   */\n      dup5\n        /* \"#utility.yul\":11198:11269   */\n      tag_237\n      jump\t// in\n    tag_391:\n        /* \"#utility.yul\":11054:11276   */\n      swap3\n      swap2\n      pop\n      pop\n      jump\t// out\n        /* \"#utility.yul\":11282:11982   */\n    tag_52:\n        /* \"#utility.yul\":11383:11389   */\n      0x00\n        /* \"#utility.yul\":11391:11397   */\n      dup1\n        /* \"#utility.yul\":11440:11442   */\n      0x40\n        /* \"#utility.yul\":11428:11437   */\n      dup4\n        /* \"#utility.yul\":11419:11426   */\n      dup6\n        /* \"#utility.yul\":11415:11438   */\n      sub\n        /* \"#utility.yul\":11411:11443   */\n      slt\n        /* \"#utility.yul\":11408:11527   */\n      iszero\n      tag_393\n      jumpi\n        /* \"#utility.yul\":11446:11525   */\n      tag_394\n      tag_209\n      jump\t// in\n    tag_394:\n        /* \"#utility.yul\":11408:11527   */\n    tag_393:\n        /* \"#utility.yul\":11594:11595   */\n      0x00\n        /* \"#utility.yul\":11583:11592   */\n      dup4\n        /* \"#utility.yul\":11579:11596   */\n      add\n        /* \"#utility.yul\":11566:11597   */\n      calldataload\n        /* \"#utility.yul\":11624:11642   */\n      0xffffffffffffffff\n        /* \"#utility.yul\":11616:11622   */\n      dup2\n        /* \"#utility.yul\":11613:11643   */\n      gt\n        /* \"#utility.yul\":11610:11727   */\n      iszero\n      tag_395\n      jumpi\n        /* \"#utility.yul\":11646:11725   */\n      tag_396\n      tag_210\n      jump\t// in\n    tag_396:\n        /* \"#utility.yul\":11610:11727   */\n    tag_395:\n        /* \"#utility.yul\":11751:11837   */\n      tag_397\n        /* \"#utility.yul\":11829:11836   */\n      dup6\n        /* \"#utility.yul\":11820:11826   */\n      dup3\n        /* \"#utility.yul\":11809:11818   */\n      dup7\n        /* \"#utility.yul\":11805:11827   */\n      add\n        /* \"#utility.yul\":11751:11837   */\n      tag_235\n      jump\t// in\n    tag_397:\n        /* \"#utility.yul\":11741:11837   */\n      swap3\n      pop\n        /* \"#utility.yul\":11537:11847   */\n      pop\n        /* \"#utility.yul\":11886:11888   */\n      0x20\n        /* \"#utility.yul\":11912:11965   */\n      tag_398\n        /* \"#utility.yul\":11957:11964   */\n      dup6\n        /* \"#utility.yul\":11948:11954   */\n      dup3\n        /* \"#utility.yul\":11937:11946   */\n      dup7\n        /* \"#utility.yul\":11933:11955   */\n      add\n        /* \"#utility.yul\":11912:11965   */\n      tag_227\n      jump\t// in\n    tag_398:\n        /* \"#utility.yul\":11902:11965   */\n      swap2\n      pop\n        /* \"#utility.yul\":11857:11975   */\n      pop\n        /* \"#utility.yul\":11282:11982   */\n      swap3\n      pop\n      swap3\n      swap1\n      pop\n      jump\t// out\n        /* \"#utility.yul\":11988:12157   */\n    tag_238:\n        /* \"#utility.yul\":12072:12083   */\n      0x00\n        /* \"#utility.yul\":12106:12112   */\n      dup3\n        /* \"#utility.yul\":12101:12104   */\n      dup3\n        /* \"#utility.yul\":12094:12113   */\n      mstore\n        /* \"#utility.yul\":12146:12150   */\n      0x20\n        /* \"#utility.yul\":12141:12144   */\n      dup3\n        /* \"#utility.yul\":12137:12151   */\n      add\n        /* \"#utility.yul\":12122:12151   */\n      swap1\n      pop\n        /* \"#utility.yul\":11988:12157   */\n      swap3\n      swap2\n      pop\n      pop\n      jump\t// out\n        /* \"#utility.yul\":12163:12334   */\n    tag_239:\n        /* \"#utility.yul\":12303:12326   */\n      0x5472616e73666572206c656e677468206572726f720000000000000000000000\n        /* \"#utility.yul\":12299:12300   */\n      0x00\n        /* \"#utility.yul\":12291:12297   */\n      dup3\n        /* \"#utility.yul\":12287:12301   */\n      add\n        /* \"#utility.yul\":12280:12327   */\n      mstore\n        /* \"#utility.yul\":12163:12334   */\n      pop\n      jump\t// out\n        /* \"#utility.yul\":12340:12706   */\n    tag_240:\n        /* \"#utility.yul\":12482:12485   */\n      0x00\n        /* \"#utility.yul\":12503:12570   */\n      tag_402\n        /* \"#utility.yul\":12567:12569   */\n      0x15\n        /* \"#utility.yul\":12562:12565   */\n      dup4\n        /* \"#utility.yul\":12503:12570   */\n      tag_238\n      jump\t// in\n    tag_402:\n        /* \"#utility.yul\":12496:12570   */\n      swap2\n      pop\n        /* \"#utility.yul\":12579:12672   */\n      tag_403\n        /* \"#utility.yul\":12668:12671   */\n      dup3\n        /* \"#utility.yul\":12579:12672   */\n      tag_239\n      jump\t// in\n    tag_403:\n        /* \"#utility.yul\":12697:12699   */\n      0x20\n        /* \"#utility.yul\":12692:12695   */\n      dup3\n        /* \"#utility.yul\":12688:12700   */\n      add\n        /* \"#utility.yul\":12681:12700   */\n      swap1\n      pop\n        /* \"#utility.yul\":12340:12706   */\n      swap2\n      swap1\n      pop\n      jump\t// out\n        /* \"#utility.yul\":12712:13131   */\n    tag_61:\n        /* \"#utility.yul\":12878:12882   */\n      0x00\n        /* \"#utility.yul\":12916:12918   */\n      0x20\n        /* \"#utility.yul\":12905:12914   */\n      dup3\n        /* \"#utility.yul\":12901:12919   */\n      add\n        /* \"#utility.yul\":12893:12919   */\n      swap1\n      pop\n        /* \"#utility.yul\":12965:12974   */\n      dup2\n        /* \"#utility.yul\":12959:12963   */\n      dup2\n        /* \"#utility.yul\":12955:12975   */\n      sub\n        /* \"#utility.yul\":12951:12952   */\n      0x00\n        /* \"#utility.yul\":12940:12949   */\n      dup4\n        /* \"#utility.yul\":12936:12953   */\n      add\n        /* \"#utility.yul\":12929:12976   */\n      mstore\n        /* \"#utility.yul\":12993:13124   */\n      tag_405\n        /* \"#utility.yul\":13119:13123   */\n      dup2\n        /* \"#utility.yul\":12993:13124   */\n      tag_240\n      jump\t// in\n    tag_405:\n        /* \"#utility.yul\":12985:13124   */\n      swap1\n      pop\n        /* \"#utility.yul\":12712:13131   */\n      swap2\n      swap1\n      pop\n      jump\t// out\n        /* \"#utility.yul\":13137:13317   */\n    tag_68:\n        /* \"#utility.yul\":13185:13262   */\n      0x4e487b7100000000000000000000000000000000000000000000000000000000\n        /* \"#utility.yul\":13182:13183   */\n      0x00\n        /* \"#utility.yul\":13175:13263   */\n      mstore\n        /* \"#utility.yul\":13282:13286   */\n      0x32\n        /* \"#utility.yul\":13279:13280   */\n      0x04\n        /* \"#utility.yul\":13272:13287   */\n      mstore\n        /* \"#utility.yul\":13306:13310   */\n      0x24\n        /* \"#utility.yul\":13303:13304   */\n      0x00\n        /* \"#utility.yul\":13296:13311   */\n      revert\n        /* \"#utility.yul\":13323:13503   */\n    tag_241:\n        /* \"#utility.yul\":13371:13448   */\n      0x4e487b7100000000000000000000000000000000000000000000000000000000\n        /* \"#utility.yul\":13368:13369   */\n      0x00\n        /* \"#utility.yul\":13361:13449   */\n      mstore\n        /* \"#utility.yul\":13468:13472   */\n      0x11\n        /* \"#utility.yul\":13465:13466   */\n      0x04\n        /* \"#utility.yul\":13458:13473   */\n      mstore\n        /* \"#utility.yul\":13492:13496   */\n      0x24\n        /* \"#utility.yul\":13489:13490   */\n      0x00\n        /* \"#utility.yul\":13482:13497   */\n      revert\n        /* \"#utility.yul\":13509:13742   */\n    tag_73:\n        /* \"#utility.yul\":13548:13551   */\n      0x00\n        /* \"#utility.yul\":13571:13595   */\n      tag_409\n        /* \"#utility.yul\":13589:13594   */\n      dup3\n        /* \"#utility.yul\":13571:13595   */\n      tag_225\n      jump\t// in\n    tag_409:\n        /* \"#utility.yul\":13562:13595   */\n      swap2\n      pop\n        /* \"#utility.yul\":13617:13683   */\n      0xffffffffffffffffffffffffffffffffffffffffffffffffffffffffffffffff\n        /* \"#utility.yul\":13610:13615   */\n      dup3\n        /* \"#utility.yul\":13607:13684   */\n      sub\n        /* \"#utility.yul\":13604:13707   */\n      tag_410\n      jumpi\n        /* \"#utility.yul\":13687:13705   */\n      tag_411\n      tag_241\n      jump\t// in\n    tag_411:\n        /* \"#utility.yul\":13604:13707   */\n    tag_410:\n        /* \"#utility.yul\":13734:13735   */\n      0x01\n        /* \"#utility.yul\":13727:13732   */\n      dup3\n        /* \"#utility.yul\":13723:13736   */\n      add\n        /* \"#utility.yul\":13716:13736   */\n      swap1\n      pop\n        /* \"#utility.yul\":13509:13742   */\n      swap2\n      swap1\n      pop\n      jump\t// out\n        /* \"#utility.yul\":13748:13891   */\n    tag_242:\n        /* \"#utility.yul\":13805:13810   */\n      0x00\n        /* \"#utility.yul\":13836:13842   */\n      dup2\n        /* \"#utility.yul\":13830:13843   */\n      mload\n        /* \"#utility.yul\":13821:13843   */\n      swap1\n      pop\n        /* \"#utility.yul\":13852:13885   */\n      tag_413\n        /* \"#utility.yul\":13879:13884   */\n      dup2\n        /* \"#utility.yul\":13852:13885   */\n      tag_226\n      jump\t// in\n    tag_413:\n        /* \"#utility.yul\":13748:13891   */\n      swap3\n      swap2\n      pop\n      pop\n      jump\t// out\n        /* \"#utility.yul\":13897:14248   */\n    tag_101:\n        /* \"#utility.yul\":13967:13973   */\n      0x00\n        /* \"#utility.yul\":14016:14018   */\n      0x20\n        /* \"#utility.yul\":14004:14013   */\n      dup3\n        /* \"#utility.yul\":13995:14002   */\n      dup5\n        /* \"#utility.yul\":13991:14014   */\n      sub\n        /* \"#utility.yul\":13987:14019   */\n      slt\n        /* \"#utility.yul\":13984:14103   */\n      iszero\n      tag_415\n      jumpi\n        /* \"#utility.yul\":14022:14101   */\n      tag_416\n      tag_209\n      jump\t// in\n    tag_416:\n        /* \"#utility.yul\":13984:14103   */\n    tag_415:\n        /* \"#utility.yul\":14142:14143   */\n      0x00\n        /* \"#utility.yul\":14167:14231   */\n      tag_417\n        /* \"#utility.yul\":14223:14230   */\n      dup5\n        /* \"#utility.yul\":14214:14220   */\n      dup3\n        /* \"#utility.yul\":14203:14212   */\n      dup6\n        /* \"#utility.yul\":14199:14221   */\n      add\n        /* \"#utility.yul\":14167:14231   */\n      tag_242\n      jump\t// in\n    tag_417:\n        /* \"#utility.yul\":14157:14231   */\n      swap2\n      pop\n        /* \"#utility.yul\":14113:14241   */\n      pop\n        /* \"#utility.yul\":13897:14248   */\n      swap3\n      swap2\n      pop\n      pop\n      jump\t// out\n        /* \"#utility.yul\":14254:14586   */\n    tag_104:\n        /* \"#utility.yul\":14375:14379   */\n      0x00\n        /* \"#utility.yul\":14413:14415   */\n      0x40\n        /* \"#utility.yul\":14402:14411   */\n      dup3\n        /* \"#utility.yul\":14398:14416   */\n      add\n        /* \"#utility.yul\":14390:14416   */\n      swap1\n      pop\n        /* \"#utility.yul\":14426:14497   */\n      tag_419\n        /* \"#utility.yul\":14494:14495   */\n      0x00\n        /* \"#utility.yul\":14483:14492   */\n      dup4\n        /* \"#utility.yul\":14479:14496   */\n      add\n        /* \"#utility.yul\":14470:14476   */\n      dup6\n        /* \"#utility.yul\":14426:14497   */\n      tag_237\n      jump\t// in\n    tag_419:\n        /* \"#utility.yul\":14507:14579   */\n      tag_420\n        /* \"#utility.yul\":14575:14577   */\n      0x20\n        /* \"#utility.yul\":14564:14573   */\n      dup4\n        /* \"#utility.yul\":14560:14578   */\n      add\n        /* \"#utility.yul\":14551:14557   */\n      dup5\n        /* \"#utility.yul\":14507:14579   */\n      tag_236\n      jump\t// in\n    tag_420:\n        /* \"#utility.yul\":14254:14586   */\n      swap4\n      swap3\n      pop\n      pop\n      pop\n      jump\t// out\n        /* \"#utility.yul\":14592:14682   */\n    tag_243:\n        /* \"#utility.yul\":14626:14633   */\n      0x00\n        /* \"#utility.yul\":14669:14674   */\n      dup2\n        /* \"#utility.yul\":14662:14675   */\n      iszero\n        /* \"#utility.yul\":14655:14676   */\n      iszero\n        /* \"#utility.yul\":14644:14676   */\n      swap1\n      pop\n        /* \"#utility.yul\":14592:14682   */\n      swap2\n      swap1\n      pop\n      jump\t// out\n        /* \"#utility.yul\":14688:14804   */\n    tag_244:\n        /* \"#utility.yul\":14758:14779   */\n      tag_423\n        /* \"#utility.yul\":14773:14778   */\n      dup2\n        /* \"#utility.yul\":14758:14779   */\n      tag_243\n      jump\t// in\n    tag_423:\n        /* \"#utility.yul\":14751:14756   */\n      dup2\n        /* \"#utility.yul\":14748:14780   */\n      eq\n        /* \"#utility.yul\":14738:14798   */\n      tag_424\n      jumpi\n        /* \"#utility.yul\":14794:14795   */\n      0x00\n        /* \"#utility.yul\":14791:14792   */\n      dup1\n        /* \"#utility.yul\":14784:14796   */\n      revert\n        /* \"#utility.yul\":14738:14798   */\n    tag_424:\n        /* \"#utility.yul\":14688:14804   */\n      pop\n      jump\t// out\n        /* \"#utility.yul\":14810:14947   */\n    tag_245:\n        /* \"#utility.yul\":14864:14869   */\n      0x00\n        /* \"#utility.yul\":14895:14901   */\n      dup2\n        /* \"#utility.yul\":14889:14902   */\n      mload\n        /* \"#utility.yul\":14880:14902   */\n      swap1\n      pop\n        /* \"#utility.yul\":14911:14941   */\n      tag_426\n        /* \"#utility.yul\":14935:14940   */\n      dup2\n        /* \"#utility.yul\":14911:14941   */\n      tag_244\n      jump\t// in\n    tag_426:\n        /* \"#utility.yul\":14810:14947   */\n      swap3\n      swap2\n      pop\n      pop\n      jump\t// out\n        /* \"#utility.yul\":14953:15298   */\n    tag_108:\n        /* \"#utility.yul\":15020:15026   */\n      0x00\n        /* \"#utility.yul\":15069:15071   */\n      0x20\n        /* \"#utility.yul\":15057:15066   */\n      dup3\n        /* \"#utility.yul\":15048:15055   */\n      dup5\n        /* \"#utility.yul\":15044:15067   */\n      sub\n        /* \"#utility.yul\":15040:15072   */\n      slt\n        /* \"#utility.yul\":15037:15156   */\n      iszero\n      tag_428\n      jumpi\n        /* \"#utility.yul\":15075:15154   */\n      tag_429\n      tag_209\n      jump\t// in\n    tag_429:\n        /* \"#utility.yul\":15037:15156   */\n    tag_428:\n        /* \"#utility.yul\":15195:15196   */\n      0x00\n        /* \"#utility.yul\":15220:15281   */\n      tag_430\n        /* \"#utility.yul\":15273:15280   */\n      dup5\n        /* \"#utility.yul\":15264:15270   */\n      dup3\n        /* \"#utility.yul\":15253:15262   */\n      dup6\n        /* \"#utility.yul\":15249:15271   */\n      add\n        /* \"#utility.yul\":15220:15281   */\n      tag_245\n      jump\t// in\n    tag_430:\n        /* \"#utility.yul\":15210:15281   */\n      swap2\n      pop\n        /* \"#utility.yul\":15166:15291   */\n      pop\n        /* \"#utility.yul\":14953:15298   */\n      swap3\n      swap2\n      pop\n      pop\n      jump\t// out\n        /* \"#utility.yul\":15304:15538   */\n    tag_246:\n        /* \"#utility.yul\":15444:15478   */\n      0x42756c6b5472616e736665723a2054686520666565206973206e6f7420656e6f\n        /* \"#utility.yul\":15440:15441   */\n      0x00\n        /* \"#utility.yul\":15432:15438   */\n      dup3\n        /* \"#utility.yul\":15428:15442   */\n      add\n        /* \"#utility.yul\":15421:15479   */\n      mstore\n        /* \"#utility.yul\":15513:15530   */\n      0x75676820746f207472616e736665720000000000000000000000000000000000\n        /* \"#utility.yul\":15508:15510   */\n      0x20\n        /* \"#utility.yul\":15500:15506   */\n      dup3\n        /* \"#utility.yul\":15496:15511   */\n      add\n        /* \"#utility.yul\":15489:15531   */\n      mstore\n        /* \"#utility.yul\":15304:15538   */\n      pop\n      jump\t// out\n        /* \"#utility.yul\":15544:15910   */\n    tag_247:\n        /* \"#utility.yul\":15686:15689   */\n      0x00\n        /* \"#utility.yul\":15707:15774   */\n      tag_433\n        /* \"#utility.yul\":15771:15773   */\n      0x2f\n        /* \"#utility.yul\":15766:15769   */\n      dup4\n        /* \"#utility.yul\":15707:15774   */\n      tag_238\n      jump\t// in\n    tag_433:\n        /* \"#utility.yul\":15700:15774   */\n      swap2\n      pop\n        /* \"#utility.yul\":15783:15876   */\n      tag_434\n        /* \"#utility.yul\":15872:15875   */\n      dup3\n        /* \"#utility.yul\":15783:15876   */\n      tag_246\n      jump\t// in\n    tag_434:\n        /* \"#utility.yul\":15901:15903   */\n      0x40\n        /* \"#utility.yul\":15896:15899   */\n      dup3\n        /* \"#utility.yul\":15892:15904   */\n      add\n        /* \"#utility.yul\":15885:15904   */\n      swap1\n      pop\n        /* \"#utility.yul\":15544:15910   */\n      swap2\n      swap1\n      pop\n      jump\t// out\n        /* \"#utility.yul\":15916:16335   */\n    tag_129:\n        /* \"#utility.yul\":16082:16086   */\n      0x00\n        /* \"#utility.yul\":16120:16122   */\n      0x20\n        /* \"#utility.yul\":16109:16118   */\n      dup3\n        /* \"#utility.yul\":16105:16123   */\n      add\n        /* \"#utility.yul\":16097:16123   */\n      swap1\n      pop\n        /* \"#utility.yul\":16169:16178   */\n      dup2\n        /* \"#utility.yul\":16163:16167   */\n      dup2\n        /* \"#utility.yul\":16159:16179   */\n      sub\n        /* \"#utility.yul\":16155:16156   */\n      0x00\n        /* \"#utility.yul\":16144:16153   */\n      dup4\n        /* \"#utility.yul\":16140:16157   */\n      add\n        /* \"#utility.yul\":16133:16180   */\n      mstore\n        /* \"#utility.yul\":16197:16328   */\n      tag_436\n        /* \"#utility.yul\":16323:16327   */\n      dup2\n        /* \"#utility.yul\":16197:16328   */\n      tag_247\n      jump\t// in\n    tag_436:\n        /* \"#utility.yul\":16189:16328   */\n      swap1\n      pop\n        /* \"#utility.yul\":15916:16335   */\n      swap2\n      swap1\n      pop\n      jump\t// out\n        /* \"#utility.yul\":16341:16566   */\n    tag_248:\n        /* \"#utility.yul\":16481:16515   */\n      0x4f776e61626c653a206e6577206f776e657220697320746865207a65726f2061\n        /* \"#utility.yul\":16477:16478   */\n      0x00\n        /* \"#utility.yul\":16469:16475   */\n      dup3\n        /* \"#utility.yul\":16465:16479   */\n      add\n        /* \"#utility.yul\":16458:16516   */\n      mstore\n        /* \"#utility.yul\":16550:16558   */\n      0x6464726573730000000000000000000000000000000000000000000000000000\n        /* \"#utility.yul\":16545:16547   */\n      0x20\n        /* \"#utility.yul\":16537:16543   */\n      dup3\n        /* \"#utility.yul\":16533:16548   */\n      add\n        /* \"#utility.yul\":16526:16559   */\n      mstore\n        /* \"#utility.yul\":16341:16566   */\n      pop\n      jump\t// out\n        /* \"#utility.yul\":16572:16938   */\n    tag_249:\n        /* \"#utility.yul\":16714:16717   */\n      0x00\n        /* \"#utility.yul\":16735:16802   */\n      tag_439\n        /* \"#utility.yul\":16799:16801   */\n      0x26\n        /* \"#utility.yul\":16794:16797   */\n      dup4\n        /* \"#utility.yul\":16735:16802   */\n      tag_238\n      jump\t// in\n    tag_439:\n        /* \"#utility.yul\":16728:16802   */\n      swap2\n      pop\n        /* \"#utility.yul\":16811:16904   */\n      tag_440\n        /* \"#utility.yul\":16900:16903   */\n      dup3\n        /* \"#utility.yul\":16811:16904   */\n      tag_248\n      jump\t// in\n    tag_440:\n        /* \"#utility.yul\":16929:16931   */\n      0x40\n        /* \"#utility.yul\":16924:16927   */\n      dup3\n        /* \"#utility.yul\":16920:16932   */\n      add\n        /* \"#utility.yul\":16913:16932   */\n      swap1\n      pop\n        /* \"#utility.yul\":16572:16938   */\n      swap2\n      swap1\n      pop\n      jump\t// out\n        /* \"#utility.yul\":16944:17363   */\n    tag_148:\n        /* \"#utility.yul\":17110:17114   */\n      0x00\n        /* \"#utility.yul\":17148:17150   */\n      0x20\n        /* \"#utility.yul\":17137:17146   */\n      dup3\n        /* \"#utility.yul\":17133:17151   */\n      add\n        /* \"#utility.yul\":17125:17151   */\n      swap1\n      pop\n        /* \"#utility.yul\":17197:17206   */\n      dup2\n        /* \"#utility.yul\":17191:17195   */\n      dup2\n        /* \"#utility.yul\":17187:17207   */\n      sub\n        /* \"#utility.yul\":17183:17184   */\n      0x00\n        /* \"#utility.yul\":17172:17181   */\n      dup4\n        /* \"#utility.yul\":17168:17185   */\n      add\n        /* \"#utility.yul\":17161:17208   */\n      mstore\n        /* \"#utility.yul\":17225:17356   */\n      tag_442\n        /* \"#utility.yul\":17351:17355   */\n      dup2\n        /* \"#utility.yul\":17225:17356   */\n      tag_249\n      jump\t// in\n    tag_442:\n        /* \"#utility.yul\":17217:17356   */\n      swap1\n      pop\n        /* \"#utility.yul\":16944:17363   */\n      swap2\n      swap1\n      pop\n      jump\t// out\n        /* \"#utility.yul\":17369:17551   */\n    tag_250:\n        /* \"#utility.yul\":17509:17543   */\n      0x4f776e61626c653a2063616c6c6572206973206e6f7420746865206f776e6572\n        /* \"#utility.yul\":17505:17506   */\n      0x00\n        /* \"#utility.yul\":17497:17503   */\n      dup3\n        /* \"#utility.yul\":17493:17507   */\n      add\n        /* \"#utility.yul\":17486:17544   */\n      mstore\n        /* \"#utility.yul\":17369:17551   */\n      pop\n      jump\t// out\n        /* \"#utility.yul\":17557:17923   */\n    tag_251:\n        /* \"#utility.yul\":17699:17702   */\n      0x00\n        /* \"#utility.yul\":17720:17787   */\n      tag_445\n        /* \"#utility.yul\":17784:17786   */\n      0x20\n        /* \"#utility.yul\":17779:17782   */\n      dup4\n        /* \"#utility.yul\":17720:17787   */\n      tag_238\n      jump\t// in\n    tag_445:\n        /* \"#utility.yul\":17713:17787   */\n      swap2\n      pop\n        /* \"#utility.yul\":17796:17889   */\n      tag_446\n        /* \"#utility.yul\":17885:17888   */\n      dup3\n        /* \"#utility.yul\":17796:17889   */\n      tag_250\n      jump\t// in\n    tag_446:\n        /* \"#utility.yul\":17914:17916   */\n      0x20\n        /* \"#utility.yul\":17909:17912   */\n      dup3\n        /* \"#utility.yul\":17905:17917   */\n      add\n        /* \"#utility.yul\":17898:17917   */\n      swap1\n      pop\n        /* \"#utility.yul\":17557:17923   */\n      swap2\n      swap1\n      pop\n      jump\t// out\n        /* \"#utility.yul\":17929:18348   */\n    tag_160:\n        /* \"#utility.yul\":18095:18099   */\n      0x00\n        /* \"#utility.yul\":18133:18135   */\n      0x20\n        /* \"#utility.yul\":18122:18131   */\n      dup3\n        /* \"#utility.yul\":18118:18136   */\n      add\n        /* \"#utility.yul\":18110:18136   */\n      swap1\n      pop\n        /* \"#utility.yul\":18182:18191   */\n      dup2\n        /* \"#utility.yul\":18176:18180   */\n      dup2\n        /* \"#utility.yul\":18172:18192   */\n      sub\n        /* \"#utility.yul\":18168:18169   */\n      0x00\n        /* \"#utility.yul\":18157:18166   */\n      dup4\n        /* \"#utility.yul\":18153:18170   */\n      add\n        /* \"#utility.yul\":18146:18193   */\n      mstore\n        /* \"#utility.yul\":18210:18341   */\n      tag_448\n        /* \"#utility.yul\":18336:18340   */\n      dup2\n        /* \"#utility.yul\":18210:18341   */\n      tag_251\n      jump\t// in\n    tag_448:\n        /* \"#utility.yul\":18202:18341   */\n      swap1\n      pop\n        /* \"#utility.yul\":17929:18348   */\n      swap2\n      swap1\n      pop\n      jump\t// out\n        /* \"#utility.yul\":18354:18764   */\n    tag_164:\n        /* \"#utility.yul\":18394:18401   */\n      0x00\n        /* \"#utility.yul\":18417:18437   */\n      tag_450\n        /* \"#utility.yul\":18435:18436   */\n      dup3\n        /* \"#utility.yul\":18417:18437   */\n      tag_225\n      jump\t// in\n    tag_450:\n        /* \"#utility.yul\":18412:18437   */\n      swap2\n      pop\n        /* \"#utility.yul\":18451:18471   */\n      tag_451\n        /* \"#utility.yul\":18469:18470   */\n      dup4\n        /* \"#utility.yul\":18451:18471   */\n      tag_225\n      jump\t// in\n    tag_451:\n        /* \"#utility.yul\":18446:18471   */\n      swap3\n      pop\n        /* \"#utility.yul\":18506:18507   */\n      dup3\n        /* \"#utility.yul\":18503:18504   */\n      dup3\n        /* \"#utility.yul\":18499:18508   */\n      mul\n        /* \"#utility.yul\":18528:18558   */\n      tag_452\n        /* \"#utility.yul\":18546:18557   */\n      dup2\n        /* \"#utility.yul\":18528:18558   */\n      tag_225\n      jump\t// in\n    tag_452:\n        /* \"#utility.yul\":18517:18558   */\n      swap2\n      pop\n        /* \"#utility.yul\":18707:18708   */\n      dup3\n        /* \"#utility.yul\":18698:18705   */\n      dup3\n        /* \"#utility.yul\":18694:18709   */\n      div\n        /* \"#utility.yul\":18691:18692   */\n      dup5\n        /* \"#utility.yul\":18688:18710   */\n      eq\n        /* \"#utility.yul\":18668:18669   */\n      dup4\n        /* \"#utility.yul\":18661:18670   */\n      iszero\n        /* \"#utility.yul\":18641:18724   */\n      or\n        /* \"#utility.yul\":18618:18757   */\n      tag_453\n      jumpi\n        /* \"#utility.yul\":18737:18755   */\n      tag_454\n      tag_241\n      jump\t// in\n    tag_454:\n        /* \"#utility.yul\":18618:18757   */\n    tag_453:\n        /* \"#utility.yul\":18402:18764   */\n      pop\n        /* \"#utility.yul\":18354:18764   */\n      swap3\n      swap2\n      pop\n      pop\n      jump\t// out\n        /* \"#utility.yul\":18770:18964   */\n    tag_167:\n        /* \"#utility.yul\":18810:18814   */\n      0x00\n        /* \"#utility.yul\":18830:18850   */\n      tag_456\n        /* \"#utility.yul\":18848:18849   */\n      dup3\n        /* \"#utility.yul\":18830:18850   */\n      tag_225\n      jump\t// in\n    tag_456:\n        /* \"#utility.yul\":18825:18850   */\n      swap2\n      pop\n        /* \"#utility.yul\":18864:18884   */\n      tag_457\n        /* \"#utility.yul\":18882:18883   */\n      dup4\n        /* \"#utility.yul\":18864:18884   */\n      tag_225\n      jump\t// in\n    tag_457:\n        /* \"#utility.yul\":18859:18884   */\n      swap3\n      pop\n        /* \"#utility.yul\":18908:18909   */\n      dup3\n        /* \"#utility.yul\":18905:18906   */\n      dup3\n        /* \"#utility.yul\":18901:18910   */\n      sub\n        /* \"#utility.yul\":18893:18910   */\n      swap1\n      pop\n        /* \"#utility.yul\":18932:18933   */\n      dup2\n        /* \"#utility.yul\":18926:18930   */\n      dup2\n        /* \"#utility.yul\":18923:18934   */\n      gt\n        /* \"#utility.yul\":18920:18957   */\n      iszero\n      tag_458\n      jumpi\n        /* \"#utility.yul\":18937:18955   */\n      tag_459\n      tag_241\n      jump\t// in\n    tag_459:\n        /* \"#utility.yul\":18920:18957   */\n    tag_458:\n        /* \"#utility.yul\":18770:18964   */\n      swap3\n      swap2\n      pop\n      pop\n      jump\t// out\n        /* \"#utility.yul\":18970:19199   */\n    tag_252:\n        /* \"#utility.yul\":19110:19144   */\n      0x5361666545524332303a204552433230206f7065726174696f6e20646964206e\n        /* \"#utility.yul\":19106:19107   */\n      0x00\n        /* \"#utility.yul\":19098:19104   */\n      dup3\n        /* \"#utility.yul\":19094:19108   */\n      add\n        /* \"#utility.yul\":19087:19145   */\n      mstore\n        /* \"#utility.yul\":19179:19191   */\n      0x6f74207375636365656400000000000000000000000000000000000000000000\n        /* \"#utility.yul\":19174:19176   */\n      0x20\n        /* \"#utility.yul\":19166:19172   */\n      dup3\n        /* \"#utility.yul\":19162:19177   */\n      add\n        /* \"#utility.yul\":19155:19192   */\n      mstore\n        /* \"#utility.yul\":18970:19199   */\n      pop\n      jump\t// out\n        /* \"#utility.yul\":19205:19571   */\n    tag_253:\n        /* \"#utility.yul\":19347:19350   */\n      0x00\n        /* \"#utility.yul\":19368:19435   */\n      tag_462\n        /* \"#utility.yul\":19432:19434   */\n      0x2a\n        /* \"#utility.yul\":19427:19430   */\n      dup4\n        /* \"#utility.yul\":19368:19435   */\n      tag_238\n      jump\t// in\n    tag_462:\n        /* \"#utility.yul\":19361:19435   */\n      swap2\n      pop\n        /* \"#utility.yul\":19444:19537   */\n      tag_463\n        /* \"#utility.yul\":19533:19536   */\n      dup3\n        /* \"#utility.yul\":19444:19537   */\n      tag_252\n      jump\t// in\n    tag_463:\n        /* \"#utility.yul\":19562:19564   */\n      0x40\n        /* \"#utility.yul\":19557:19560   */\n      dup3\n        /* \"#utility.yul\":19553:19565   */\n      add\n        /* \"#utility.yul\":19546:19565   */\n      swap1\n      pop\n        /* \"#utility.yul\":19205:19571   */\n      swap2\n      swap1\n      pop\n      jump\t// out\n        /* \"#utility.yul\":19577:19996   */\n    tag_175:\n        /* \"#utility.yul\":19743:19747   */\n      0x00\n        /* \"#utility.yul\":19781:19783   */\n      0x20\n        /* \"#utility.yul\":19770:19779   */\n      dup3\n        /* \"#utility.yul\":19766:19784   */\n      add\n        /* \"#utility.yul\":19758:19784   */\n      swap1\n      pop\n        /* \"#utility.yul\":19830:19839   */\n      dup2\n        /* \"#utility.yul\":19824:19828   */\n      dup2\n        /* \"#utility.yul\":19820:19840   */\n      sub\n        /* \"#utility.yul\":19816:19817   */\n      0x00\n        /* \"#utility.yul\":19805:19814   */\n      dup4\n        /* \"#utility.yul\":19801:19818   */\n      add\n        /* \"#utility.yul\":19794:19841   */\n      mstore\n        /* \"#utility.yul\":19858:19989   */\n      tag_465\n        /* \"#utility.yul\":19984:19988   */\n      dup2\n        /* \"#utility.yul\":19858:19989   */\n      tag_253\n      jump\t// in\n    tag_465:\n        /* \"#utility.yul\":19850:19989   */\n      swap1\n      pop\n        /* \"#utility.yul\":19577:19996   */\n      swap2\n      swap1\n      pop\n      jump\t// out\n        /* \"#utility.yul\":20002:20227   */\n    tag_254:\n        /* \"#utility.yul\":20142:20176   */\n      0x416464726573733a20696e73756666696369656e742062616c616e636520666f\n        /* \"#utility.yul\":20138:20139   */\n      0x00\n        /* \"#utility.yul\":20130:20136   */\n      dup3\n        /* \"#utility.yul\":20126:20140   */\n      add\n        /* \"#utility.yul\":20119:20177   */\n      mstore\n        /* \"#utility.yul\":20211:20219   */\n      0x722063616c6c0000000000000000000000000000000000000000000000000000\n        /* \"#utility.yul\":20206:20208   */\n      0x20\n        /* \"#utility.yul\":20198:20204   */\n      dup3\n        /* \"#utility.yul\":20194:20209   */\n      add\n        /* \"#utility.yul\":20187:20220   */\n      mstore\n        /* \"#utility.yul\":20002:20227   */\n      pop\n      jump\t// out\n        /* \"#utility.yul\":20233:20599   */\n    tag_255:\n        /* \"#utility.yul\":20375:20378   */\n      0x00\n        /* \"#utility.yul\":20396:20463   */\n      tag_468\n        /* \"#utility.yul\":20460:20462   */\n      0x26\n        /* \"#utility.yul\":20455:20458   */\n      dup4\n        /* \"#utility.yul\":20396:20463   */\n      tag_238\n      jump\t// in\n    tag_468:\n        /* \"#utility.yul\":20389:20463   */\n      swap2\n      pop\n        /* \"#utility.yul\":20472:20565   */\n      tag_469\n        /* \"#utility.yul\":20561:20564   */\n      dup3\n        /* \"#utility.yul\":20472:20565   */\n      tag_254\n      jump\t// in\n    tag_469:\n        /* \"#utility.yul\":20590:20592   */\n      0x40\n        /* \"#utility.yul\":20585:20588   */\n      dup3\n        /* \"#utility.yul\":20581:20593   */\n      add\n        /* \"#utility.yul\":20574:20593   */\n      swap1\n      pop\n        /* \"#utility.yul\":20233:20599   */\n      swap2\n      swap1\n      pop\n      jump\t// out\n        /* \"#utility.yul\":20605:21024   */\n    tag_183:\n        /* \"#utility.yul\":20771:20775   */\n      0x00\n        /* \"#utility.yul\":20809:20811   */\n      0x20\n        /* \"#utility.yul\":20798:20807   */\n      dup3\n        /* \"#utility.yul\":20794:20812   */\n      add\n        /* \"#utility.yul\":20786:20812   */\n      swap1\n      pop\n        /* \"#utility.yul\":20858:20867   */\n      dup2\n        /* \"#utility.yul\":20852:20856   */\n      dup2\n        /* \"#utility.yul\":20848:20868   */\n      sub\n        /* \"#utility.yul\":20844:20845   */\n      0x00\n        /* \"#utility.yul\":20833:20842   */\n      dup4\n        /* \"#utility.yul\":20829:20846   */\n      add\n        /* \"#utility.yul\":20822:20869   */\n      mstore\n        /* \"#utility.yul\":20886:21017   */\n      tag_471\n        /* \"#utility.yul\":21012:21016   */\n      dup2\n        /* \"#utility.yul\":20886:21017   */\n      tag_255\n      jump\t// in\n    tag_471:\n        /* \"#utility.yul\":20878:21017   */\n      swap1\n      pop\n        /* \"#utility.yul\":20605:21024   */\n      swap2\n      swap1\n      pop\n      jump\t// out\n        /* \"#utility.yul\":21030:21128   */\n    tag_256:\n        /* \"#utility.yul\":21081:21087   */\n      0x00\n        /* \"#utility.yul\":21115:21120   */\n      dup2\n        /* \"#utility.yul\":21109:21121   */\n      mload\n        /* \"#utility.yul\":21099:21121   */\n      swap1\n      pop\n        /* \"#utility.yul\":21030:21128   */\n      swap2\n      swap1\n      pop\n      jump\t// out\n        /* \"#utility.yul\":21134:21281   */\n    tag_257:\n        /* \"#utility.yul\":21235:21246   */\n      0x00\n        /* \"#utility.yul\":21272:21275   */\n      dup2\n        /* \"#utility.yul\":21257:21275   */\n      swap1\n      pop\n        /* \"#utility.yul\":21134:21281   */\n      swap3\n      swap2\n      pop\n      pop\n      jump\t// out\n        /* \"#utility.yul\":21287:21533   */\n    tag_258:\n        /* \"#utility.yul\":21368:21369   */\n      0x00\n        /* \"#utility.yul\":21378:21491   */\n    tag_475:\n        /* \"#utility.yul\":21392:21398   */\n      dup4\n        /* \"#utility.yul\":21389:21390   */\n      dup2\n        /* \"#utility.yul\":21386:21399   */\n      lt\n        /* \"#utility.yul\":21378:21491   */\n      iszero\n      tag_477\n      jumpi\n        /* \"#utility.yul\":21477:21478   */\n      dup1\n        /* \"#utility.yul\":21472:21475   */\n      dup3\n        /* \"#utility.yul\":21468:21479   */\n      add\n        /* \"#utility.yul\":21462:21480   */\n      mload\n        /* \"#utility.yul\":21458:21459   */\n      dup2\n        /* \"#utility.yul\":21453:21456   */\n      dup5\n        /* \"#utility.yul\":21449:21460   */\n      add\n        /* \"#utility.yul\":21442:21481   */\n      mstore\n        /* \"#utility.yul\":21414:21416   */\n      0x20\n        /* \"#utility.yul\":21411:21412   */\n      dup2\n        /* \"#utility.yul\":21407:21417   */\n      add\n        /* \"#utility.yul\":21402:21417   */\n      swap1\n      pop\n        /* \"#utility.yul\":21378:21491   */\n      jump(tag_475)\n    tag_477:\n        /* \"#utility.yul\":21525:21526   */\n      0x00\n        /* \"#utility.yul\":21516:21522   */\n      dup5\n        /* \"#utility.yul\":21511:21514   */\n      dup5\n        /* \"#utility.yul\":21507:21523   */\n      add\n        /* \"#utility.yul\":21500:21527   */\n      mstore\n        /* \"#utility.yul\":21349:21533   */\n      pop\n        /* \"#utility.yul\":21287:21533   */\n      pop\n      pop\n      pop\n      jump\t// out\n        /* \"#utility.yul\":21539:21925   */\n    tag_259:\n        /* \"#utility.yul\":21643:21646   */\n      0x00\n        /* \"#utility.yul\":21671:21709   */\n      tag_479\n        /* \"#utility.yul\":21703:21708   */\n      dup3\n        /* \"#utility.yul\":21671:21709   */\n      tag_256\n      jump\t// in\n    tag_479:\n        /* \"#utility.yul\":21725:21813   */\n      tag_480\n        /* \"#utility.yul\":21806:21812   */\n      dup2\n        /* \"#utility.yul\":21801:21804   */\n      dup6\n        /* \"#utility.yul\":21725:21813   */\n      tag_257\n      jump\t// in\n    tag_480:\n        /* \"#utility.yul\":21718:21813   */\n      swap4\n      pop\n        /* \"#utility.yul\":21822:21887   */\n      tag_481\n        /* \"#utility.yul\":21880:21886   */\n      dup2\n        /* \"#utility.yul\":21875:21878   */\n      dup6\n        /* \"#utility.yul\":21868:21872   */\n      0x20\n        /* \"#utility.yul\":21861:21866   */\n      dup7\n        /* \"#utility.yul\":21857:21873   */\n      add\n        /* \"#utility.yul\":21822:21887   */\n      tag_258\n      jump\t// in\n    tag_481:\n        /* \"#utility.yul\":21912:21918   */\n      dup1\n        /* \"#utility.yul\":21907:21910   */\n      dup5\n        /* \"#utility.yul\":21903:21919   */\n      add\n        /* \"#utility.yul\":21896:21919   */\n      swap2\n      pop\n        /* \"#utility.yul\":21647:21925   */\n      pop\n        /* \"#utility.yul\":21539:21925   */\n      swap3\n      swap2\n      pop\n      pop\n      jump\t// out\n        /* \"#utility.yul\":21931:22202   */\n    tag_185:\n        /* \"#utility.yul\":22061:22064   */\n      0x00\n        /* \"#utility.yul\":22083:22176   */\n      tag_483\n        /* \"#utility.yul\":22172:22175   */\n      dup3\n        /* \"#utility.yul\":22163:22169   */\n      dup5\n        /* \"#utility.yul\":22083:22176   */\n      tag_259\n      jump\t// in\n    tag_483:\n        /* \"#utility.yul\":22076:22176   */\n      swap2\n      pop\n        /* \"#utility.yul\":22193:22196   */\n      dup2\n        /* \"#utility.yul\":22186:22196   */\n      swap1\n      pop\n        /* \"#utility.yul\":21931:22202   */\n      swap3\n      swap2\n      pop\n      pop\n      jump\t// out\n        /* \"#utility.yul\":22208:22387   */\n    tag_260:\n        /* \"#utility.yul\":22348:22379   */\n      0x416464726573733a2063616c6c20746f206e6f6e2d636f6e7472616374000000\n        /* \"#utility.yul\":22344:22345   */\n      0x00\n        /* \"#utility.yul\":22336:22342   */\n      dup3\n        /* \"#utility.yul\":22332:22346   */\n      add\n        /* \"#utility.yul\":22325:22380   */\n      mstore\n        /* \"#utility.yul\":22208:22387   */\n      pop\n      jump\t// out\n        /* \"#utility.yul\":22393:22759   */\n    tag_261:\n        /* \"#utility.yul\":22535:22538   */\n      0x00\n        /* \"#utility.yul\":22556:22623   */\n      tag_486\n        /* \"#utility.yul\":22620:22622   */\n      0x1d\n        /* \"#utility.yul\":22615:22618   */\n      dup4\n        /* \"#utility.yul\":22556:22623   */\n      tag_238\n      jump\t// in\n    tag_486:\n        /* \"#utility.yul\":22549:22623   */\n      swap2\n      pop\n        /* \"#utility.yul\":22632:22725   */\n      tag_487\n        /* \"#utility.yul\":22721:22724   */\n      dup3\n        /* \"#utility.yul\":22632:22725   */\n      tag_260\n      jump\t// in\n    tag_487:\n        /* \"#utility.yul\":22750:22752   */\n      0x20\n        /* \"#utility.yul\":22745:22748   */\n      dup3\n        /* \"#utility.yul\":22741:22753   */\n      add\n        /* \"#utility.yul\":22734:22753   */\n      swap1\n      pop\n        /* \"#utility.yul\":22393:22759   */\n      swap2\n      swap1\n      pop\n      jump\t// out\n        /* \"#utility.yul\":22765:23184   */\n    tag_198:\n        /* \"#utility.yul\":22931:22935   */\n      0x00\n        /* \"#utility.yul\":22969:22971   */\n      0x20\n        /* \"#utility.yul\":22958:22967   */\n      dup3\n        /* \"#utility.yul\":22954:22972   */\n      add\n        /* \"#utility.yul\":22946:22972   */\n      swap1\n      pop\n        /* \"#utility.yul\":23018:23027   */\n      dup2\n        /* \"#utility.yul\":23012:23016   */\n      dup2\n        /* \"#utility.yul\":23008:23028   */\n      sub\n        /* \"#utility.yul\":23004:23005   */\n      0x00\n        /* \"#utility.yul\":22993:23002   */\n      dup4\n        /* \"#utility.yul\":22989:23006   */\n      add\n        /* \"#utility.yul\":22982:23029   */\n      mstore\n        /* \"#utility.yul\":23046:23177   */\n      tag_489\n        /* \"#utility.yul\":23172:23176   */\n      dup2\n        /* \"#utility.yul\":23046:23177   */\n      tag_261\n      jump\t// in\n    tag_489:\n        /* \"#utility.yul\":23038:23177   */\n      swap1\n      pop\n        /* \"#utility.yul\":22765:23184   */\n      swap2\n      swap1\n      pop\n      jump\t// out\n        /* \"#utility.yul\":23190:23289   */\n    tag_262:\n        /* \"#utility.yul\":23242:23248   */\n      0x00\n        /* \"#utility.yul\":23276:23281   */\n      dup2\n        /* \"#utility.yul\":23270:23282   */\n      mload\n        /* \"#utility.yul\":23260:23282   */\n      swap1\n      pop\n        /* \"#utility.yul\":23190:23289   */\n      swap2\n      swap1\n      pop\n      jump\t// out\n        /* \"#utility.yul\":23295:23672   */\n    tag_263:\n        /* \"#utility.yul\":23383:23386   */\n      0x00\n        /* \"#utility.yul\":23411:23450   */\n      tag_492\n        /* \"#utility.yul\":23444:23449   */\n      dup3\n        /* \"#utility.yul\":23411:23450   */\n      tag_262\n      jump\t// in\n    tag_492:\n        /* \"#utility.yul\":23466:23537   */\n      tag_493\n        /* \"#utility.yul\":23530:23536   */\n      dup2\n        /* \"#utility.yul\":23525:23528   */\n      dup6\n        /* \"#utility.yul\":23466:23537   */\n      tag_238\n      jump\t// in\n    tag_493:\n        /* \"#utility.yul\":23459:23537   */\n      swap4\n      pop\n        /* \"#utility.yul\":23546:23611   */\n      tag_494\n        /* \"#utility.yul\":23604:23610   */\n      dup2\n        /* \"#utility.yul\":23599:23602   */\n      dup6\n        /* \"#utility.yul\":23592:23596   */\n      0x20\n        /* \"#utility.yul\":23585:23590   */\n      dup7\n        /* \"#utility.yul\":23581:23597   */\n      add\n        /* \"#utility.yul\":23546:23611   */\n      tag_258\n      jump\t// in\n    tag_494:\n        /* \"#utility.yul\":23636:23665   */\n      tag_495\n        /* \"#utility.yul\":23658:23664   */\n      dup2\n        /* \"#utility.yul\":23636:23665   */\n      tag_216\n      jump\t// in\n    tag_495:\n        /* \"#utility.yul\":23631:23634   */\n      dup5\n        /* \"#utility.yul\":23627:23666   */\n      add\n        /* \"#utility.yul\":23620:23666   */\n      swap2\n      pop\n        /* \"#utility.yul\":23387:23672   */\n      pop\n        /* \"#utility.yul\":23295:23672   */\n      swap3\n      swap2\n      pop\n      pop\n      jump\t// out\n        /* \"#utility.yul\":23678:23991   */\n    tag_207:\n        /* \"#utility.yul\":23791:23795   */\n      0x00\n        /* \"#utility.yul\":23829:23831   */\n      0x20\n        /* \"#utility.yul\":23818:23827   */\n      dup3\n        /* \"#utility.yul\":23814:23832   */\n      add\n        /* \"#utility.yul\":23806:23832   */\n      swap1\n      pop\n        /* \"#utility.yul\":23878:23887   */\n      dup2\n        /* \"#utility.yul\":23872:23876   */\n      dup2\n        /* \"#utility.yul\":23868:23888   */\n      sub\n        /* \"#utility.yul\":23864:23865   */\n      0x00\n        /* \"#utility.yul\":23853:23862   */\n      dup4\n        /* \"#utility.yul\":23849:23866   */\n      add\n        /* \"#utility.yul\":23842:23889   */\n      mstore\n        /* \"#utility.yul\":23906:23984   */\n      tag_497\n        /* \"#utility.yul\":23979:23983   */\n      dup2\n        /* \"#utility.yul\":23970:23976   */\n      dup5\n        /* \"#utility.yul\":23906:23984   */\n      tag_263\n      jump\t// in\n    tag_497:\n        /* \"#utility.yul\":23898:23984   */\n      swap1\n      pop\n        /* \"#utility.yul\":23678:23991   */\n      swap3\n      swap2\n      pop\n      pop\n      jump\t// out\n\n    auxdata: 0xa26469706673582212205b602eb743455b06c1063e870de1bed1cef9d77234ca9b99d84fffc23550b81064736f6c63430008110033\n}\n",
				"bytecode": {
					"linkReferences": {},
					"object": "608060405234801561001057600080fd5b5061002d61002261003260201b60201c565b61003a60201b60201c565b6100fe565b600033905090565b60008060009054906101000a900473ffffffffffffffffffffffffffffffffffffffff169050816000806101000a81548173ffffffffffffffffffffffffffffffffffffffff021916908373ffffffffffffffffffffffffffffffffffffffff1602179055508173ffffffffffffffffffffffffffffffffffffffff168173ffffffffffffffffffffffffffffffffffffffff167f8be0079c531659141344cd1fd0a4f28419497f9722a3daafe3b4186f6b6457e060405160405180910390a35050565b61195b8061010d6000396000f3fe6080604052600436106100915760003560e01c8063715018a611610059578063715018a6146101585780637a7282171461016f5780638da5cb5b14610198578063bd5f85d7146101c3578063f2fde38b146101df57610091565b806305244e3f1461009657806323550289146100bf57806325e16063146100db5780633aeac4e114610104578063507351e21461012d575b600080fd5b3480156100a257600080fd5b506100bd60048036038101906100b89190610f1e565b610208565b005b6100d960048036038101906100d491906110aa565b6102dc565b005b3480156100e757600080fd5b5061010260048036038101906100fd9190611122565b6103c5565b005b34801561011057600080fd5b5061012b6004803603810190610126919061114f565b610427565b005b34801561013957600080fd5b50610142610541565b60405161014f919061119e565b60405180910390f35b34801561016457600080fd5b5061016d610549565b005b34801561017b57600080fd5b50610196600480360381019061019191906111b9565b61055d565b005b3480156101a457600080fd5b506101ad6105d3565b6040516101ba9190611237565b60405180910390f35b6101dd60048036038101906101d89190611252565b6105fc565b005b3480156101eb57600080fd5b5061020660048036038101906102019190611122565b610747565b005b60008390508151835114610251576040517f08c379a00000000000000000000000000000000000000000000000000000000081526004016102489061130b565b60405180910390fd5b60008351905060005b818110156102d4576102c18582815181106102785761027761132b565b5b60200260200101518583815181106102935761029261132b565b5b60200260200101518573ffffffffffffffffffffffffffffffffffffffff166107ca9092919063ffffffff16565b80806102cc90611389565b91505061025a565b505050505050565b6000825190508151835114610326576040517f08c379a000000000000000000000000000000000000000000000000000000000815260040161031d9061130b565b60405180910390fd5b60005b818110156103bf578381815181106103445761034361132b565b5b602002602001015173ffffffffffffffffffffffffffffffffffffffff166108fc8483815181106103785761037761132b565b5b60200260200101519081150290604051600060405180830381858888f193505050501580156103ab573d6000803e3d6000fd5b5080806103b790611389565b915050610329565b50505050565b6103cd610850565b60004790506000811115610423578173ffffffffffffffffffffffffffffffffffffffff166108fc829081150290604051600060405180830381858888f19350505050158015610421573d6000803e3d6000fd5b505b5050565b61042f610850565b600082905060008173ffffffffffffffffffffffffffffffffffffffff166370a08231306040518263ffffffff1660e01b815260040161046f9190611237565b602060405180830381865afa15801561048c573d6000803e3d6000fd5b505050506040513d601f19601f820116820180604052508101906104b091906113e6565b9050600081111561053b578173ffffffffffffffffffffffffffffffffffffffff1663a9059cbb84836040518363ffffffff1660e01b81526004016104f6929190611413565b6020604051808303816000875af1158015610515573d6000803e3d6000fd5b505050506040513d601f19601f820116820180604052508101906105399190611474565b505b50505050565b60005a905090565b610551610850565b61055b60006108ce565b565b600083905060008351905060005b818110156105cb576105b88582815181106105895761058861132b565b5b6020026020010151858573ffffffffffffffffffffffffffffffffffffffff166107ca9092919063ffffffff16565b80806105c390611389565b91505061056b565b505050505050565b60008060009054906101000a900473ffffffffffffffffffffffffffffffffffffffff16905090565b600082519050610615828261099290919063ffffffff16565b341015610657576040517f08c379a000000000000000000000000000000000000000000000000000000000815260040161064e90611513565b60405180910390fd5b60005b818110156106d6578381815181106106755761067461132b565b5b602002602001015173ffffffffffffffffffffffffffffffffffffffff166108fc849081150290604051600060405180830381858888f193505050501580156106c2573d6000803e3d6000fd5b5080806106ce90611389565b91505061065a565b503373ffffffffffffffffffffffffffffffffffffffff166108fc610716610707858561099290919063ffffffff16565b346109a890919063ffffffff16565b9081150290604051600060405180830381858888f19350505050158015610741573d6000803e3d6000fd5b50505050565b61074f610850565b600073ffffffffffffffffffffffffffffffffffffffff168173ffffffffffffffffffffffffffffffffffffffff16036107be576040517f08c379a00000000000000000000000000000000000000000000000000000000081526004016107b5906115a5565b60405180910390fd5b6107c7816108ce565b50565b61084b8363a9059cbb60e01b84846040516024016107e9929190611413565b604051602081830303815290604052907bffffffffffffffffffffffffffffffffffffffffffffffffffffffff19166020820180517bffffffffffffffffffffffffffffffffffffffffffffffffffffffff83818316178352505050506109be565b505050565b610858610a85565b73ffffffffffffffffffffffffffffffffffffffff166108766105d3565b73ffffffffffffffffffffffffffffffffffffffff16146108cc576040517f08c379a00000000000000000000000000000000000000000000000000000000081526004016108c390611611565b60405180910390fd5b565b60008060009054906101000a900473ffffffffffffffffffffffffffffffffffffffff169050816000806101000a81548173ffffffffffffffffffffffffffffffffffffffff021916908373ffffffffffffffffffffffffffffffffffffffff1602179055508173ffffffffffffffffffffffffffffffffffffffff168173ffffffffffffffffffffffffffffffffffffffff167f8be0079c531659141344cd1fd0a4f28419497f9722a3daafe3b4186f6b6457e060405160405180910390a35050565b600081836109a09190611631565b905092915050565b600081836109b69190611673565b905092915050565b6000610a20826040518060400160405280602081526020017f5361666545524332303a206c6f772d6c6576656c2063616c6c206661696c65648152508573ffffffffffffffffffffffffffffffffffffffff16610a8d9092919063ffffffff16565b9050600081511115610a805780806020019051810190610a409190611474565b610a7f576040517f08c379a0000000000000000000000000000000000000000000000000000000008152600401610a7690611719565b60405180910390fd5b5b505050565b600033905090565b6060610a9c8484600085610aa5565b90509392505050565b606082471015610aea576040517f08c379a0000000000000000000000000000000000000000000000000000000008152600401610ae1906117ab565b60405180910390fd5b6000808673ffffffffffffffffffffffffffffffffffffffff168587604051610b13919061183c565b60006040518083038185875af1925050503d8060008114610b50576040519150601f19603f3d011682016040523d82523d6000602084013e610b55565b606091505b5091509150610b6687838387610b72565b92505050949350505050565b60608315610bd4576000835103610bcc57610b8c85610be7565b610bcb576040517f08c379a0000000000000000000000000000000000000000000000000000000008152600401610bc29061189f565b60405180910390fd5b5b829050610bdf565b610bde8383610c0a565b5b949350505050565b6000808273ffffffffffffffffffffffffffffffffffffffff163b119050919050565b600082511115610c1d5781518083602001fd5b806040517f08c379a0000000000000000000000000000000000000000000000000000000008152600401610c519190611903565b60405180910390fd5b6000604051905090565b600080fd5b600080fd5b600073ffffffffffffffffffffffffffffffffffffffff82169050919050565b6000610c9982610c6e565b9050919050565b610ca981610c8e565b8114610cb457600080fd5b50565b600081359050610cc681610ca0565b92915050565b600080fd5b6000601f19601f8301169050919050565b7f4e487b7100000000000000000000000000000000000000000000000000000000600052604160045260246000fd5b610d1a82610cd1565b810181811067ffffffffffffffff82111715610d3957610d38610ce2565b5b80604052505050565b6000610d4c610c5a565b9050610d588282610d11565b919050565b600067ffffffffffffffff821115610d7857610d77610ce2565b5b602082029050602081019050919050565b600080fd5b6000610da1610d9c84610d5d565b610d42565b90508083825260208201905060208402830185811115610dc457610dc3610d89565b5b835b81811015610ded5780610dd98882610cb7565b845260208401935050602081019050610dc6565b5050509392505050565b600082601f830112610e0c57610e0b610ccc565b5b8135610e1c848260208601610d8e565b91505092915050565b600067ffffffffffffffff821115610e4057610e3f610ce2565b5b602082029050602081019050919050565b6000819050919050565b610e6481610e51565b8114610e6f57600080fd5b50565b600081359050610e8181610e5b565b92915050565b6000610e9a610e9584610e25565b610d42565b90508083825260208201905060208402830185811115610ebd57610ebc610d89565b5b835b81811015610ee65780610ed28882610e72565b845260208401935050602081019050610ebf565b5050509392505050565b600082601f830112610f0557610f04610ccc565b5b8135610f15848260208601610e87565b91505092915050565b600080600060608486031215610f3757610f36610c64565b5b6000610f4586828701610cb7565b935050602084013567ffffffffffffffff811115610f6657610f65610c69565b5b610f7286828701610df7565b925050604084013567ffffffffffffffff811115610f9357610f92610c69565b5b610f9f86828701610ef0565b9150509250925092565b600067ffffffffffffffff821115610fc457610fc3610ce2565b5b602082029050602081019050919050565b6000610fe082610c6e565b9050919050565b610ff081610fd5565b8114610ffb57600080fd5b50565b60008135905061100d81610fe7565b92915050565b600061102661102184610fa9565b610d42565b9050808382526020820190506020840283018581111561104957611048610d89565b5b835b81811015611072578061105e8882610ffe565b84526020840193505060208101905061104b565b5050509392505050565b600082601f83011261109157611090610ccc565b5b81356110a1848260208601611013565b91505092915050565b600080604083850312156110c1576110c0610c64565b5b600083013567ffffffffffffffff8111156110df576110de610c69565b5b6110eb8582860161107c565b925050602083013567ffffffffffffffff81111561110c5761110b610c69565b5b61111885828601610ef0565b9150509250929050565b60006020828403121561113857611137610c64565b5b600061114684828501610cb7565b91505092915050565b6000806040838503121561116657611165610c64565b5b600061117485828601610cb7565b925050602061118585828601610cb7565b9150509250929050565b61119881610e51565b82525050565b60006020820190506111b3600083018461118f565b92915050565b6000806000606084860312156111d2576111d1610c64565b5b60006111e086828701610cb7565b935050602084013567ffffffffffffffff81111561120157611200610c69565b5b61120d86828701610df7565b925050604061121e86828701610e72565b9150509250925092565b61123181610c8e565b82525050565b600060208201905061124c6000830184611228565b92915050565b6000806040838503121561126957611268610c64565b5b600083013567ffffffffffffffff81111561128757611286610c69565b5b6112938582860161107c565b92505060206112a485828601610e72565b9150509250929050565b600082825260208201905092915050565b7f5472616e73666572206c656e677468206572726f720000000000000000000000600082015250565b60006112f56015836112ae565b9150611300826112bf565b602082019050919050565b60006020820190508181036000830152611324816112e8565b9050919050565b7f4e487b7100000000000000000000000000000000000000000000000000000000600052603260045260246000fd5b7f4e487b7100000000000000000000000000000000000000000000000000000000600052601160045260246000fd5b600061139482610e51565b91507fffffffffffffffffffffffffffffffffffffffffffffffffffffffffffffffff82036113c6576113c561135a565b5b600182019050919050565b6000815190506113e081610e5b565b92915050565b6000602082840312156113fc576113fb610c64565b5b600061140a848285016113d1565b91505092915050565b60006040820190506114286000830185611228565b611435602083018461118f565b9392505050565b60008115159050919050565b6114518161143c565b811461145c57600080fd5b50565b60008151905061146e81611448565b92915050565b60006020828403121561148a57611489610c64565b5b60006114988482850161145f565b91505092915050565b7f42756c6b5472616e736665723a2054686520666565206973206e6f7420656e6f60008201527f75676820746f207472616e736665720000000000000000000000000000000000602082015250565b60006114fd602f836112ae565b9150611508826114a1565b604082019050919050565b6000602082019050818103600083015261152c816114f0565b9050919050565b7f4f776e61626c653a206e6577206f776e657220697320746865207a65726f206160008201527f6464726573730000000000000000000000000000000000000000000000000000602082015250565b600061158f6026836112ae565b915061159a82611533565b604082019050919050565b600060208201905081810360008301526115be81611582565b9050919050565b7f4f776e61626c653a2063616c6c6572206973206e6f7420746865206f776e6572600082015250565b60006115fb6020836112ae565b9150611606826115c5565b602082019050919050565b6000602082019050818103600083015261162a816115ee565b9050919050565b600061163c82610e51565b915061164783610e51565b925082820261165581610e51565b9150828204841483151761166c5761166b61135a565b5b5092915050565b600061167e82610e51565b915061168983610e51565b92508282039050818111156116a1576116a061135a565b5b92915050565b7f5361666545524332303a204552433230206f7065726174696f6e20646964206e60008201527f6f74207375636365656400000000000000000000000000000000000000000000602082015250565b6000611703602a836112ae565b915061170e826116a7565b604082019050919050565b60006020820190508181036000830152611732816116f6565b9050919050565b7f416464726573733a20696e73756666696369656e742062616c616e636520666f60008201527f722063616c6c0000000000000000000000000000000000000000000000000000602082015250565b60006117956026836112ae565b91506117a082611739565b604082019050919050565b600060208201905081810360008301526117c481611788565b9050919050565b600081519050919050565b600081905092915050565b60005b838110156117ff5780820151818401526020810190506117e4565b60008484015250505050565b6000611816826117cb565b61182081856117d6565b93506118308185602086016117e1565b80840191505092915050565b6000611848828461180b565b915081905092915050565b7f416464726573733a2063616c6c20746f206e6f6e2d636f6e7472616374000000600082015250565b6000611889601d836112ae565b915061189482611853565b602082019050919050565b600060208201905081810360008301526118b88161187c565b9050919050565b600081519050919050565b60006118d5826118bf565b6118df81856112ae565b93506118ef8185602086016117e1565b6118f881610cd1565b840191505092915050565b6000602082019050818103600083015261191d81846118ca565b90509291505056fea26469706673582212205b602eb743455b06c1063e870de1bed1cef9d77234ca9b99d84fffc23550b81064736f6c63430008110033",
					"opcodes": "PUSH1 0x80 PUSH1 0x40 MSTORE CALLVALUE DUP1 ISZERO PUSH2 0x10 JUMPI PUSH1 0x0 DUP1 REVERT JUMPDEST POP PUSH2 0x2D PUSH2 0x22 PUSH2 0x32 PUSH1 0x20 SHL PUSH1 0x20 SHR JUMP JUMPDEST PUSH2 0x3A PUSH1 0x20 SHL PUSH1 0x20 SHR JUMP JUMPDEST PUSH2 0xFE JUMP JUMPDEST PUSH1 0x0 CALLER SWAP1 POP SWAP1 JUMP JUMPDEST PUSH1 0x0 DUP1 PUSH1 0x0 SWAP1 SLOAD SWAP1 PUSH2 0x100 EXP SWAP1 DIV PUSH20 0xFFFFFFFFFFFFFFFFFFFFFFFFFFFFFFFFFFFFFFFF AND SWAP1 POP DUP2 PUSH1 0x0 DUP1 PUSH2 0x100 EXP DUP2 SLOAD DUP2 PUSH20 0xFFFFFFFFFFFFFFFFFFFFFFFFFFFFFFFFFFFFFFFF MUL NOT AND SWAP1 DUP4 PUSH20 0xFFFFFFFFFFFFFFFFFFFFFFFFFFFFFFFFFFFFFFFF AND MUL OR SWAP1 SSTORE POP DUP2 PUSH20 0xFFFFFFFFFFFFFFFFFFFFFFFFFFFFFFFFFFFFFFFF AND DUP2 PUSH20 0xFFFFFFFFFFFFFFFFFFFFFFFFFFFFFFFFFFFFFFFF AND PUSH32 0x8BE0079C531659141344CD1FD0A4F28419497F9722A3DAAFE3B4186F6B6457E0 PUSH1 0x40 MLOAD PUSH1 0x40 MLOAD DUP1 SWAP2 SUB SWAP1 LOG3 POP POP JUMP JUMPDEST PUSH2 0x195B DUP1 PUSH2 0x10D PUSH1 0x0 CODECOPY PUSH1 0x0 RETURN INVALID PUSH1 0x80 PUSH1 0x40 MSTORE PUSH1 0x4 CALLDATASIZE LT PUSH2 0x91 JUMPI PUSH1 0x0 CALLDATALOAD PUSH1 0xE0 SHR DUP1 PUSH4 0x715018A6 GT PUSH2 0x59 JUMPI DUP1 PUSH4 0x715018A6 EQ PUSH2 0x158 JUMPI DUP1 PUSH4 0x7A728217 EQ PUSH2 0x16F JUMPI DUP1 PUSH4 0x8DA5CB5B EQ PUSH2 0x198 JUMPI DUP1 PUSH4 0xBD5F85D7 EQ PUSH2 0x1C3 JUMPI DUP1 PUSH4 0xF2FDE38B EQ PUSH2 0x1DF JUMPI PUSH2 0x91 JUMP JUMPDEST DUP1 PUSH4 0x5244E3F EQ PUSH2 0x96 JUMPI DUP1 PUSH4 0x23550289 EQ PUSH2 0xBF JUMPI DUP1 PUSH4 0x25E16063 EQ PUSH2 0xDB JUMPI DUP1 PUSH4 0x3AEAC4E1 EQ PUSH2 0x104 JUMPI DUP1 PUSH4 0x507351E2 EQ PUSH2 0x12D JUMPI JUMPDEST PUSH1 0x0 DUP1 REVERT JUMPDEST CALLVALUE DUP1 ISZERO PUSH2 0xA2 JUMPI PUSH1 0x0 DUP1 REVERT JUMPDEST POP PUSH2 0xBD PUSH1 0x4 DUP1 CALLDATASIZE SUB DUP2 ADD SWAP1 PUSH2 0xB8 SWAP2 SWAP1 PUSH2 0xF1E JUMP JUMPDEST PUSH2 0x208 JUMP JUMPDEST STOP JUMPDEST PUSH2 0xD9 PUSH1 0x4 DUP1 CALLDATASIZE SUB DUP2 ADD SWAP1 PUSH2 0xD4 SWAP2 SWAP1 PUSH2 0x10AA JUMP JUMPDEST PUSH2 0x2DC JUMP JUMPDEST STOP JUMPDEST CALLVALUE DUP1 ISZERO PUSH2 0xE7 JUMPI PUSH1 0x0 DUP1 REVERT JUMPDEST POP PUSH2 0x102 PUSH1 0x4 DUP1 CALLDATASIZE SUB DUP2 ADD SWAP1 PUSH2 0xFD SWAP2 SWAP1 PUSH2 0x1122 JUMP JUMPDEST PUSH2 0x3C5 JUMP JUMPDEST STOP JUMPDEST CALLVALUE DUP1 ISZERO PUSH2 0x110 JUMPI PUSH1 0x0 DUP1 REVERT JUMPDEST POP PUSH2 0x12B PUSH1 0x4 DUP1 CALLDATASIZE SUB DUP2 ADD SWAP1 PUSH2 0x126 SWAP2 SWAP1 PUSH2 0x114F JUMP JUMPDEST PUSH2 0x427 JUMP JUMPDEST STOP JUMPDEST CALLVALUE DUP1 ISZERO PUSH2 0x139 JUMPI PUSH1 0x0 DUP1 REVERT JUMPDEST POP PUSH2 0x142 PUSH2 0x541 JUMP JUMPDEST PUSH1 0x40 MLOAD PUSH2 0x14F SWAP2 SWAP1 PUSH2 0x119E JUMP JUMPDEST PUSH1 0x40 MLOAD DUP1 SWAP2 SUB SWAP1 RETURN JUMPDEST CALLVALUE DUP1 ISZERO PUSH2 0x164 JUMPI PUSH1 0x0 DUP1 REVERT JUMPDEST POP PUSH2 0x16D PUSH2 0x549 JUMP JUMPDEST STOP JUMPDEST CALLVALUE DUP1 ISZERO PUSH2 0x17B JUMPI PUSH1 0x0 DUP1 REVERT JUMPDEST POP PUSH2 0x196 PUSH1 0x4 DUP1 CALLDATASIZE SUB DUP2 ADD SWAP1 PUSH2 0x191 SWAP2 SWAP1 PUSH2 0x11B9 JUMP JUMPDEST PUSH2 0x55D JUMP JUMPDEST STOP JUMPDEST CALLVALUE DUP1 ISZERO PUSH2 0x1A4 JUMPI PUSH1 0x0 DUP1 REVERT JUMPDEST POP PUSH2 0x1AD PUSH2 0x5D3 JUMP JUMPDEST PUSH1 0x40 MLOAD PUSH2 0x1BA SWAP2 SWAP1 PUSH2 0x1237 JUMP JUMPDEST PUSH1 0x40 MLOAD DUP1 SWAP2 SUB SWAP1 RETURN JUMPDEST PUSH2 0x1DD PUSH1 0x4 DUP1 CALLDATASIZE SUB DUP2 ADD SWAP1 PUSH2 0x1D8 SWAP2 SWAP1 PUSH2 0x1252 JUMP JUMPDEST PUSH2 0x5FC JUMP JUMPDEST STOP JUMPDEST CALLVALUE DUP1 ISZERO PUSH2 0x1EB JUMPI PUSH1 0x0 DUP1 REVERT JUMPDEST POP PUSH2 0x206 PUSH1 0x4 DUP1 CALLDATASIZE SUB DUP2 ADD SWAP1 PUSH2 0x201 SWAP2 SWAP1 PUSH2 0x1122 JUMP JUMPDEST PUSH2 0x747 JUMP JUMPDEST STOP JUMPDEST PUSH1 0x0 DUP4 SWAP1 POP DUP2 MLOAD DUP4 MLOAD EQ PUSH2 0x251 JUMPI PUSH1 0x40 MLOAD PUSH32 0x8C379A000000000000000000000000000000000000000000000000000000000 DUP2 MSTORE PUSH1 0x4 ADD PUSH2 0x248 SWAP1 PUSH2 0x130B JUMP JUMPDEST PUSH1 0x40 MLOAD DUP1 SWAP2 SUB SWAP1 REVERT JUMPDEST PUSH1 0x0 DUP4 MLOAD SWAP1 POP PUSH1 0x0 JUMPDEST DUP2 DUP2 LT ISZERO PUSH2 0x2D4 JUMPI PUSH2 0x2C1 DUP6 DUP3 DUP2 MLOAD DUP2 LT PUSH2 0x278 JUMPI PUSH2 0x277 PUSH2 0x132B JUMP JUMPDEST JUMPDEST PUSH1 0x20 MUL PUSH1 0x20 ADD ADD MLOAD DUP6 DUP4 DUP2 MLOAD DUP2 LT PUSH2 0x293 JUMPI PUSH2 0x292 PUSH2 0x132B JUMP JUMPDEST JUMPDEST PUSH1 0x20 MUL PUSH1 0x20 ADD ADD MLOAD DUP6 PUSH20 0xFFFFFFFFFFFFFFFFFFFFFFFFFFFFFFFFFFFFFFFF AND PUSH2 0x7CA SWAP1 SWAP3 SWAP2 SWAP1 PUSH4 0xFFFFFFFF AND JUMP JUMPDEST DUP1 DUP1 PUSH2 0x2CC SWAP1 PUSH2 0x1389 JUMP JUMPDEST SWAP2 POP POP PUSH2 0x25A JUMP JUMPDEST POP POP POP POP POP POP JUMP JUMPDEST PUSH1 0x0 DUP3 MLOAD SWAP1 POP DUP2 MLOAD DUP4 MLOAD EQ PUSH2 0x326 JUMPI PUSH1 0x40 MLOAD PUSH32 0x8C379A000000000000000000000000000000000000000000000000000000000 DUP2 MSTORE PUSH1 0x4 ADD PUSH2 0x31D SWAP1 PUSH2 0x130B JUMP JUMPDEST PUSH1 0x40 MLOAD DUP1 SWAP2 SUB SWAP1 REVERT JUMPDEST PUSH1 0x0 JUMPDEST DUP2 DUP2 LT ISZERO PUSH2 0x3BF JUMPI DUP4 DUP2 DUP2 MLOAD DUP2 LT PUSH2 0x344 JUMPI PUSH2 0x343 PUSH2 0x132B JUMP JUMPDEST JUMPDEST PUSH1 0x20 MUL PUSH1 0x20 ADD ADD MLOAD PUSH20 0xFFFFFFFFFFFFFFFFFFFFFFFFFFFFFFFFFFFFFFFF AND PUSH2 0x8FC DUP5 DUP4 DUP2 MLOAD DUP2 LT PUSH2 0x378 JUMPI PUSH2 0x377 PUSH2 0x132B JUMP JUMPDEST JUMPDEST PUSH1 0x20 MUL PUSH1 0x20 ADD ADD MLOAD SWAP1 DUP2 ISZERO MUL SWAP1 PUSH1 0x40 MLOAD PUSH1 0x0 PUSH1 0x40 MLOAD DUP1 DUP4 SUB DUP2 DUP6 DUP9 DUP9 CALL SWAP4 POP POP POP POP ISZERO DUP1 ISZERO PUSH2 0x3AB JUMPI RETURNDATASIZE PUSH1 0x0 DUP1 RETURNDATACOPY RETURNDATASIZE PUSH1 0x0 REVERT JUMPDEST POP DUP1 DUP1 PUSH2 0x3B7 SWAP1 PUSH2 0x1389 JUMP JUMPDEST SWAP2 POP POP PUSH2 0x329 JUMP JUMPDEST POP POP POP POP JUMP JUMPDEST PUSH2 0x3CD PUSH2 0x850 JUMP JUMPDEST PUSH1 0x0 SELFBALANCE SWAP1 POP PUSH1 0x0 DUP2 GT ISZERO PUSH2 0x423 JUMPI DUP2 PUSH20 0xFFFFFFFFFFFFFFFFFFFFFFFFFFFFFFFFFFFFFFFF AND PUSH2 0x8FC DUP3 SWAP1 DUP2 ISZERO MUL SWAP1 PUSH1 0x40 MLOAD PUSH1 0x0 PUSH1 0x40 MLOAD DUP1 DUP4 SUB DUP2 DUP6 DUP9 DUP9 CALL SWAP4 POP POP POP POP ISZERO DUP1 ISZERO PUSH2 0x421 JUMPI RETURNDATASIZE PUSH1 0x0 DUP1 RETURNDATACOPY RETURNDATASIZE PUSH1 0x0 REVERT JUMPDEST POP JUMPDEST POP POP JUMP JUMPDEST PUSH2 0x42F PUSH2 0x850 JUMP JUMPDEST PUSH1 0x0 DUP3 SWAP1 POP PUSH1 0x0 DUP2 PUSH20 0xFFFFFFFFFFFFFFFFFFFFFFFFFFFFFFFFFFFFFFFF AND PUSH4 0x70A08231 ADDRESS PUSH1 0x40 MLOAD DUP3 PUSH4 0xFFFFFFFF AND PUSH1 0xE0 SHL DUP2 MSTORE PUSH1 0x4 ADD PUSH2 0x46F SWAP2 SWAP1 PUSH2 0x1237 JUMP JUMPDEST PUSH1 0x20 PUSH1 0x40 MLOAD DUP1 DUP4 SUB DUP2 DUP7 GAS STATICCALL ISZERO DUP1 ISZERO PUSH2 0x48C JUMPI RETURNDATASIZE PUSH1 0x0 DUP1 RETURNDATACOPY RETURNDATASIZE PUSH1 0x0 REVERT JUMPDEST POP POP POP POP PUSH1 0x40 MLOAD RETURNDATASIZE PUSH1 0x1F NOT PUSH1 0x1F DUP3 ADD AND DUP3 ADD DUP1 PUSH1 0x40 MSTORE POP DUP2 ADD SWAP1 PUSH2 0x4B0 SWAP2 SWAP1 PUSH2 0x13E6 JUMP JUMPDEST SWAP1 POP PUSH1 0x0 DUP2 GT ISZERO PUSH2 0x53B JUMPI DUP2 PUSH20 0xFFFFFFFFFFFFFFFFFFFFFFFFFFFFFFFFFFFFFFFF AND PUSH4 0xA9059CBB DUP5 DUP4 PUSH1 0x40 MLOAD DUP4 PUSH4 0xFFFFFFFF AND PUSH1 0xE0 SHL DUP2 MSTORE PUSH1 0x4 ADD PUSH2 0x4F6 SWAP3 SWAP2 SWAP1 PUSH2 0x1413 JUMP JUMPDEST PUSH1 0x20 PUSH1 0x40 MLOAD DUP1 DUP4 SUB DUP2 PUSH1 0x0 DUP8 GAS CALL ISZERO DUP1 ISZERO PUSH2 0x515 JUMPI RETURNDATASIZE PUSH1 0x0 DUP1 RETURNDATACOPY RETURNDATASIZE PUSH1 0x0 REVERT JUMPDEST POP POP POP POP PUSH1 0x40 MLOAD RETURNDATASIZE PUSH1 0x1F NOT PUSH1 0x1F DUP3 ADD AND DUP3 ADD DUP1 PUSH1 0x40 MSTORE POP DUP2 ADD SWAP1 PUSH2 0x539 SWAP2 SWAP1 PUSH2 0x1474 JUMP JUMPDEST POP JUMPDEST POP POP POP POP JUMP JUMPDEST PUSH1 0x0 GAS SWAP1 POP SWAP1 JUMP JUMPDEST PUSH2 0x551 PUSH2 0x850 JUMP JUMPDEST PUSH2 0x55B PUSH1 0x0 PUSH2 0x8CE JUMP JUMPDEST JUMP JUMPDEST PUSH1 0x0 DUP4 SWAP1 POP PUSH1 0x0 DUP4 MLOAD SWAP1 POP PUSH1 0x0 JUMPDEST DUP2 DUP2 LT ISZERO PUSH2 0x5CB JUMPI PUSH2 0x5B8 DUP6 DUP3 DUP2 MLOAD DUP2 LT PUSH2 0x589 JUMPI PUSH2 0x588 PUSH2 0x132B JUMP JUMPDEST JUMPDEST PUSH1 0x20 MUL PUSH1 0x20 ADD ADD MLOAD DUP6 DUP6 PUSH20 0xFFFFFFFFFFFFFFFFFFFFFFFFFFFFFFFFFFFFFFFF AND PUSH2 0x7CA SWAP1 SWAP3 SWAP2 SWAP1 PUSH4 0xFFFFFFFF AND JUMP JUMPDEST DUP1 DUP1 PUSH2 0x5C3 SWAP1 PUSH2 0x1389 JUMP JUMPDEST SWAP2 POP POP PUSH2 0x56B JUMP JUMPDEST POP POP POP POP POP POP JUMP JUMPDEST PUSH1 0x0 DUP1 PUSH1 0x0 SWAP1 SLOAD SWAP1 PUSH2 0x100 EXP SWAP1 DIV PUSH20 0xFFFFFFFFFFFFFFFFFFFFFFFFFFFFFFFFFFFFFFFF AND SWAP1 POP SWAP1 JUMP JUMPDEST PUSH1 0x0 DUP3 MLOAD SWAP1 POP PUSH2 0x615 DUP3 DUP3 PUSH2 0x992 SWAP1 SWAP2 SWAP1 PUSH4 0xFFFFFFFF AND JUMP JUMPDEST CALLVALUE LT ISZERO PUSH2 0x657 JUMPI PUSH1 0x40 MLOAD PUSH32 0x8C379A000000000000000000000000000000000000000000000000000000000 DUP2 MSTORE PUSH1 0x4 ADD PUSH2 0x64E SWAP1 PUSH2 0x1513 JUMP JUMPDEST PUSH1 0x40 MLOAD DUP1 SWAP2 SUB SWAP1 REVERT JUMPDEST PUSH1 0x0 JUMPDEST DUP2 DUP2 LT ISZERO PUSH2 0x6D6 JUMPI DUP4 DUP2 DUP2 MLOAD DUP2 LT PUSH2 0x675 JUMPI PUSH2 0x674 PUSH2 0x132B JUMP JUMPDEST JUMPDEST PUSH1 0x20 MUL PUSH1 0x20 ADD ADD MLOAD PUSH20 0xFFFFFFFFFFFFFFFFFFFFFFFFFFFFFFFFFFFFFFFF AND PUSH2 0x8FC DUP5 SWAP1 DUP2 ISZERO MUL SWAP1 PUSH1 0x40 MLOAD PUSH1 0x0 PUSH1 0x40 MLOAD DUP1 DUP4 SUB DUP2 DUP6 DUP9 DUP9 CALL SWAP4 POP POP POP POP ISZERO DUP1 ISZERO PUSH2 0x6C2 JUMPI RETURNDATASIZE PUSH1 0x0 DUP1 RETURNDATACOPY RETURNDATASIZE PUSH1 0x0 REVERT JUMPDEST POP DUP1 DUP1 PUSH2 0x6CE SWAP1 PUSH2 0x1389 JUMP JUMPDEST SWAP2 POP POP PUSH2 0x65A JUMP JUMPDEST POP CALLER PUSH20 0xFFFFFFFFFFFFFFFFFFFFFFFFFFFFFFFFFFFFFFFF AND PUSH2 0x8FC PUSH2 0x716 PUSH2 0x707 DUP6 DUP6 PUSH2 0x992 SWAP1 SWAP2 SWAP1 PUSH4 0xFFFFFFFF AND JUMP JUMPDEST CALLVALUE PUSH2 0x9A8 SWAP1 SWAP2 SWAP1 PUSH4 0xFFFFFFFF AND JUMP JUMPDEST SWAP1 DUP2 ISZERO MUL SWAP1 PUSH1 0x40 MLOAD PUSH1 0x0 PUSH1 0x40 MLOAD DUP1 DUP4 SUB DUP2 DUP6 DUP9 DUP9 CALL SWAP4 POP POP POP POP ISZERO DUP1 ISZERO PUSH2 0x741 JUMPI RETURNDATASIZE PUSH1 0x0 DUP1 RETURNDATACOPY RETURNDATASIZE PUSH1 0x0 REVERT JUMPDEST POP POP POP POP JUMP JUMPDEST PUSH2 0x74F PUSH2 0x850 JUMP JUMPDEST PUSH1 0x0 PUSH20 0xFFFFFFFFFFFFFFFFFFFFFFFFFFFFFFFFFFFFFFFF AND DUP2 PUSH20 0xFFFFFFFFFFFFFFFFFFFFFFFFFFFFFFFFFFFFFFFF AND SUB PUSH2 0x7BE JUMPI PUSH1 0x40 MLOAD PUSH32 0x8C379A000000000000000000000000000000000000000000000000000000000 DUP2 MSTORE PUSH1 0x4 ADD PUSH2 0x7B5 SWAP1 PUSH2 0x15A5 JUMP JUMPDEST PUSH1 0x40 MLOAD DUP1 SWAP2 SUB SWAP1 REVERT JUMPDEST PUSH2 0x7C7 DUP2 PUSH2 0x8CE JUMP JUMPDEST POP JUMP JUMPDEST PUSH2 0x84B DUP4 PUSH4 0xA9059CBB PUSH1 0xE0 SHL DUP5 DUP5 PUSH1 0x40 MLOAD PUSH1 0x24 ADD PUSH2 0x7E9 SWAP3 SWAP2 SWAP1 PUSH2 0x1413 JUMP JUMPDEST PUSH1 0x40 MLOAD PUSH1 0x20 DUP2 DUP4 SUB SUB DUP2 MSTORE SWAP1 PUSH1 0x40 MSTORE SWAP1 PUSH28 0xFFFFFFFFFFFFFFFFFFFFFFFFFFFFFFFFFFFFFFFFFFFFFFFFFFFFFFFF NOT AND PUSH1 0x20 DUP3 ADD DUP1 MLOAD PUSH28 0xFFFFFFFFFFFFFFFFFFFFFFFFFFFFFFFFFFFFFFFFFFFFFFFFFFFFFFFF DUP4 DUP2 DUP4 AND OR DUP4 MSTORE POP POP POP POP PUSH2 0x9BE JUMP JUMPDEST POP POP POP JUMP JUMPDEST PUSH2 0x858 PUSH2 0xA85 JUMP JUMPDEST PUSH20 0xFFFFFFFFFFFFFFFFFFFFFFFFFFFFFFFFFFFFFFFF AND PUSH2 0x876 PUSH2 0x5D3 JUMP JUMPDEST PUSH20 0xFFFFFFFFFFFFFFFFFFFFFFFFFFFFFFFFFFFFFFFF AND EQ PUSH2 0x8CC JUMPI PUSH1 0x40 MLOAD PUSH32 0x8C379A000000000000000000000000000000000000000000000000000000000 DUP2 MSTORE PUSH1 0x4 ADD PUSH2 0x8C3 SWAP1 PUSH2 0x1611 JUMP JUMPDEST PUSH1 0x40 MLOAD DUP1 SWAP2 SUB SWAP1 REVERT JUMPDEST JUMP JUMPDEST PUSH1 0x0 DUP1 PUSH1 0x0 SWAP1 SLOAD SWAP1 PUSH2 0x100 EXP SWAP1 DIV PUSH20 0xFFFFFFFFFFFFFFFFFFFFFFFFFFFFFFFFFFFFFFFF AND SWAP1 POP DUP2 PUSH1 0x0 DUP1 PUSH2 0x100 EXP DUP2 SLOAD DUP2 PUSH20 0xFFFFFFFFFFFFFFFFFFFFFFFFFFFFFFFFFFFFFFFF MUL NOT AND SWAP1 DUP4 PUSH20 0xFFFFFFFFFFFFFFFFFFFFFFFFFFFFFFFFFFFFFFFF AND MUL OR SWAP1 SSTORE POP DUP2 PUSH20 0xFFFFFFFFFFFFFFFFFFFFFFFFFFFFFFFFFFFFFFFF AND DUP2 PUSH20 0xFFFFFFFFFFFFFFFFFFFFFFFFFFFFFFFFFFFFFFFF AND PUSH32 0x8BE0079C531659141344CD1FD0A4F28419497F9722A3DAAFE3B4186F6B6457E0 PUSH1 0x40 MLOAD PUSH1 0x40 MLOAD DUP1 SWAP2 SUB SWAP1 LOG3 POP POP JUMP JUMPDEST PUSH1 0x0 DUP2 DUP4 PUSH2 0x9A0 SWAP2 SWAP1 PUSH2 0x1631 JUMP JUMPDEST SWAP1 POP SWAP3 SWAP2 POP POP JUMP JUMPDEST PUSH1 0x0 DUP2 DUP4 PUSH2 0x9B6 SWAP2 SWAP1 PUSH2 0x1673 JUMP JUMPDEST SWAP1 POP SWAP3 SWAP2 POP POP JUMP JUMPDEST PUSH1 0x0 PUSH2 0xA20 DUP3 PUSH1 0x40 MLOAD DUP1 PUSH1 0x40 ADD PUSH1 0x40 MSTORE DUP1 PUSH1 0x20 DUP2 MSTORE PUSH1 0x20 ADD PUSH32 0x5361666545524332303A206C6F772D6C6576656C2063616C6C206661696C6564 DUP2 MSTORE POP DUP6 PUSH20 0xFFFFFFFFFFFFFFFFFFFFFFFFFFFFFFFFFFFFFFFF AND PUSH2 0xA8D SWAP1 SWAP3 SWAP2 SWAP1 PUSH4 0xFFFFFFFF AND JUMP JUMPDEST SWAP1 POP PUSH1 0x0 DUP2 MLOAD GT ISZERO PUSH2 0xA80 JUMPI DUP1 DUP1 PUSH1 0x20 ADD SWAP1 MLOAD DUP2 ADD SWAP1 PUSH2 0xA40 SWAP2 SWAP1 PUSH2 0x1474 JUMP JUMPDEST PUSH2 0xA7F JUMPI PUSH1 0x40 MLOAD PUSH32 0x8C379A000000000000000000000000000000000000000000000000000000000 DUP2 MSTORE PUSH1 0x4 ADD PUSH2 0xA76 SWAP1 PUSH2 0x1719 JUMP JUMPDEST PUSH1 0x40 MLOAD DUP1 SWAP2 SUB SWAP1 REVERT JUMPDEST JUMPDEST POP POP POP JUMP JUMPDEST PUSH1 0x0 CALLER SWAP1 POP SWAP1 JUMP JUMPDEST PUSH1 0x60 PUSH2 0xA9C DUP5 DUP5 PUSH1 0x0 DUP6 PUSH2 0xAA5 JUMP JUMPDEST SWAP1 POP SWAP4 SWAP3 POP POP POP JUMP JUMPDEST PUSH1 0x60 DUP3 SELFBALANCE LT ISZERO PUSH2 0xAEA JUMPI PUSH1 0x40 MLOAD PUSH32 0x8C379A000000000000000000000000000000000000000000000000000000000 DUP2 MSTORE PUSH1 0x4 ADD PUSH2 0xAE1 SWAP1 PUSH2 0x17AB JUMP JUMPDEST PUSH1 0x40 MLOAD DUP1 SWAP2 SUB SWAP1 REVERT JUMPDEST PUSH1 0x0 DUP1 DUP7 PUSH20 0xFFFFFFFFFFFFFFFFFFFFFFFFFFFFFFFFFFFFFFFF AND DUP6 DUP8 PUSH1 0x40 MLOAD PUSH2 0xB13 SWAP2 SWAP1 PUSH2 0x183C JUMP JUMPDEST PUSH1 0x0 PUSH1 0x40 MLOAD DUP1 DUP4 SUB DUP2 DUP6 DUP8 GAS CALL SWAP3 POP POP POP RETURNDATASIZE DUP1 PUSH1 0x0 DUP2 EQ PUSH2 0xB50 JUMPI PUSH1 0x40 MLOAD SWAP2 POP PUSH1 0x1F NOT PUSH1 0x3F RETURNDATASIZE ADD AND DUP3 ADD PUSH1 0x40 MSTORE RETURNDATASIZE DUP3 MSTORE RETURNDATASIZE PUSH1 0x0 PUSH1 0x20 DUP5 ADD RETURNDATACOPY PUSH2 0xB55 JUMP JUMPDEST PUSH1 0x60 SWAP2 POP JUMPDEST POP SWAP2 POP SWAP2 POP PUSH2 0xB66 DUP8 DUP4 DUP4 DUP8 PUSH2 0xB72 JUMP JUMPDEST SWAP3 POP POP POP SWAP5 SWAP4 POP POP POP POP JUMP JUMPDEST PUSH1 0x60 DUP4 ISZERO PUSH2 0xBD4 JUMPI PUSH1 0x0 DUP4 MLOAD SUB PUSH2 0xBCC JUMPI PUSH2 0xB8C DUP6 PUSH2 0xBE7 JUMP JUMPDEST PUSH2 0xBCB JUMPI PUSH1 0x40 MLOAD PUSH32 0x8C379A000000000000000000000000000000000000000000000000000000000 DUP2 MSTORE PUSH1 0x4 ADD PUSH2 0xBC2 SWAP1 PUSH2 0x189F JUMP JUMPDEST PUSH1 0x40 MLOAD DUP1 SWAP2 SUB SWAP1 REVERT JUMPDEST JUMPDEST DUP3 SWAP1 POP PUSH2 0xBDF JUMP JUMPDEST PUSH2 0xBDE DUP4 DUP4 PUSH2 0xC0A JUMP JUMPDEST JUMPDEST SWAP5 SWAP4 POP POP POP POP JUMP JUMPDEST PUSH1 0x0 DUP1 DUP3 PUSH20 0xFFFFFFFFFFFFFFFFFFFFFFFFFFFFFFFFFFFFFFFF AND EXTCODESIZE GT SWAP1 POP SWAP2 SWAP1 POP JUMP JUMPDEST PUSH1 0x0 DUP3 MLOAD GT ISZERO PUSH2 0xC1D JUMPI DUP2 MLOAD DUP1 DUP4 PUSH1 0x20 ADD REVERT JUMPDEST DUP1 PUSH1 0x40 MLOAD PUSH32 0x8C379A000000000000000000000000000000000000000000000000000000000 DUP2 MSTORE PUSH1 0x4 ADD PUSH2 0xC51 SWAP2 SWAP1 PUSH2 0x1903 JUMP JUMPDEST PUSH1 0x40 MLOAD DUP1 SWAP2 SUB SWAP1 REVERT JUMPDEST PUSH1 0x0 PUSH1 0x40 MLOAD SWAP1 POP SWAP1 JUMP JUMPDEST PUSH1 0x0 DUP1 REVERT JUMPDEST PUSH1 0x0 DUP1 REVERT JUMPDEST PUSH1 0x0 PUSH20 0xFFFFFFFFFFFFFFFFFFFFFFFFFFFFFFFFFFFFFFFF DUP3 AND SWAP1 POP SWAP2 SWAP1 POP JUMP JUMPDEST PUSH1 0x0 PUSH2 0xC99 DUP3 PUSH2 0xC6E JUMP JUMPDEST SWAP1 POP SWAP2 SWAP1 POP JUMP JUMPDEST PUSH2 0xCA9 DUP2 PUSH2 0xC8E JUMP JUMPDEST DUP2 EQ PUSH2 0xCB4 JUMPI PUSH1 0x0 DUP1 REVERT JUMPDEST POP JUMP JUMPDEST PUSH1 0x0 DUP2 CALLDATALOAD SWAP1 POP PUSH2 0xCC6 DUP2 PUSH2 0xCA0 JUMP JUMPDEST SWAP3 SWAP2 POP POP JUMP JUMPDEST PUSH1 0x0 DUP1 REVERT JUMPDEST PUSH1 0x0 PUSH1 0x1F NOT PUSH1 0x1F DUP4 ADD AND SWAP1 POP SWAP2 SWAP1 POP JUMP JUMPDEST PUSH32 0x4E487B7100000000000000000000000000000000000000000000000000000000 PUSH1 0x0 MSTORE PUSH1 0x41 PUSH1 0x4 MSTORE PUSH1 0x24 PUSH1 0x0 REVERT JUMPDEST PUSH2 0xD1A DUP3 PUSH2 0xCD1 JUMP JUMPDEST DUP2 ADD DUP2 DUP2 LT PUSH8 0xFFFFFFFFFFFFFFFF DUP3 GT OR ISZERO PUSH2 0xD39 JUMPI PUSH2 0xD38 PUSH2 0xCE2 JUMP JUMPDEST JUMPDEST DUP1 PUSH1 0x40 MSTORE POP POP POP JUMP JUMPDEST PUSH1 0x0 PUSH2 0xD4C PUSH2 0xC5A JUMP JUMPDEST SWAP1 POP PUSH2 0xD58 DUP3 DUP3 PUSH2 0xD11 JUMP JUMPDEST SWAP2 SWAP1 POP JUMP JUMPDEST PUSH1 0x0 PUSH8 0xFFFFFFFFFFFFFFFF DUP3 GT ISZERO PUSH2 0xD78 JUMPI PUSH2 0xD77 PUSH2 0xCE2 JUMP JUMPDEST JUMPDEST PUSH1 0x20 DUP3 MUL SWAP1 POP PUSH1 0x20 DUP2 ADD SWAP1 POP SWAP2 SWAP1 POP JUMP JUMPDEST PUSH1 0x0 DUP1 REVERT JUMPDEST PUSH1 0x0 PUSH2 0xDA1 PUSH2 0xD9C DUP5 PUSH2 0xD5D JUMP JUMPDEST PUSH2 0xD42 JUMP JUMPDEST SWAP1 POP DUP1 DUP4 DUP3 MSTORE PUSH1 0x20 DUP3 ADD SWAP1 POP PUSH1 0x20 DUP5 MUL DUP4 ADD DUP6 DUP2 GT ISZERO PUSH2 0xDC4 JUMPI PUSH2 0xDC3 PUSH2 0xD89 JUMP JUMPDEST JUMPDEST DUP4 JUMPDEST DUP2 DUP2 LT ISZERO PUSH2 0xDED JUMPI DUP1 PUSH2 0xDD9 DUP9 DUP3 PUSH2 0xCB7 JUMP JUMPDEST DUP5 MSTORE PUSH1 0x20 DUP5 ADD SWAP4 POP POP PUSH1 0x20 DUP2 ADD SWAP1 POP PUSH2 0xDC6 JUMP JUMPDEST POP POP POP SWAP4 SWAP3 POP POP POP JUMP JUMPDEST PUSH1 0x0 DUP3 PUSH1 0x1F DUP4 ADD SLT PUSH2 0xE0C JUMPI PUSH2 0xE0B PUSH2 0xCCC JUMP JUMPDEST JUMPDEST DUP2 CALLDATALOAD PUSH2 0xE1C DUP5 DUP3 PUSH1 0x20 DUP7 ADD PUSH2 0xD8E JUMP JUMPDEST SWAP2 POP POP SWAP3 SWAP2 POP POP JUMP JUMPDEST PUSH1 0x0 PUSH8 0xFFFFFFFFFFFFFFFF DUP3 GT ISZERO PUSH2 0xE40 JUMPI PUSH2 0xE3F PUSH2 0xCE2 JUMP JUMPDEST JUMPDEST PUSH1 0x20 DUP3 MUL SWAP1 POP PUSH1 0x20 DUP2 ADD SWAP1 POP SWAP2 SWAP1 POP JUMP JUMPDEST PUSH1 0x0 DUP2 SWAP1 POP SWAP2 SWAP1 POP JUMP JUMPDEST PUSH2 0xE64 DUP2 PUSH2 0xE51 JUMP JUMPDEST DUP2 EQ PUSH2 0xE6F JUMPI PUSH1 0x0 DUP1 REVERT JUMPDEST POP JUMP JUMPDEST PUSH1 0x0 DUP2 CALLDATALOAD SWAP1 POP PUSH2 0xE81 DUP2 PUSH2 0xE5B JUMP JUMPDEST SWAP3 SWAP2 POP POP JUMP JUMPDEST PUSH1 0x0 PUSH2 0xE9A PUSH2 0xE95 DUP5 PUSH2 0xE25 JUMP JUMPDEST PUSH2 0xD42 JUMP JUMPDEST SWAP1 POP DUP1 DUP4 DUP3 MSTORE PUSH1 0x20 DUP3 ADD SWAP1 POP PUSH1 0x20 DUP5 MUL DUP4 ADD DUP6 DUP2 GT ISZERO PUSH2 0xEBD JUMPI PUSH2 0xEBC PUSH2 0xD89 JUMP JUMPDEST JUMPDEST DUP4 JUMPDEST DUP2 DUP2 LT ISZERO PUSH2 0xEE6 JUMPI DUP1 PUSH2 0xED2 DUP9 DUP3 PUSH2 0xE72 JUMP JUMPDEST DUP5 MSTORE PUSH1 0x20 DUP5 ADD SWAP4 POP POP PUSH1 0x20 DUP2 ADD SWAP1 POP PUSH2 0xEBF JUMP JUMPDEST POP POP POP SWAP4 SWAP3 POP POP POP JUMP JUMPDEST PUSH1 0x0 DUP3 PUSH1 0x1F DUP4 ADD SLT PUSH2 0xF05 JUMPI PUSH2 0xF04 PUSH2 0xCCC JUMP JUMPDEST JUMPDEST DUP2 CALLDATALOAD PUSH2 0xF15 DUP5 DUP3 PUSH1 0x20 DUP7 ADD PUSH2 0xE87 JUMP JUMPDEST SWAP2 POP POP SWAP3 SWAP2 POP POP JUMP JUMPDEST PUSH1 0x0 DUP1 PUSH1 0x0 PUSH1 0x60 DUP5 DUP7 SUB SLT ISZERO PUSH2 0xF37 JUMPI PUSH2 0xF36 PUSH2 0xC64 JUMP JUMPDEST JUMPDEST PUSH1 0x0 PUSH2 0xF45 DUP7 DUP3 DUP8 ADD PUSH2 0xCB7 JUMP JUMPDEST SWAP4 POP POP PUSH1 0x20 DUP5 ADD CALLDATALOAD PUSH8 0xFFFFFFFFFFFFFFFF DUP2 GT ISZERO PUSH2 0xF66 JUMPI PUSH2 0xF65 PUSH2 0xC69 JUMP JUMPDEST JUMPDEST PUSH2 0xF72 DUP7 DUP3 DUP8 ADD PUSH2 0xDF7 JUMP JUMPDEST SWAP3 POP POP PUSH1 0x40 DUP5 ADD CALLDATALOAD PUSH8 0xFFFFFFFFFFFFFFFF DUP2 GT ISZERO PUSH2 0xF93 JUMPI PUSH2 0xF92 PUSH2 0xC69 JUMP JUMPDEST JUMPDEST PUSH2 0xF9F DUP7 DUP3 DUP8 ADD PUSH2 0xEF0 JUMP JUMPDEST SWAP2 POP POP SWAP3 POP SWAP3 POP SWAP3 JUMP JUMPDEST PUSH1 0x0 PUSH8 0xFFFFFFFFFFFFFFFF DUP3 GT ISZERO PUSH2 0xFC4 JUMPI PUSH2 0xFC3 PUSH2 0xCE2 JUMP JUMPDEST JUMPDEST PUSH1 0x20 DUP3 MUL SWAP1 POP PUSH1 0x20 DUP2 ADD SWAP1 POP SWAP2 SWAP1 POP JUMP JUMPDEST PUSH1 0x0 PUSH2 0xFE0 DUP3 PUSH2 0xC6E JUMP JUMPDEST SWAP1 POP SWAP2 SWAP1 POP JUMP JUMPDEST PUSH2 0xFF0 DUP2 PUSH2 0xFD5 JUMP JUMPDEST DUP2 EQ PUSH2 0xFFB JUMPI PUSH1 0x0 DUP1 REVERT JUMPDEST POP JUMP JUMPDEST PUSH1 0x0 DUP2 CALLDATALOAD SWAP1 POP PUSH2 0x100D DUP2 PUSH2 0xFE7 JUMP JUMPDEST SWAP3 SWAP2 POP POP JUMP JUMPDEST PUSH1 0x0 PUSH2 0x1026 PUSH2 0x1021 DUP5 PUSH2 0xFA9 JUMP JUMPDEST PUSH2 0xD42 JUMP JUMPDEST SWAP1 POP DUP1 DUP4 DUP3 MSTORE PUSH1 0x20 DUP3 ADD SWAP1 POP PUSH1 0x20 DUP5 MUL DUP4 ADD DUP6 DUP2 GT ISZERO PUSH2 0x1049 JUMPI PUSH2 0x1048 PUSH2 0xD89 JUMP JUMPDEST JUMPDEST DUP4 JUMPDEST DUP2 DUP2 LT ISZERO PUSH2 0x1072 JUMPI DUP1 PUSH2 0x105E DUP9 DUP3 PUSH2 0xFFE JUMP JUMPDEST DUP5 MSTORE PUSH1 0x20 DUP5 ADD SWAP4 POP POP PUSH1 0x20 DUP2 ADD SWAP1 POP PUSH2 0x104B JUMP JUMPDEST POP POP POP SWAP4 SWAP3 POP POP POP JUMP JUMPDEST PUSH1 0x0 DUP3 PUSH1 0x1F DUP4 ADD SLT PUSH2 0x1091 JUMPI PUSH2 0x1090 PUSH2 0xCCC JUMP JUMPDEST JUMPDEST DUP2 CALLDATALOAD PUSH2 0x10A1 DUP5 DUP3 PUSH1 0x20 DUP7 ADD PUSH2 0x1013 JUMP JUMPDEST SWAP2 POP POP SWAP3 SWAP2 POP POP JUMP JUMPDEST PUSH1 0x0 DUP1 PUSH1 0x40 DUP4 DUP6 SUB SLT ISZERO PUSH2 0x10C1 JUMPI PUSH2 0x10C0 PUSH2 0xC64 JUMP JUMPDEST JUMPDEST PUSH1 0x0 DUP4 ADD CALLDATALOAD PUSH8 0xFFFFFFFFFFFFFFFF DUP2 GT ISZERO PUSH2 0x10DF JUMPI PUSH2 0x10DE PUSH2 0xC69 JUMP JUMPDEST JUMPDEST PUSH2 0x10EB DUP6 DUP3 DUP7 ADD PUSH2 0x107C JUMP JUMPDEST SWAP3 POP POP PUSH1 0x20 DUP4 ADD CALLDATALOAD PUSH8 0xFFFFFFFFFFFFFFFF DUP2 GT ISZERO PUSH2 0x110C JUMPI PUSH2 0x110B PUSH2 0xC69 JUMP JUMPDEST JUMPDEST PUSH2 0x1118 DUP6 DUP3 DUP7 ADD PUSH2 0xEF0 JUMP JUMPDEST SWAP2 POP POP SWAP3 POP SWAP3 SWAP1 POP JUMP JUMPDEST PUSH1 0x0 PUSH1 0x20 DUP3 DUP5 SUB SLT ISZERO PUSH2 0x1138 JUMPI PUSH2 0x1137 PUSH2 0xC64 JUMP JUMPDEST JUMPDEST PUSH1 0x0 PUSH2 0x1146 DUP5 DUP3 DUP6 ADD PUSH2 0xCB7 JUMP JUMPDEST SWAP2 POP POP SWAP3 SWAP2 POP POP JUMP JUMPDEST PUSH1 0x0 DUP1 PUSH1 0x40 DUP4 DUP6 SUB SLT ISZERO PUSH2 0x1166 JUMPI PUSH2 0x1165 PUSH2 0xC64 JUMP JUMPDEST JUMPDEST PUSH1 0x0 PUSH2 0x1174 DUP6 DUP3 DUP7 ADD PUSH2 0xCB7 JUMP JUMPDEST SWAP3 POP POP PUSH1 0x20 PUSH2 0x1185 DUP6 DUP3 DUP7 ADD PUSH2 0xCB7 JUMP JUMPDEST SWAP2 POP POP SWAP3 POP SWAP3 SWAP1 POP JUMP JUMPDEST PUSH2 0x1198 DUP2 PUSH2 0xE51 JUMP JUMPDEST DUP3 MSTORE POP POP JUMP JUMPDEST PUSH1 0x0 PUSH1 0x20 DUP3 ADD SWAP1 POP PUSH2 0x11B3 PUSH1 0x0 DUP4 ADD DUP5 PUSH2 0x118F JUMP JUMPDEST SWAP3 SWAP2 POP POP JUMP JUMPDEST PUSH1 0x0 DUP1 PUSH1 0x0 PUSH1 0x60 DUP5 DUP7 SUB SLT ISZERO PUSH2 0x11D2 JUMPI PUSH2 0x11D1 PUSH2 0xC64 JUMP JUMPDEST JUMPDEST PUSH1 0x0 PUSH2 0x11E0 DUP7 DUP3 DUP8 ADD PUSH2 0xCB7 JUMP JUMPDEST SWAP4 POP POP PUSH1 0x20 DUP5 ADD CALLDATALOAD PUSH8 0xFFFFFFFFFFFFFFFF DUP2 GT ISZERO PUSH2 0x1201 JUMPI PUSH2 0x1200 PUSH2 0xC69 JUMP JUMPDEST JUMPDEST PUSH2 0x120D DUP7 DUP3 DUP8 ADD PUSH2 0xDF7 JUMP JUMPDEST SWAP3 POP POP PUSH1 0x40 PUSH2 0x121E DUP7 DUP3 DUP8 ADD PUSH2 0xE72 JUMP JUMPDEST SWAP2 POP POP SWAP3 POP SWAP3 POP SWAP3 JUMP JUMPDEST PUSH2 0x1231 DUP2 PUSH2 0xC8E JUMP JUMPDEST DUP3 MSTORE POP POP JUMP JUMPDEST PUSH1 0x0 PUSH1 0x20 DUP3 ADD SWAP1 POP PUSH2 0x124C PUSH1 0x0 DUP4 ADD DUP5 PUSH2 0x1228 JUMP JUMPDEST SWAP3 SWAP2 POP POP JUMP JUMPDEST PUSH1 0x0 DUP1 PUSH1 0x40 DUP4 DUP6 SUB SLT ISZERO PUSH2 0x1269 JUMPI PUSH2 0x1268 PUSH2 0xC64 JUMP JUMPDEST JUMPDEST PUSH1 0x0 DUP4 ADD CALLDATALOAD PUSH8 0xFFFFFFFFFFFFFFFF DUP2 GT ISZERO PUSH2 0x1287 JUMPI PUSH2 0x1286 PUSH2 0xC69 JUMP JUMPDEST JUMPDEST PUSH2 0x1293 DUP6 DUP3 DUP7 ADD PUSH2 0x107C JUMP JUMPDEST SWAP3 POP POP PUSH1 0x20 PUSH2 0x12A4 DUP6 DUP3 DUP7 ADD PUSH2 0xE72 JUMP JUMPDEST SWAP2 POP POP SWAP3 POP SWAP3 SWAP1 POP JUMP JUMPDEST PUSH1 0x0 DUP3 DUP3 MSTORE PUSH1 0x20 DUP3 ADD SWAP1 POP SWAP3 SWAP2 POP POP JUMP JUMPDEST PUSH32 0x5472616E73666572206C656E677468206572726F720000000000000000000000 PUSH1 0x0 DUP3 ADD MSTORE POP JUMP JUMPDEST PUSH1 0x0 PUSH2 0x12F5 PUSH1 0x15 DUP4 PUSH2 0x12AE JUMP JUMPDEST SWAP2 POP PUSH2 0x1300 DUP3 PUSH2 0x12BF JUMP JUMPDEST PUSH1 0x20 DUP3 ADD SWAP1 POP SWAP2 SWAP1 POP JUMP JUMPDEST PUSH1 0x0 PUSH1 0x20 DUP3 ADD SWAP1 POP DUP2 DUP2 SUB PUSH1 0x0 DUP4 ADD MSTORE PUSH2 0x1324 DUP2 PUSH2 0x12E8 JUMP JUMPDEST SWAP1 POP SWAP2 SWAP1 POP JUMP JUMPDEST PUSH32 0x4E487B7100000000000000000000000000000000000000000000000000000000 PUSH1 0x0 MSTORE PUSH1 0x32 PUSH1 0x4 MSTORE PUSH1 0x24 PUSH1 0x0 REVERT JUMPDEST PUSH32 0x4E487B7100000000000000000000000000000000000000000000000000000000 PUSH1 0x0 MSTORE PUSH1 0x11 PUSH1 0x4 MSTORE PUSH1 0x24 PUSH1 0x0 REVERT JUMPDEST PUSH1 0x0 PUSH2 0x1394 DUP3 PUSH2 0xE51 JUMP JUMPDEST SWAP2 POP PUSH32 0xFFFFFFFFFFFFFFFFFFFFFFFFFFFFFFFFFFFFFFFFFFFFFFFFFFFFFFFFFFFFFFFF DUP3 SUB PUSH2 0x13C6 JUMPI PUSH2 0x13C5 PUSH2 0x135A JUMP JUMPDEST JUMPDEST PUSH1 0x1 DUP3 ADD SWAP1 POP SWAP2 SWAP1 POP JUMP JUMPDEST PUSH1 0x0 DUP2 MLOAD SWAP1 POP PUSH2 0x13E0 DUP2 PUSH2 0xE5B JUMP JUMPDEST SWAP3 SWAP2 POP POP JUMP JUMPDEST PUSH1 0x0 PUSH1 0x20 DUP3 DUP5 SUB SLT ISZERO PUSH2 0x13FC JUMPI PUSH2 0x13FB PUSH2 0xC64 JUMP JUMPDEST JUMPDEST PUSH1 0x0 PUSH2 0x140A DUP5 DUP3 DUP6 ADD PUSH2 0x13D1 JUMP JUMPDEST SWAP2 POP POP SWAP3 SWAP2 POP POP JUMP JUMPDEST PUSH1 0x0 PUSH1 0x40 DUP3 ADD SWAP1 POP PUSH2 0x1428 PUSH1 0x0 DUP4 ADD DUP6 PUSH2 0x1228 JUMP JUMPDEST PUSH2 0x1435 PUSH1 0x20 DUP4 ADD DUP5 PUSH2 0x118F JUMP JUMPDEST SWAP4 SWAP3 POP POP POP JUMP JUMPDEST PUSH1 0x0 DUP2 ISZERO ISZERO SWAP1 POP SWAP2 SWAP1 POP JUMP JUMPDEST PUSH2 0x1451 DUP2 PUSH2 0x143C JUMP JUMPDEST DUP2 EQ PUSH2 0x145C JUMPI PUSH1 0x0 DUP1 REVERT JUMPDEST POP JUMP JUMPDEST PUSH1 0x0 DUP2 MLOAD SWAP1 POP PUSH2 0x146E DUP2 PUSH2 0x1448 JUMP JUMPDEST SWAP3 SWAP2 POP POP JUMP JUMPDEST PUSH1 0x0 PUSH1 0x20 DUP3 DUP5 SUB SLT ISZERO PUSH2 0x148A JUMPI PUSH2 0x1489 PUSH2 0xC64 JUMP JUMPDEST JUMPDEST PUSH1 0x0 PUSH2 0x1498 DUP5 DUP3 DUP6 ADD PUSH2 0x145F JUMP JUMPDEST SWAP2 POP POP SWAP3 SWAP2 POP POP JUMP JUMPDEST PUSH32 0x42756C6B5472616E736665723A2054686520666565206973206E6F7420656E6F PUSH1 0x0 DUP3 ADD MSTORE PUSH32 0x75676820746F207472616E736665720000000000000000000000000000000000 PUSH1 0x20 DUP3 ADD MSTORE POP JUMP JUMPDEST PUSH1 0x0 PUSH2 0x14FD PUSH1 0x2F DUP4 PUSH2 0x12AE JUMP JUMPDEST SWAP2 POP PUSH2 0x1508 DUP3 PUSH2 0x14A1 JUMP JUMPDEST PUSH1 0x40 DUP3 ADD SWAP1 POP SWAP2 SWAP1 POP JUMP JUMPDEST PUSH1 0x0 PUSH1 0x20 DUP3 ADD SWAP1 POP DUP2 DUP2 SUB PUSH1 0x0 DUP4 ADD MSTORE PUSH2 0x152C DUP2 PUSH2 0x14F0 JUMP JUMPDEST SWAP1 POP SWAP2 SWAP1 POP JUMP JUMPDEST PUSH32 0x4F776E61626C653A206E6577206F776E657220697320746865207A65726F2061 PUSH1 0x0 DUP3 ADD MSTORE PUSH32 0x6464726573730000000000000000000000000000000000000000000000000000 PUSH1 0x20 DUP3 ADD MSTORE POP JUMP JUMPDEST PUSH1 0x0 PUSH2 0x158F PUSH1 0x26 DUP4 PUSH2 0x12AE JUMP JUMPDEST SWAP2 POP PUSH2 0x159A DUP3 PUSH2 0x1533 JUMP JUMPDEST PUSH1 0x40 DUP3 ADD SWAP1 POP SWAP2 SWAP1 POP JUMP JUMPDEST PUSH1 0x0 PUSH1 0x20 DUP3 ADD SWAP1 POP DUP2 DUP2 SUB PUSH1 0x0 DUP4 ADD MSTORE PUSH2 0x15BE DUP2 PUSH2 0x1582 JUMP JUMPDEST SWAP1 POP SWAP2 SWAP1 POP JUMP JUMPDEST PUSH32 0x4F776E61626C653A2063616C6C6572206973206E6F7420746865206F776E6572 PUSH1 0x0 DUP3 ADD MSTORE POP JUMP JUMPDEST PUSH1 0x0 PUSH2 0x15FB PUSH1 0x20 DUP4 PUSH2 0x12AE JUMP JUMPDEST SWAP2 POP PUSH2 0x1606 DUP3 PUSH2 0x15C5 JUMP JUMPDEST PUSH1 0x20 DUP3 ADD SWAP1 POP SWAP2 SWAP1 POP JUMP JUMPDEST PUSH1 0x0 PUSH1 0x20 DUP3 ADD SWAP1 POP DUP2 DUP2 SUB PUSH1 0x0 DUP4 ADD MSTORE PUSH2 0x162A DUP2 PUSH2 0x15EE JUMP JUMPDEST SWAP1 POP SWAP2 SWAP1 POP JUMP JUMPDEST PUSH1 0x0 PUSH2 0x163C DUP3 PUSH2 0xE51 JUMP JUMPDEST SWAP2 POP PUSH2 0x1647 DUP4 PUSH2 0xE51 JUMP JUMPDEST SWAP3 POP DUP3 DUP3 MUL PUSH2 0x1655 DUP2 PUSH2 0xE51 JUMP JUMPDEST SWAP2 POP DUP3 DUP3 DIV DUP5 EQ DUP4 ISZERO OR PUSH2 0x166C JUMPI PUSH2 0x166B PUSH2 0x135A JUMP JUMPDEST JUMPDEST POP SWAP3 SWAP2 POP POP JUMP JUMPDEST PUSH1 0x0 PUSH2 0x167E DUP3 PUSH2 0xE51 JUMP JUMPDEST SWAP2 POP PUSH2 0x1689 DUP4 PUSH2 0xE51 JUMP JUMPDEST SWAP3 POP DUP3 DUP3 SUB SWAP1 POP DUP2 DUP2 GT ISZERO PUSH2 0x16A1 JUMPI PUSH2 0x16A0 PUSH2 0x135A JUMP JUMPDEST JUMPDEST SWAP3 SWAP2 POP POP JUMP JUMPDEST PUSH32 0x5361666545524332303A204552433230206F7065726174696F6E20646964206E PUSH1 0x0 DUP3 ADD MSTORE PUSH32 0x6F74207375636365656400000000000000000000000000000000000000000000 PUSH1 0x20 DUP3 ADD MSTORE POP JUMP JUMPDEST PUSH1 0x0 PUSH2 0x1703 PUSH1 0x2A DUP4 PUSH2 0x12AE JUMP JUMPDEST SWAP2 POP PUSH2 0x170E DUP3 PUSH2 0x16A7 JUMP JUMPDEST PUSH1 0x40 DUP3 ADD SWAP1 POP SWAP2 SWAP1 POP JUMP JUMPDEST PUSH1 0x0 PUSH1 0x20 DUP3 ADD SWAP1 POP DUP2 DUP2 SUB PUSH1 0x0 DUP4 ADD MSTORE PUSH2 0x1732 DUP2 PUSH2 0x16F6 JUMP JUMPDEST SWAP1 POP SWAP2 SWAP1 POP JUMP JUMPDEST PUSH32 0x416464726573733A20696E73756666696369656E742062616C616E636520666F PUSH1 0x0 DUP3 ADD MSTORE PUSH32 0x722063616C6C0000000000000000000000000000000000000000000000000000 PUSH1 0x20 DUP3 ADD MSTORE POP JUMP JUMPDEST PUSH1 0x0 PUSH2 0x1795 PUSH1 0x26 DUP4 PUSH2 0x12AE JUMP JUMPDEST SWAP2 POP PUSH2 0x17A0 DUP3 PUSH2 0x1739 JUMP JUMPDEST PUSH1 0x40 DUP3 ADD SWAP1 POP SWAP2 SWAP1 POP JUMP JUMPDEST PUSH1 0x0 PUSH1 0x20 DUP3 ADD SWAP1 POP DUP2 DUP2 SUB PUSH1 0x0 DUP4 ADD MSTORE PUSH2 0x17C4 DUP2 PUSH2 0x1788 JUMP JUMPDEST SWAP1 POP SWAP2 SWAP1 POP JUMP JUMPDEST PUSH1 0x0 DUP2 MLOAD SWAP1 POP SWAP2 SWAP1 POP JUMP JUMPDEST PUSH1 0x0 DUP2 SWAP1 POP SWAP3 SWAP2 POP POP JUMP JUMPDEST PUSH1 0x0 JUMPDEST DUP4 DUP2 LT ISZERO PUSH2 0x17FF JUMPI DUP1 DUP3 ADD MLOAD DUP2 DUP5 ADD MSTORE PUSH1 0x20 DUP2 ADD SWAP1 POP PUSH2 0x17E4 JUMP JUMPDEST PUSH1 0x0 DUP5 DUP5 ADD MSTORE POP POP POP POP JUMP JUMPDEST PUSH1 0x0 PUSH2 0x1816 DUP3 PUSH2 0x17CB JUMP JUMPDEST PUSH2 0x1820 DUP2 DUP6 PUSH2 0x17D6 JUMP JUMPDEST SWAP4 POP PUSH2 0x1830 DUP2 DUP6 PUSH1 0x20 DUP7 ADD PUSH2 0x17E1 JUMP JUMPDEST DUP1 DUP5 ADD SWAP2 POP POP SWAP3 SWAP2 POP POP JUMP JUMPDEST PUSH1 0x0 PUSH2 0x1848 DUP3 DUP5 PUSH2 0x180B JUMP JUMPDEST SWAP2 POP DUP2 SWAP1 POP SWAP3 SWAP2 POP POP JUMP JUMPDEST PUSH32 0x416464726573733A2063616C6C20746F206E6F6E2D636F6E7472616374000000 PUSH1 0x0 DUP3 ADD MSTORE POP JUMP JUMPDEST PUSH1 0x0 PUSH2 0x1889 PUSH1 0x1D DUP4 PUSH2 0x12AE JUMP JUMPDEST SWAP2 POP PUSH2 0x1894 DUP3 PUSH2 0x1853 JUMP JUMPDEST PUSH1 0x20 DUP3 ADD SWAP1 POP SWAP2 SWAP1 POP JUMP JUMPDEST PUSH1 0x0 PUSH1 0x20 DUP3 ADD SWAP1 POP DUP2 DUP2 SUB PUSH1 0x0 DUP4 ADD MSTORE PUSH2 0x18B8 DUP2 PUSH2 0x187C JUMP JUMPDEST SWAP1 POP SWAP2 SWAP1 POP JUMP JUMPDEST PUSH1 0x0 DUP2 MLOAD SWAP1 POP SWAP2 SWAP1 POP JUMP JUMPDEST PUSH1 0x0 PUSH2 0x18D5 DUP3 PUSH2 0x18BF JUMP JUMPDEST PUSH2 0x18DF DUP2 DUP6 PUSH2 0x12AE JUMP JUMPDEST SWAP4 POP PUSH2 0x18EF DUP2 DUP6 PUSH1 0x20 DUP7 ADD PUSH2 0x17E1 JUMP JUMPDEST PUSH2 0x18F8 DUP2 PUSH2 0xCD1 JUMP JUMPDEST DUP5 ADD SWAP2 POP POP SWAP3 SWAP2 POP POP JUMP JUMPDEST PUSH1 0x0 PUSH1 0x20 DUP3 ADD SWAP1 POP DUP2 DUP2 SUB PUSH1 0x0 DUP4 ADD MSTORE PUSH2 0x191D DUP2 DUP5 PUSH2 0x18CA JUMP JUMPDEST SWAP1 POP SWAP3 SWAP2 POP POP JUMP INVALID LOG2 PUSH5 0x6970667358 0x22 SLT KECCAK256 JUMPDEST PUSH1 0x2E 0xB7 NUMBER GASLIMIT JUMPDEST MOD 0xC1 MOD RETURNDATACOPY DUP8 0xD 0xE1 0xBE 0xD1 0xCE 0xF9 0xD7 PUSH19 0x34CA9B99D84FFFC23550B81064736F6C634300 ADDMOD GT STOP CALLER "
				},
				"gasEstimates": {
					"creation": {
						"codeDepositCost": "1298200",
						"executionCost": "infinite",
						"totalCost": "infinite"
					},
					"external": {
						"owner()": "2566",
						"renounceOwnership()": "30398",
						"residueGas()": "425",
						"transferEth(address[],uint256)": "infinite",
						"transferOwnership(address)": "30832",
						"transferProEth(address[],uint256[])": "infinite",
						"transferProToken(address,address[],uint256[])": "infinite",
						"transferToken(address,address[],uint256)": "infinite",
						"withdrawEth(address)": "infinite",
						"withdrawToken(address,address)": "infinite"
					}
				},
				"methodIdentifiers": {
					"owner()": "8da5cb5b",
					"renounceOwnership()": "715018a6",
					"residueGas()": "507351e2",
					"transferEth(address[],uint256)": "bd5f85d7",
					"transferOwnership(address)": "f2fde38b",
					"transferProEth(address[],uint256[])": "23550289",
					"transferProToken(address,address[],uint256[])": "05244e3f",
					"transferToken(address,address[],uint256)": "7a728217",
					"withdrawEth(address)": "25e16063",
					"withdrawToken(address,address)": "3aeac4e1"
				}
			},
			"storageLayout": {
				"storage": [
					{
						"astId": 704,
						"contract": "TransferInBulk.sol:BulkTransfer",
						"label": "_owner",
						"offset": 0,
						"slot": "0",
						"type": "t_address"
					}
				],
				"types": {
					"t_address": {
						"encoding": "inplace",
						"label": "address",
						"numberOfBytes": "20"
					}
				}
			},
			"userdoc": {
				"kind": "user",
				"methods": {},
				"version": 1
			}
		}
	}
}